{
	"solidity_by_example/022FunctionModifier.sol": {
		"FunctionModifier": {
			"abi": [
				{
					"inputs": [],
					"stateMutability": "nonpayable",
					"type": "constructor"
				},
				{
					"inputs": [
						{
							"internalType": "uint256",
							"name": "i",
							"type": "uint256"
						}
					],
					"name": "decrement",
					"outputs": [],
					"stateMutability": "nonpayable",
					"type": "function"
				},
				{
					"inputs": [],
					"name": "locked",
					"outputs": [
						{
							"internalType": "bool",
							"name": "",
							"type": "bool"
						}
					],
					"stateMutability": "view",
					"type": "function"
				},
				{
					"inputs": [
						{
							"internalType": "address",
							"name": "addr",
							"type": "address"
						}
					],
					"name": "modifyOwner",
					"outputs": [],
					"stateMutability": "nonpayable",
					"type": "function"
				},
				{
					"inputs": [
						{
							"internalType": "address",
							"name": "addr",
							"type": "address"
						}
					],
					"name": "modifyOwnerVaildAddress",
					"outputs": [],
					"stateMutability": "nonpayable",
					"type": "function"
				},
				{
					"inputs": [],
					"name": "owner",
					"outputs": [
						{
							"internalType": "address",
							"name": "",
							"type": "address"
						}
					],
					"stateMutability": "view",
					"type": "function"
				},
				{
					"inputs": [],
					"name": "x",
					"outputs": [
						{
							"internalType": "uint256",
							"name": "",
							"type": "uint256"
						}
					],
					"stateMutability": "view",
					"type": "function"
				}
			],
			"devdoc": {
				"kind": "dev",
				"methods": {},
				"version": 1
			},
			"evm": {
				"assembly": "    /* \"solidity_by_example/022FunctionModifier.sol\":63:1211  contract  FunctionModifier {... */\n  mstore(0x40, 0x80)\n    /* \"solidity_by_example/022FunctionModifier.sol\":154:156  10 */\n  0x0a\n    /* \"solidity_by_example/022FunctionModifier.sol\":138:156  uint public x = 10 */\n  0x01\n  sstore\n    /* \"solidity_by_example/022FunctionModifier.sol\":207:294  constructor(){... */\n  callvalue\n  dup1\n  iszero\n  tag_1\n  jumpi\n  0x00\n  dup1\n  revert\ntag_1:\n  pop\n    /* \"solidity_by_example/022FunctionModifier.sol\":239:249  msg.sender */\n  caller\n    /* \"solidity_by_example/022FunctionModifier.sol\":231:236  owner */\n  0x00\n  dup1\n    /* \"solidity_by_example/022FunctionModifier.sol\":231:249  owner = msg.sender */\n  0x0100\n  exp\n  dup2\n  sload\n  dup2\n  0xffffffffffffffffffffffffffffffffffffffff\n  mul\n  not\n  and\n  swap1\n  dup4\n  0xffffffffffffffffffffffffffffffffffffffff\n  and\n  mul\n  or\n  swap1\n  sstore\n  pop\n    /* \"solidity_by_example/022FunctionModifier.sol\":63:1211  contract  FunctionModifier {... */\n  dataSize(sub_0)\n  dup1\n  dataOffset(sub_0)\n  0x00\n  codecopy\n  0x00\n  return\nstop\n\nsub_0: assembly {\n        /* \"solidity_by_example/022FunctionModifier.sol\":63:1211  contract  FunctionModifier {... */\n      mstore(0x40, 0x80)\n      callvalue\n      dup1\n      iszero\n      tag_1\n      jumpi\n      0x00\n      dup1\n      revert\n    tag_1:\n      pop\n      jumpi(tag_2, lt(calldatasize, 0x04))\n      shr(0xe0, calldataload(0x00))\n      dup1\n      0x0c55699c\n      eq\n      tag_3\n      jumpi\n      dup1\n      0x3a9ebefd\n      eq\n      tag_4\n      jumpi\n      dup1\n      0x40cb3462\n      eq\n      tag_5\n      jumpi\n      dup1\n      0x8da5cb5b\n      eq\n      tag_6\n      jumpi\n      dup1\n      0xcf309012\n      eq\n      tag_7\n      jumpi\n      dup1\n      0xd5ace40d\n      eq\n      tag_8\n      jumpi\n    tag_2:\n      0x00\n      dup1\n      revert\n        /* \"solidity_by_example/022FunctionModifier.sol\":138:156  uint public x = 10 */\n    tag_3:\n      tag_9\n      tag_10\n      jump\t// in\n    tag_9:\n      mload(0x40)\n      tag_11\n      swap2\n      swap1\n      tag_12\n      jump\t// in\n    tag_11:\n      mload(0x40)\n      dup1\n      swap2\n      sub\n      swap1\n      return\n        /* \"solidity_by_example/022FunctionModifier.sol\":1078:1206  function decrement(uint i) public noReenterancy{... */\n    tag_4:\n      tag_13\n      0x04\n      dup1\n      calldatasize\n      sub\n      dup2\n      add\n      swap1\n      tag_14\n      swap2\n      swap1\n      tag_15\n      jump\t// in\n    tag_14:\n      tag_16\n      jump\t// in\n    tag_13:\n      stop\n        /* \"solidity_by_example/022FunctionModifier.sol\":469:551  function modifyOwner(address addr) public onlyOwner{... */\n    tag_5:\n      tag_17\n      0x04\n      dup1\n      calldatasize\n      sub\n      dup2\n      add\n      swap1\n      tag_18\n      swap2\n      swap1\n      tag_19\n      jump\t// in\n    tag_18:\n      tag_20\n      jump\t// in\n    tag_17:\n      stop\n        /* \"solidity_by_example/022FunctionModifier.sol\":99:119  address public owner */\n    tag_6:\n      tag_21\n      tag_22\n      jump\t// in\n    tag_21:\n      mload(0x40)\n      tag_23\n      swap2\n      swap1\n      tag_24\n      jump\t// in\n    tag_23:\n      mload(0x40)\n      dup1\n      swap2\n      sub\n      swap1\n      return\n        /* \"solidity_by_example/022FunctionModifier.sol\":163:181  bool public locked */\n    tag_7:\n      tag_25\n      tag_26\n      jump\t// in\n    tag_25:\n      mload(0x40)\n      tag_27\n      swap2\n      swap1\n      tag_28\n      jump\t// in\n    tag_27:\n      mload(0x40)\n      dup1\n      swap2\n      sub\n      swap1\n      return\n        /* \"solidity_by_example/022FunctionModifier.sol\":724:837  function modifyOwnerVaildAddress(address addr) public onlyOwner VaildAddress(addr){... */\n    tag_8:\n      tag_29\n      0x04\n      dup1\n      calldatasize\n      sub\n      dup2\n      add\n      swap1\n      tag_30\n      swap2\n      swap1\n      tag_19\n      jump\t// in\n    tag_30:\n      tag_31\n      jump\t// in\n    tag_29:\n      stop\n        /* \"solidity_by_example/022FunctionModifier.sol\":138:156  uint public x = 10 */\n    tag_10:\n      sload(0x01)\n      dup2\n      jump\t// out\n        /* \"solidity_by_example/022FunctionModifier.sol\":1078:1206  function decrement(uint i) public noReenterancy{... */\n    tag_16:\n        /* \"solidity_by_example/022FunctionModifier.sol\":976:982  locked */\n      0x02\n      0x00\n      swap1\n      sload\n      swap1\n      0x0100\n      exp\n      swap1\n      div\n      0xff\n      and\n        /* \"solidity_by_example/022FunctionModifier.sol\":975:982  !locked */\n      iszero\n        /* \"solidity_by_example/022FunctionModifier.sol\":967:1001  require(!locked,\"No Reenterancy!\") */\n      tag_33\n      jumpi\n      mload(0x40)\n      0x08c379a000000000000000000000000000000000000000000000000000000000\n      dup2\n      mstore\n      0x04\n      add\n      tag_34\n      swap1\n      tag_35\n      jump\t// in\n    tag_34:\n      mload(0x40)\n      dup1\n      swap2\n      sub\n      swap1\n      revert\n    tag_33:\n        /* \"solidity_by_example/022FunctionModifier.sol\":1021:1025  true */\n      0x01\n        /* \"solidity_by_example/022FunctionModifier.sol\":1012:1018  locked */\n      0x02\n      0x00\n        /* \"solidity_by_example/022FunctionModifier.sol\":1012:1025  locked = true */\n      0x0100\n      exp\n      dup2\n      sload\n      dup2\n      0xff\n      mul\n      not\n      and\n      swap1\n      dup4\n      iszero\n      iszero\n      mul\n      or\n      swap1\n      sstore\n      pop\n        /* \"solidity_by_example/022FunctionModifier.sol\":1139:1140  i */\n      dup1\n        /* \"solidity_by_example/022FunctionModifier.sol\":1136:1137  x */\n      0x01\n      0x00\n        /* \"solidity_by_example/022FunctionModifier.sol\":1136:1140  x-=i */\n      dup3\n      dup3\n      sload\n      tag_37\n      swap2\n      swap1\n      tag_38\n      jump\t// in\n    tag_37:\n      swap3\n      pop\n      pop\n      dup2\n      swap1\n      sstore\n      pop\n        /* \"solidity_by_example/022FunctionModifier.sol\":1156:1157  1 */\n      0x01\n        /* \"solidity_by_example/022FunctionModifier.sol\":1154:1155  i */\n      dup2\n        /* \"solidity_by_example/022FunctionModifier.sol\":1154:1157  i>1 */\n      gt\n        /* \"solidity_by_example/022FunctionModifier.sol\":1151:1199  if(i>1){... */\n      iszero\n      tag_39\n      jumpi\n        /* \"solidity_by_example/022FunctionModifier.sol\":1173:1187  decrement(i-1) */\n      tag_40\n        /* \"solidity_by_example/022FunctionModifier.sol\":1185:1186  1 */\n      0x01\n        /* \"solidity_by_example/022FunctionModifier.sol\":1183:1184  i */\n      dup3\n        /* \"solidity_by_example/022FunctionModifier.sol\":1183:1186  i-1 */\n      tag_41\n      swap2\n      swap1\n      tag_38\n      jump\t// in\n    tag_41:\n        /* \"solidity_by_example/022FunctionModifier.sol\":1173:1182  decrement */\n      tag_16\n        /* \"solidity_by_example/022FunctionModifier.sol\":1173:1187  decrement(i-1) */\n      jump\t// in\n    tag_40:\n        /* \"solidity_by_example/022FunctionModifier.sol\":1151:1199  if(i>1){... */\n    tag_39:\n        /* \"solidity_by_example/022FunctionModifier.sol\":1057:1062  false */\n      0x00\n        /* \"solidity_by_example/022FunctionModifier.sol\":1048:1054  locked */\n      0x02\n      0x00\n        /* \"solidity_by_example/022FunctionModifier.sol\":1048:1062  locked = false */\n      0x0100\n      exp\n      dup2\n      sload\n      dup2\n      0xff\n      mul\n      not\n      and\n      swap1\n      dup4\n      iszero\n      iszero\n      mul\n      or\n      swap1\n      sstore\n      pop\n        /* \"solidity_by_example/022FunctionModifier.sol\":1078:1206  function decrement(uint i) public noReenterancy{... */\n      pop\n      jump\t// out\n        /* \"solidity_by_example/022FunctionModifier.sol\":469:551  function modifyOwner(address addr) public onlyOwner{... */\n    tag_20:\n        /* \"solidity_by_example/022FunctionModifier.sol\":355:360  owner */\n      0x00\n      dup1\n      sload\n      swap1\n      0x0100\n      exp\n      swap1\n      div\n      0xffffffffffffffffffffffffffffffffffffffff\n      and\n        /* \"solidity_by_example/022FunctionModifier.sol\":341:360  msg.sender == owner */\n      0xffffffffffffffffffffffffffffffffffffffff\n      and\n        /* \"solidity_by_example/022FunctionModifier.sol\":341:351  msg.sender */\n      caller\n        /* \"solidity_by_example/022FunctionModifier.sol\":341:360  msg.sender == owner */\n      0xffffffffffffffffffffffffffffffffffffffff\n      and\n      eq\n        /* \"solidity_by_example/022FunctionModifier.sol\":333:382  require(msg.sender == owner,\"you are not owner;\") */\n      tag_43\n      jumpi\n      mload(0x40)\n      0x08c379a000000000000000000000000000000000000000000000000000000000\n      dup2\n      mstore\n      0x04\n      add\n      tag_44\n      swap1\n      tag_45\n      jump\t// in\n    tag_44:\n      mload(0x40)\n      dup1\n      swap2\n      sub\n      swap1\n      revert\n    tag_43:\n        /* \"solidity_by_example/022FunctionModifier.sol\":539:543  addr */\n      dup1\n        /* \"solidity_by_example/022FunctionModifier.sol\":531:536  owner */\n      0x00\n      dup1\n        /* \"solidity_by_example/022FunctionModifier.sol\":531:543  owner = addr */\n      0x0100\n      exp\n      dup2\n      sload\n      dup2\n      0xffffffffffffffffffffffffffffffffffffffff\n      mul\n      not\n      and\n      swap1\n      dup4\n      0xffffffffffffffffffffffffffffffffffffffff\n      and\n      mul\n      or\n      swap1\n      sstore\n      pop\n        /* \"solidity_by_example/022FunctionModifier.sol\":469:551  function modifyOwner(address addr) public onlyOwner{... */\n      pop\n      jump\t// out\n        /* \"solidity_by_example/022FunctionModifier.sol\":99:119  address public owner */\n    tag_22:\n      0x00\n      dup1\n      sload\n      swap1\n      0x0100\n      exp\n      swap1\n      div\n      0xffffffffffffffffffffffffffffffffffffffff\n      and\n      dup2\n      jump\t// out\n        /* \"solidity_by_example/022FunctionModifier.sol\":163:181  bool public locked */\n    tag_26:\n      0x02\n      0x00\n      swap1\n      sload\n      swap1\n      0x0100\n      exp\n      swap1\n      div\n      0xff\n      and\n      dup2\n      jump\t// out\n        /* \"solidity_by_example/022FunctionModifier.sol\":724:837  function modifyOwnerVaildAddress(address addr) public onlyOwner VaildAddress(addr){... */\n    tag_31:\n        /* \"solidity_by_example/022FunctionModifier.sol\":355:360  owner */\n      0x00\n      dup1\n      sload\n      swap1\n      0x0100\n      exp\n      swap1\n      div\n      0xffffffffffffffffffffffffffffffffffffffff\n      and\n        /* \"solidity_by_example/022FunctionModifier.sol\":341:360  msg.sender == owner */\n      0xffffffffffffffffffffffffffffffffffffffff\n      and\n        /* \"solidity_by_example/022FunctionModifier.sol\":341:351  msg.sender */\n      caller\n        /* \"solidity_by_example/022FunctionModifier.sol\":341:360  msg.sender == owner */\n      0xffffffffffffffffffffffffffffffffffffffff\n      and\n      eq\n        /* \"solidity_by_example/022FunctionModifier.sol\":333:382  require(msg.sender == owner,\"you are not owner;\") */\n      tag_48\n      jumpi\n      mload(0x40)\n      0x08c379a000000000000000000000000000000000000000000000000000000000\n      dup2\n      mstore\n      0x04\n      add\n      tag_49\n      swap1\n      tag_45\n      jump\t// in\n    tag_49:\n      mload(0x40)\n      dup1\n      swap2\n      sub\n      swap1\n      revert\n    tag_48:\n        /* \"solidity_by_example/022FunctionModifier.sol\":801:805  addr */\n      dup1\n        /* \"solidity_by_example/022FunctionModifier.sol\":672:673  0 */\n      0x00\n        /* \"solidity_by_example/022FunctionModifier.sol\":656:674  addr != address(0) */\n      0xffffffffffffffffffffffffffffffffffffffff\n      and\n        /* \"solidity_by_example/022FunctionModifier.sol\":656:660  addr */\n      dup2\n        /* \"solidity_by_example/022FunctionModifier.sol\":656:674  addr != address(0) */\n      0xffffffffffffffffffffffffffffffffffffffff\n      and\n      sub\n        /* \"solidity_by_example/022FunctionModifier.sol\":648:696  require(addr != address(0),\"Not valid address!\") */\n      tag_51\n      jumpi\n      mload(0x40)\n      0x08c379a000000000000000000000000000000000000000000000000000000000\n      dup2\n      mstore\n      0x04\n      add\n      tag_52\n      swap1\n      tag_53\n      jump\t// in\n    tag_52:\n      mload(0x40)\n      dup1\n      swap2\n      sub\n      swap1\n      revert\n    tag_51:\n        /* \"solidity_by_example/022FunctionModifier.sol\":825:829  addr */\n      dup2\n        /* \"solidity_by_example/022FunctionModifier.sol\":817:822  owner */\n      0x00\n      dup1\n        /* \"solidity_by_example/022FunctionModifier.sol\":817:829  owner = addr */\n      0x0100\n      exp\n      dup2\n      sload\n      dup2\n      0xffffffffffffffffffffffffffffffffffffffff\n      mul\n      not\n      and\n      swap1\n      dup4\n      0xffffffffffffffffffffffffffffffffffffffff\n      and\n      mul\n      or\n      swap1\n      sstore\n      pop\n        /* \"solidity_by_example/022FunctionModifier.sol\":393:394  _ */\n      pop\n        /* \"solidity_by_example/022FunctionModifier.sol\":724:837  function modifyOwnerVaildAddress(address addr) public onlyOwner VaildAddress(addr){... */\n      pop\n      jump\t// out\n        /* \"#utility.yul\":7:84   */\n    tag_55:\n        /* \"#utility.yul\":44:51   */\n      0x00\n        /* \"#utility.yul\":73:78   */\n      dup2\n        /* \"#utility.yul\":62:78   */\n      swap1\n      pop\n        /* \"#utility.yul\":7:84   */\n      swap2\n      swap1\n      pop\n      jump\t// out\n        /* \"#utility.yul\":90:208   */\n    tag_56:\n        /* \"#utility.yul\":177:201   */\n      tag_80\n        /* \"#utility.yul\":195:200   */\n      dup2\n        /* \"#utility.yul\":177:201   */\n      tag_55\n      jump\t// in\n    tag_80:\n        /* \"#utility.yul\":172:175   */\n      dup3\n        /* \"#utility.yul\":165:202   */\n      mstore\n        /* \"#utility.yul\":90:208   */\n      pop\n      pop\n      jump\t// out\n        /* \"#utility.yul\":214:436   */\n    tag_12:\n        /* \"#utility.yul\":307:311   */\n      0x00\n        /* \"#utility.yul\":345:347   */\n      0x20\n        /* \"#utility.yul\":334:343   */\n      dup3\n        /* \"#utility.yul\":330:348   */\n      add\n        /* \"#utility.yul\":322:348   */\n      swap1\n      pop\n        /* \"#utility.yul\":358:429   */\n      tag_82\n        /* \"#utility.yul\":426:427   */\n      0x00\n        /* \"#utility.yul\":415:424   */\n      dup4\n        /* \"#utility.yul\":411:428   */\n      add\n        /* \"#utility.yul\":402:408   */\n      dup5\n        /* \"#utility.yul\":358:429   */\n      tag_56\n      jump\t// in\n    tag_82:\n        /* \"#utility.yul\":214:436   */\n      swap3\n      swap2\n      pop\n      pop\n      jump\t// out\n        /* \"#utility.yul\":523:640   */\n    tag_58:\n        /* \"#utility.yul\":632:633   */\n      0x00\n        /* \"#utility.yul\":629:630   */\n      dup1\n        /* \"#utility.yul\":622:634   */\n      revert\n        /* \"#utility.yul\":769:891   */\n    tag_60:\n        /* \"#utility.yul\":842:866   */\n      tag_87\n        /* \"#utility.yul\":860:865   */\n      dup2\n        /* \"#utility.yul\":842:866   */\n      tag_55\n      jump\t// in\n    tag_87:\n        /* \"#utility.yul\":835:840   */\n      dup2\n        /* \"#utility.yul\":832:867   */\n      eq\n        /* \"#utility.yul\":822:885   */\n      tag_88\n      jumpi\n        /* \"#utility.yul\":881:882   */\n      0x00\n        /* \"#utility.yul\":878:879   */\n      dup1\n        /* \"#utility.yul\":871:883   */\n      revert\n        /* \"#utility.yul\":822:885   */\n    tag_88:\n        /* \"#utility.yul\":769:891   */\n      pop\n      jump\t// out\n        /* \"#utility.yul\":897:1036   */\n    tag_61:\n        /* \"#utility.yul\":943:948   */\n      0x00\n        /* \"#utility.yul\":981:987   */\n      dup2\n        /* \"#utility.yul\":968:988   */\n      calldataload\n        /* \"#utility.yul\":959:988   */\n      swap1\n      pop\n        /* \"#utility.yul\":997:1030   */\n      tag_90\n        /* \"#utility.yul\":1024:1029   */\n      dup2\n        /* \"#utility.yul\":997:1030   */\n      tag_60\n      jump\t// in\n    tag_90:\n        /* \"#utility.yul\":897:1036   */\n      swap3\n      swap2\n      pop\n      pop\n      jump\t// out\n        /* \"#utility.yul\":1042:1371   */\n    tag_15:\n        /* \"#utility.yul\":1101:1107   */\n      0x00\n        /* \"#utility.yul\":1150:1152   */\n      0x20\n        /* \"#utility.yul\":1138:1147   */\n      dup3\n        /* \"#utility.yul\":1129:1136   */\n      dup5\n        /* \"#utility.yul\":1125:1148   */\n      sub\n        /* \"#utility.yul\":1121:1153   */\n      slt\n        /* \"#utility.yul\":1118:1237   */\n      iszero\n      tag_92\n      jumpi\n        /* \"#utility.yul\":1156:1235   */\n      tag_93\n      tag_58\n      jump\t// in\n    tag_93:\n        /* \"#utility.yul\":1118:1237   */\n    tag_92:\n        /* \"#utility.yul\":1276:1277   */\n      0x00\n        /* \"#utility.yul\":1301:1354   */\n      tag_94\n        /* \"#utility.yul\":1346:1353   */\n      dup5\n        /* \"#utility.yul\":1337:1343   */\n      dup3\n        /* \"#utility.yul\":1326:1335   */\n      dup6\n        /* \"#utility.yul\":1322:1344   */\n      add\n        /* \"#utility.yul\":1301:1354   */\n      tag_61\n      jump\t// in\n    tag_94:\n        /* \"#utility.yul\":1291:1354   */\n      swap2\n      pop\n        /* \"#utility.yul\":1247:1364   */\n      pop\n        /* \"#utility.yul\":1042:1371   */\n      swap3\n      swap2\n      pop\n      pop\n      jump\t// out\n        /* \"#utility.yul\":1377:1503   */\n    tag_62:\n        /* \"#utility.yul\":1414:1421   */\n      0x00\n        /* \"#utility.yul\":1454:1496   */\n      0xffffffffffffffffffffffffffffffffffffffff\n        /* \"#utility.yul\":1447:1452   */\n      dup3\n        /* \"#utility.yul\":1443:1497   */\n      and\n        /* \"#utility.yul\":1432:1497   */\n      swap1\n      pop\n        /* \"#utility.yul\":1377:1503   */\n      swap2\n      swap1\n      pop\n      jump\t// out\n        /* \"#utility.yul\":1509:1605   */\n    tag_63:\n        /* \"#utility.yul\":1546:1553   */\n      0x00\n        /* \"#utility.yul\":1575:1599   */\n      tag_97\n        /* \"#utility.yul\":1593:1598   */\n      dup3\n        /* \"#utility.yul\":1575:1599   */\n      tag_62\n      jump\t// in\n    tag_97:\n        /* \"#utility.yul\":1564:1599   */\n      swap1\n      pop\n        /* \"#utility.yul\":1509:1605   */\n      swap2\n      swap1\n      pop\n      jump\t// out\n        /* \"#utility.yul\":1611:1733   */\n    tag_64:\n        /* \"#utility.yul\":1684:1708   */\n      tag_99\n        /* \"#utility.yul\":1702:1707   */\n      dup2\n        /* \"#utility.yul\":1684:1708   */\n      tag_63\n      jump\t// in\n    tag_99:\n        /* \"#utility.yul\":1677:1682   */\n      dup2\n        /* \"#utility.yul\":1674:1709   */\n      eq\n        /* \"#utility.yul\":1664:1727   */\n      tag_100\n      jumpi\n        /* \"#utility.yul\":1723:1724   */\n      0x00\n        /* \"#utility.yul\":1720:1721   */\n      dup1\n        /* \"#utility.yul\":1713:1725   */\n      revert\n        /* \"#utility.yul\":1664:1727   */\n    tag_100:\n        /* \"#utility.yul\":1611:1733   */\n      pop\n      jump\t// out\n        /* \"#utility.yul\":1739:1878   */\n    tag_65:\n        /* \"#utility.yul\":1785:1790   */\n      0x00\n        /* \"#utility.yul\":1823:1829   */\n      dup2\n        /* \"#utility.yul\":1810:1830   */\n      calldataload\n        /* \"#utility.yul\":1801:1830   */\n      swap1\n      pop\n        /* \"#utility.yul\":1839:1872   */\n      tag_102\n        /* \"#utility.yul\":1866:1871   */\n      dup2\n        /* \"#utility.yul\":1839:1872   */\n      tag_64\n      jump\t// in\n    tag_102:\n        /* \"#utility.yul\":1739:1878   */\n      swap3\n      swap2\n      pop\n      pop\n      jump\t// out\n        /* \"#utility.yul\":1884:2213   */\n    tag_19:\n        /* \"#utility.yul\":1943:1949   */\n      0x00\n        /* \"#utility.yul\":1992:1994   */\n      0x20\n        /* \"#utility.yul\":1980:1989   */\n      dup3\n        /* \"#utility.yul\":1971:1978   */\n      dup5\n        /* \"#utility.yul\":1967:1990   */\n      sub\n        /* \"#utility.yul\":1963:1995   */\n      slt\n        /* \"#utility.yul\":1960:2079   */\n      iszero\n      tag_104\n      jumpi\n        /* \"#utility.yul\":1998:2077   */\n      tag_105\n      tag_58\n      jump\t// in\n    tag_105:\n        /* \"#utility.yul\":1960:2079   */\n    tag_104:\n        /* \"#utility.yul\":2118:2119   */\n      0x00\n        /* \"#utility.yul\":2143:2196   */\n      tag_106\n        /* \"#utility.yul\":2188:2195   */\n      dup5\n        /* \"#utility.yul\":2179:2185   */\n      dup3\n        /* \"#utility.yul\":2168:2177   */\n      dup6\n        /* \"#utility.yul\":2164:2186   */\n      add\n        /* \"#utility.yul\":2143:2196   */\n      tag_65\n      jump\t// in\n    tag_106:\n        /* \"#utility.yul\":2133:2196   */\n      swap2\n      pop\n        /* \"#utility.yul\":2089:2206   */\n      pop\n        /* \"#utility.yul\":1884:2213   */\n      swap3\n      swap2\n      pop\n      pop\n      jump\t// out\n        /* \"#utility.yul\":2219:2337   */\n    tag_66:\n        /* \"#utility.yul\":2306:2330   */\n      tag_108\n        /* \"#utility.yul\":2324:2329   */\n      dup2\n        /* \"#utility.yul\":2306:2330   */\n      tag_63\n      jump\t// in\n    tag_108:\n        /* \"#utility.yul\":2301:2304   */\n      dup3\n        /* \"#utility.yul\":2294:2331   */\n      mstore\n        /* \"#utility.yul\":2219:2337   */\n      pop\n      pop\n      jump\t// out\n        /* \"#utility.yul\":2343:2565   */\n    tag_24:\n        /* \"#utility.yul\":2436:2440   */\n      0x00\n        /* \"#utility.yul\":2474:2476   */\n      0x20\n        /* \"#utility.yul\":2463:2472   */\n      dup3\n        /* \"#utility.yul\":2459:2477   */\n      add\n        /* \"#utility.yul\":2451:2477   */\n      swap1\n      pop\n        /* \"#utility.yul\":2487:2558   */\n      tag_110\n        /* \"#utility.yul\":2555:2556   */\n      0x00\n        /* \"#utility.yul\":2544:2553   */\n      dup4\n        /* \"#utility.yul\":2540:2557   */\n      add\n        /* \"#utility.yul\":2531:2537   */\n      dup5\n        /* \"#utility.yul\":2487:2558   */\n      tag_66\n      jump\t// in\n    tag_110:\n        /* \"#utility.yul\":2343:2565   */\n      swap3\n      swap2\n      pop\n      pop\n      jump\t// out\n        /* \"#utility.yul\":2571:2661   */\n    tag_67:\n        /* \"#utility.yul\":2605:2612   */\n      0x00\n        /* \"#utility.yul\":2648:2653   */\n      dup2\n        /* \"#utility.yul\":2641:2654   */\n      iszero\n        /* \"#utility.yul\":2634:2655   */\n      iszero\n        /* \"#utility.yul\":2623:2655   */\n      swap1\n      pop\n        /* \"#utility.yul\":2571:2661   */\n      swap2\n      swap1\n      pop\n      jump\t// out\n        /* \"#utility.yul\":2667:2776   */\n    tag_68:\n        /* \"#utility.yul\":2748:2769   */\n      tag_113\n        /* \"#utility.yul\":2763:2768   */\n      dup2\n        /* \"#utility.yul\":2748:2769   */\n      tag_67\n      jump\t// in\n    tag_113:\n        /* \"#utility.yul\":2743:2746   */\n      dup3\n        /* \"#utility.yul\":2736:2770   */\n      mstore\n        /* \"#utility.yul\":2667:2776   */\n      pop\n      pop\n      jump\t// out\n        /* \"#utility.yul\":2782:2992   */\n    tag_28:\n        /* \"#utility.yul\":2869:2873   */\n      0x00\n        /* \"#utility.yul\":2907:2909   */\n      0x20\n        /* \"#utility.yul\":2896:2905   */\n      dup3\n        /* \"#utility.yul\":2892:2910   */\n      add\n        /* \"#utility.yul\":2884:2910   */\n      swap1\n      pop\n        /* \"#utility.yul\":2920:2985   */\n      tag_115\n        /* \"#utility.yul\":2982:2983   */\n      0x00\n        /* \"#utility.yul\":2971:2980   */\n      dup4\n        /* \"#utility.yul\":2967:2984   */\n      add\n        /* \"#utility.yul\":2958:2964   */\n      dup5\n        /* \"#utility.yul\":2920:2985   */\n      tag_68\n      jump\t// in\n    tag_115:\n        /* \"#utility.yul\":2782:2992   */\n      swap3\n      swap2\n      pop\n      pop\n      jump\t// out\n        /* \"#utility.yul\":2998:3167   */\n    tag_69:\n        /* \"#utility.yul\":3082:3093   */\n      0x00\n        /* \"#utility.yul\":3116:3122   */\n      dup3\n        /* \"#utility.yul\":3111:3114   */\n      dup3\n        /* \"#utility.yul\":3104:3123   */\n      mstore\n        /* \"#utility.yul\":3156:3160   */\n      0x20\n        /* \"#utility.yul\":3151:3154   */\n      dup3\n        /* \"#utility.yul\":3147:3161   */\n      add\n        /* \"#utility.yul\":3132:3161   */\n      swap1\n      pop\n        /* \"#utility.yul\":2998:3167   */\n      swap3\n      swap2\n      pop\n      pop\n      jump\t// out\n        /* \"#utility.yul\":3173:3338   */\n    tag_70:\n        /* \"#utility.yul\":3313:3330   */\n      0x4e6f205265656e746572616e6379210000000000000000000000000000000000\n        /* \"#utility.yul\":3309:3310   */\n      0x00\n        /* \"#utility.yul\":3301:3307   */\n      dup3\n        /* \"#utility.yul\":3297:3311   */\n      add\n        /* \"#utility.yul\":3290:3331   */\n      mstore\n        /* \"#utility.yul\":3173:3338   */\n      pop\n      jump\t// out\n        /* \"#utility.yul\":3344:3710   */\n    tag_71:\n        /* \"#utility.yul\":3486:3489   */\n      0x00\n        /* \"#utility.yul\":3507:3574   */\n      tag_119\n        /* \"#utility.yul\":3571:3573   */\n      0x0f\n        /* \"#utility.yul\":3566:3569   */\n      dup4\n        /* \"#utility.yul\":3507:3574   */\n      tag_69\n      jump\t// in\n    tag_119:\n        /* \"#utility.yul\":3500:3574   */\n      swap2\n      pop\n        /* \"#utility.yul\":3583:3676   */\n      tag_120\n        /* \"#utility.yul\":3672:3675   */\n      dup3\n        /* \"#utility.yul\":3583:3676   */\n      tag_70\n      jump\t// in\n    tag_120:\n        /* \"#utility.yul\":3701:3703   */\n      0x20\n        /* \"#utility.yul\":3696:3699   */\n      dup3\n        /* \"#utility.yul\":3692:3704   */\n      add\n        /* \"#utility.yul\":3685:3704   */\n      swap1\n      pop\n        /* \"#utility.yul\":3344:3710   */\n      swap2\n      swap1\n      pop\n      jump\t// out\n        /* \"#utility.yul\":3716:4135   */\n    tag_35:\n        /* \"#utility.yul\":3882:3886   */\n      0x00\n        /* \"#utility.yul\":3920:3922   */\n      0x20\n        /* \"#utility.yul\":3909:3918   */\n      dup3\n        /* \"#utility.yul\":3905:3923   */\n      add\n        /* \"#utility.yul\":3897:3923   */\n      swap1\n      pop\n        /* \"#utility.yul\":3969:3978   */\n      dup2\n        /* \"#utility.yul\":3963:3967   */\n      dup2\n        /* \"#utility.yul\":3959:3979   */\n      sub\n        /* \"#utility.yul\":3955:3956   */\n      0x00\n        /* \"#utility.yul\":3944:3953   */\n      dup4\n        /* \"#utility.yul\":3940:3957   */\n      add\n        /* \"#utility.yul\":3933:3980   */\n      mstore\n        /* \"#utility.yul\":3997:4128   */\n      tag_122\n        /* \"#utility.yul\":4123:4127   */\n      dup2\n        /* \"#utility.yul\":3997:4128   */\n      tag_71\n      jump\t// in\n    tag_122:\n        /* \"#utility.yul\":3989:4128   */\n      swap1\n      pop\n        /* \"#utility.yul\":3716:4135   */\n      swap2\n      swap1\n      pop\n      jump\t// out\n        /* \"#utility.yul\":4141:4321   */\n    tag_72:\n        /* \"#utility.yul\":4189:4266   */\n      0x4e487b7100000000000000000000000000000000000000000000000000000000\n        /* \"#utility.yul\":4186:4187   */\n      0x00\n        /* \"#utility.yul\":4179:4267   */\n      mstore\n        /* \"#utility.yul\":4286:4290   */\n      0x11\n        /* \"#utility.yul\":4283:4284   */\n      0x04\n        /* \"#utility.yul\":4276:4291   */\n      mstore\n        /* \"#utility.yul\":4310:4314   */\n      0x24\n        /* \"#utility.yul\":4307:4308   */\n      0x00\n        /* \"#utility.yul\":4300:4315   */\n      revert\n        /* \"#utility.yul\":4327:4521   */\n    tag_38:\n        /* \"#utility.yul\":4367:4371   */\n      0x00\n        /* \"#utility.yul\":4387:4407   */\n      tag_125\n        /* \"#utility.yul\":4405:4406   */\n      dup3\n        /* \"#utility.yul\":4387:4407   */\n      tag_55\n      jump\t// in\n    tag_125:\n        /* \"#utility.yul\":4382:4407   */\n      swap2\n      pop\n        /* \"#utility.yul\":4421:4441   */\n      tag_126\n        /* \"#utility.yul\":4439:4440   */\n      dup4\n        /* \"#utility.yul\":4421:4441   */\n      tag_55\n      jump\t// in\n    tag_126:\n        /* \"#utility.yul\":4416:4441   */\n      swap3\n      pop\n        /* \"#utility.yul\":4465:4466   */\n      dup3\n        /* \"#utility.yul\":4462:4463   */\n      dup3\n        /* \"#utility.yul\":4458:4467   */\n      sub\n        /* \"#utility.yul\":4450:4467   */\n      swap1\n      pop\n        /* \"#utility.yul\":4489:4490   */\n      dup2\n        /* \"#utility.yul\":4483:4487   */\n      dup2\n        /* \"#utility.yul\":4480:4491   */\n      gt\n        /* \"#utility.yul\":4477:4514   */\n      iszero\n      tag_127\n      jumpi\n        /* \"#utility.yul\":4494:4512   */\n      tag_128\n      tag_72\n      jump\t// in\n    tag_128:\n        /* \"#utility.yul\":4477:4514   */\n    tag_127:\n        /* \"#utility.yul\":4327:4521   */\n      swap3\n      swap2\n      pop\n      pop\n      jump\t// out\n        /* \"#utility.yul\":4527:4695   */\n    tag_73:\n        /* \"#utility.yul\":4667:4687   */\n      0x796f7520617265206e6f74206f776e65723b0000000000000000000000000000\n        /* \"#utility.yul\":4663:4664   */\n      0x00\n        /* \"#utility.yul\":4655:4661   */\n      dup3\n        /* \"#utility.yul\":4651:4665   */\n      add\n        /* \"#utility.yul\":4644:4688   */\n      mstore\n        /* \"#utility.yul\":4527:4695   */\n      pop\n      jump\t// out\n        /* \"#utility.yul\":4701:5067   */\n    tag_74:\n        /* \"#utility.yul\":4843:4846   */\n      0x00\n        /* \"#utility.yul\":4864:4931   */\n      tag_131\n        /* \"#utility.yul\":4928:4930   */\n      0x12\n        /* \"#utility.yul\":4923:4926   */\n      dup4\n        /* \"#utility.yul\":4864:4931   */\n      tag_69\n      jump\t// in\n    tag_131:\n        /* \"#utility.yul\":4857:4931   */\n      swap2\n      pop\n        /* \"#utility.yul\":4940:5033   */\n      tag_132\n        /* \"#utility.yul\":5029:5032   */\n      dup3\n        /* \"#utility.yul\":4940:5033   */\n      tag_73\n      jump\t// in\n    tag_132:\n        /* \"#utility.yul\":5058:5060   */\n      0x20\n        /* \"#utility.yul\":5053:5056   */\n      dup3\n        /* \"#utility.yul\":5049:5061   */\n      add\n        /* \"#utility.yul\":5042:5061   */\n      swap1\n      pop\n        /* \"#utility.yul\":4701:5067   */\n      swap2\n      swap1\n      pop\n      jump\t// out\n        /* \"#utility.yul\":5073:5492   */\n    tag_45:\n        /* \"#utility.yul\":5239:5243   */\n      0x00\n        /* \"#utility.yul\":5277:5279   */\n      0x20\n        /* \"#utility.yul\":5266:5275   */\n      dup3\n        /* \"#utility.yul\":5262:5280   */\n      add\n        /* \"#utility.yul\":5254:5280   */\n      swap1\n      pop\n        /* \"#utility.yul\":5326:5335   */\n      dup2\n        /* \"#utility.yul\":5320:5324   */\n      dup2\n        /* \"#utility.yul\":5316:5336   */\n      sub\n        /* \"#utility.yul\":5312:5313   */\n      0x00\n        /* \"#utility.yul\":5301:5310   */\n      dup4\n        /* \"#utility.yul\":5297:5314   */\n      add\n        /* \"#utility.yul\":5290:5337   */\n      mstore\n        /* \"#utility.yul\":5354:5485   */\n      tag_134\n        /* \"#utility.yul\":5480:5484   */\n      dup2\n        /* \"#utility.yul\":5354:5485   */\n      tag_74\n      jump\t// in\n    tag_134:\n        /* \"#utility.yul\":5346:5485   */\n      swap1\n      pop\n        /* \"#utility.yul\":5073:5492   */\n      swap2\n      swap1\n      pop\n      jump\t// out\n        /* \"#utility.yul\":5498:5666   */\n    tag_75:\n        /* \"#utility.yul\":5638:5658   */\n      0x4e6f742076616c69642061646472657373210000000000000000000000000000\n        /* \"#utility.yul\":5634:5635   */\n      0x00\n        /* \"#utility.yul\":5626:5632   */\n      dup3\n        /* \"#utility.yul\":5622:5636   */\n      add\n        /* \"#utility.yul\":5615:5659   */\n      mstore\n        /* \"#utility.yul\":5498:5666   */\n      pop\n      jump\t// out\n        /* \"#utility.yul\":5672:6038   */\n    tag_76:\n        /* \"#utility.yul\":5814:5817   */\n      0x00\n        /* \"#utility.yul\":5835:5902   */\n      tag_137\n        /* \"#utility.yul\":5899:5901   */\n      0x12\n        /* \"#utility.yul\":5894:5897   */\n      dup4\n        /* \"#utility.yul\":5835:5902   */\n      tag_69\n      jump\t// in\n    tag_137:\n        /* \"#utility.yul\":5828:5902   */\n      swap2\n      pop\n        /* \"#utility.yul\":5911:6004   */\n      tag_138\n        /* \"#utility.yul\":6000:6003   */\n      dup3\n        /* \"#utility.yul\":5911:6004   */\n      tag_75\n      jump\t// in\n    tag_138:\n        /* \"#utility.yul\":6029:6031   */\n      0x20\n        /* \"#utility.yul\":6024:6027   */\n      dup3\n        /* \"#utility.yul\":6020:6032   */\n      add\n        /* \"#utility.yul\":6013:6032   */\n      swap1\n      pop\n        /* \"#utility.yul\":5672:6038   */\n      swap2\n      swap1\n      pop\n      jump\t// out\n        /* \"#utility.yul\":6044:6463   */\n    tag_53:\n        /* \"#utility.yul\":6210:6214   */\n      0x00\n        /* \"#utility.yul\":6248:6250   */\n      0x20\n        /* \"#utility.yul\":6237:6246   */\n      dup3\n        /* \"#utility.yul\":6233:6251   */\n      add\n        /* \"#utility.yul\":6225:6251   */\n      swap1\n      pop\n        /* \"#utility.yul\":6297:6306   */\n      dup2\n        /* \"#utility.yul\":6291:6295   */\n      dup2\n        /* \"#utility.yul\":6287:6307   */\n      sub\n        /* \"#utility.yul\":6283:6284   */\n      0x00\n        /* \"#utility.yul\":6272:6281   */\n      dup4\n        /* \"#utility.yul\":6268:6285   */\n      add\n        /* \"#utility.yul\":6261:6308   */\n      mstore\n        /* \"#utility.yul\":6325:6456   */\n      tag_140\n        /* \"#utility.yul\":6451:6455   */\n      dup2\n        /* \"#utility.yul\":6325:6456   */\n      tag_76\n      jump\t// in\n    tag_140:\n        /* \"#utility.yul\":6317:6456   */\n      swap1\n      pop\n        /* \"#utility.yul\":6044:6463   */\n      swap2\n      swap1\n      pop\n      jump\t// out\n\n    auxdata: 0xa2646970667358221220fadfac6bbf447e4974892e95a147196af5f7e2d7fb5fe56333ab9acad37fae9164736f6c634300081a0033\n}\n",
				"bytecode": {
					"linkReferences": {},
					"object": "6080604052600a6001553480156013575f80fd5b50335f806101000a81548173ffffffffffffffffffffffffffffffffffffffff021916908373ffffffffffffffffffffffffffffffffffffffff16021790555061075f806100605f395ff3fe608060405234801561000f575f80fd5b5060043610610060575f3560e01c80630c55699c146100645780633a9ebefd1461008257806340cb34621461009e5780638da5cb5b146100ba578063cf309012146100d8578063d5ace40d146100f6575b5f80fd5b61006c610112565b604051610079919061042f565b60405180910390f35b61009c60048036038101906100979190610476565b610118565b005b6100b860048036038101906100b391906104fb565b6101d4565b005b6100c26102a3565b6040516100cf9190610535565b60405180910390f35b6100e06102c6565b6040516100ed9190610568565b60405180910390f35b610110600480360381019061010b91906104fb565b6102d8565b005b60015481565b60025f9054906101000a900460ff1615610167576040517f08c379a000000000000000000000000000000000000000000000000000000000815260040161015e906105db565b60405180910390fd5b600160025f6101000a81548160ff0219169083151502179055508060015f8282546101929190610626565b9250508190555060018111156101b8576101b76001826101b29190610626565b610118565b5b5f60025f6101000a81548160ff02191690831515021790555050565b5f8054906101000a900473ffffffffffffffffffffffffffffffffffffffff1673ffffffffffffffffffffffffffffffffffffffff163373ffffffffffffffffffffffffffffffffffffffff1614610261576040517f08c379a0000000000000000000000000000000000000000000000000000000008152600401610258906106a3565b60405180910390fd5b805f806101000a81548173ffffffffffffffffffffffffffffffffffffffff021916908373ffffffffffffffffffffffffffffffffffffffff16021790555050565b5f8054906101000a900473ffffffffffffffffffffffffffffffffffffffff1681565b60025f9054906101000a900460ff1681565b5f8054906101000a900473ffffffffffffffffffffffffffffffffffffffff1673ffffffffffffffffffffffffffffffffffffffff163373ffffffffffffffffffffffffffffffffffffffff1614610365576040517f08c379a000000000000000000000000000000000000000000000000000000000815260040161035c906106a3565b60405180910390fd5b805f73ffffffffffffffffffffffffffffffffffffffff168173ffffffffffffffffffffffffffffffffffffffff16036103d4576040517f08c379a00000000000000000000000000000000000000000000000000000000081526004016103cb9061070b565b60405180910390fd5b815f806101000a81548173ffffffffffffffffffffffffffffffffffffffff021916908373ffffffffffffffffffffffffffffffffffffffff1602179055505050565b5f819050919050565b61042981610417565b82525050565b5f6020820190506104425f830184610420565b92915050565b5f80fd5b61045581610417565b811461045f575f80fd5b50565b5f813590506104708161044c565b92915050565b5f6020828403121561048b5761048a610448565b5b5f61049884828501610462565b91505092915050565b5f73ffffffffffffffffffffffffffffffffffffffff82169050919050565b5f6104ca826104a1565b9050919050565b6104da816104c0565b81146104e4575f80fd5b50565b5f813590506104f5816104d1565b92915050565b5f602082840312156105105761050f610448565b5b5f61051d848285016104e7565b91505092915050565b61052f816104c0565b82525050565b5f6020820190506105485f830184610526565b92915050565b5f8115159050919050565b6105628161054e565b82525050565b5f60208201905061057b5f830184610559565b92915050565b5f82825260208201905092915050565b7f4e6f205265656e746572616e63792100000000000000000000000000000000005f82015250565b5f6105c5600f83610581565b91506105d082610591565b602082019050919050565b5f6020820190508181035f8301526105f2816105b9565b9050919050565b7f4e487b71000000000000000000000000000000000000000000000000000000005f52601160045260245ffd5b5f61063082610417565b915061063b83610417565b9250828203905081811115610653576106526105f9565b5b92915050565b7f796f7520617265206e6f74206f776e65723b00000000000000000000000000005f82015250565b5f61068d601283610581565b915061069882610659565b602082019050919050565b5f6020820190508181035f8301526106ba81610681565b9050919050565b7f4e6f742076616c696420616464726573732100000000000000000000000000005f82015250565b5f6106f5601283610581565b9150610700826106c1565b602082019050919050565b5f6020820190508181035f830152610722816106e9565b905091905056fea2646970667358221220fadfac6bbf447e4974892e95a147196af5f7e2d7fb5fe56333ab9acad37fae9164736f6c634300081a0033",
					"opcodes": "PUSH1 0x80 PUSH1 0x40 MSTORE PUSH1 0xA PUSH1 0x1 SSTORE CALLVALUE DUP1 ISZERO PUSH1 0x13 JUMPI PUSH0 DUP1 REVERT JUMPDEST POP CALLER PUSH0 DUP1 PUSH2 0x100 EXP DUP2 SLOAD DUP2 PUSH20 0xFFFFFFFFFFFFFFFFFFFFFFFFFFFFFFFFFFFFFFFF MUL NOT AND SWAP1 DUP4 PUSH20 0xFFFFFFFFFFFFFFFFFFFFFFFFFFFFFFFFFFFFFFFF AND MUL OR SWAP1 SSTORE POP PUSH2 0x75F DUP1 PUSH2 0x60 PUSH0 CODECOPY PUSH0 RETURN INVALID PUSH1 0x80 PUSH1 0x40 MSTORE CALLVALUE DUP1 ISZERO PUSH2 0xF JUMPI PUSH0 DUP1 REVERT JUMPDEST POP PUSH1 0x4 CALLDATASIZE LT PUSH2 0x60 JUMPI PUSH0 CALLDATALOAD PUSH1 0xE0 SHR DUP1 PUSH4 0xC55699C EQ PUSH2 0x64 JUMPI DUP1 PUSH4 0x3A9EBEFD EQ PUSH2 0x82 JUMPI DUP1 PUSH4 0x40CB3462 EQ PUSH2 0x9E JUMPI DUP1 PUSH4 0x8DA5CB5B EQ PUSH2 0xBA JUMPI DUP1 PUSH4 0xCF309012 EQ PUSH2 0xD8 JUMPI DUP1 PUSH4 0xD5ACE40D EQ PUSH2 0xF6 JUMPI JUMPDEST PUSH0 DUP1 REVERT JUMPDEST PUSH2 0x6C PUSH2 0x112 JUMP JUMPDEST PUSH1 0x40 MLOAD PUSH2 0x79 SWAP2 SWAP1 PUSH2 0x42F JUMP JUMPDEST PUSH1 0x40 MLOAD DUP1 SWAP2 SUB SWAP1 RETURN JUMPDEST PUSH2 0x9C PUSH1 0x4 DUP1 CALLDATASIZE SUB DUP2 ADD SWAP1 PUSH2 0x97 SWAP2 SWAP1 PUSH2 0x476 JUMP JUMPDEST PUSH2 0x118 JUMP JUMPDEST STOP JUMPDEST PUSH2 0xB8 PUSH1 0x4 DUP1 CALLDATASIZE SUB DUP2 ADD SWAP1 PUSH2 0xB3 SWAP2 SWAP1 PUSH2 0x4FB JUMP JUMPDEST PUSH2 0x1D4 JUMP JUMPDEST STOP JUMPDEST PUSH2 0xC2 PUSH2 0x2A3 JUMP JUMPDEST PUSH1 0x40 MLOAD PUSH2 0xCF SWAP2 SWAP1 PUSH2 0x535 JUMP JUMPDEST PUSH1 0x40 MLOAD DUP1 SWAP2 SUB SWAP1 RETURN JUMPDEST PUSH2 0xE0 PUSH2 0x2C6 JUMP JUMPDEST PUSH1 0x40 MLOAD PUSH2 0xED SWAP2 SWAP1 PUSH2 0x568 JUMP JUMPDEST PUSH1 0x40 MLOAD DUP1 SWAP2 SUB SWAP1 RETURN JUMPDEST PUSH2 0x110 PUSH1 0x4 DUP1 CALLDATASIZE SUB DUP2 ADD SWAP1 PUSH2 0x10B SWAP2 SWAP1 PUSH2 0x4FB JUMP JUMPDEST PUSH2 0x2D8 JUMP JUMPDEST STOP JUMPDEST PUSH1 0x1 SLOAD DUP2 JUMP JUMPDEST PUSH1 0x2 PUSH0 SWAP1 SLOAD SWAP1 PUSH2 0x100 EXP SWAP1 DIV PUSH1 0xFF AND ISZERO PUSH2 0x167 JUMPI PUSH1 0x40 MLOAD PUSH32 0x8C379A000000000000000000000000000000000000000000000000000000000 DUP2 MSTORE PUSH1 0x4 ADD PUSH2 0x15E SWAP1 PUSH2 0x5DB JUMP JUMPDEST PUSH1 0x40 MLOAD DUP1 SWAP2 SUB SWAP1 REVERT JUMPDEST PUSH1 0x1 PUSH1 0x2 PUSH0 PUSH2 0x100 EXP DUP2 SLOAD DUP2 PUSH1 0xFF MUL NOT AND SWAP1 DUP4 ISZERO ISZERO MUL OR SWAP1 SSTORE POP DUP1 PUSH1 0x1 PUSH0 DUP3 DUP3 SLOAD PUSH2 0x192 SWAP2 SWAP1 PUSH2 0x626 JUMP JUMPDEST SWAP3 POP POP DUP2 SWAP1 SSTORE POP PUSH1 0x1 DUP2 GT ISZERO PUSH2 0x1B8 JUMPI PUSH2 0x1B7 PUSH1 0x1 DUP3 PUSH2 0x1B2 SWAP2 SWAP1 PUSH2 0x626 JUMP JUMPDEST PUSH2 0x118 JUMP JUMPDEST JUMPDEST PUSH0 PUSH1 0x2 PUSH0 PUSH2 0x100 EXP DUP2 SLOAD DUP2 PUSH1 0xFF MUL NOT AND SWAP1 DUP4 ISZERO ISZERO MUL OR SWAP1 SSTORE POP POP JUMP JUMPDEST PUSH0 DUP1 SLOAD SWAP1 PUSH2 0x100 EXP SWAP1 DIV PUSH20 0xFFFFFFFFFFFFFFFFFFFFFFFFFFFFFFFFFFFFFFFF AND PUSH20 0xFFFFFFFFFFFFFFFFFFFFFFFFFFFFFFFFFFFFFFFF AND CALLER PUSH20 0xFFFFFFFFFFFFFFFFFFFFFFFFFFFFFFFFFFFFFFFF AND EQ PUSH2 0x261 JUMPI PUSH1 0x40 MLOAD PUSH32 0x8C379A000000000000000000000000000000000000000000000000000000000 DUP2 MSTORE PUSH1 0x4 ADD PUSH2 0x258 SWAP1 PUSH2 0x6A3 JUMP JUMPDEST PUSH1 0x40 MLOAD DUP1 SWAP2 SUB SWAP1 REVERT JUMPDEST DUP1 PUSH0 DUP1 PUSH2 0x100 EXP DUP2 SLOAD DUP2 PUSH20 0xFFFFFFFFFFFFFFFFFFFFFFFFFFFFFFFFFFFFFFFF MUL NOT AND SWAP1 DUP4 PUSH20 0xFFFFFFFFFFFFFFFFFFFFFFFFFFFFFFFFFFFFFFFF AND MUL OR SWAP1 SSTORE POP POP JUMP JUMPDEST PUSH0 DUP1 SLOAD SWAP1 PUSH2 0x100 EXP SWAP1 DIV PUSH20 0xFFFFFFFFFFFFFFFFFFFFFFFFFFFFFFFFFFFFFFFF AND DUP2 JUMP JUMPDEST PUSH1 0x2 PUSH0 SWAP1 SLOAD SWAP1 PUSH2 0x100 EXP SWAP1 DIV PUSH1 0xFF AND DUP2 JUMP JUMPDEST PUSH0 DUP1 SLOAD SWAP1 PUSH2 0x100 EXP SWAP1 DIV PUSH20 0xFFFFFFFFFFFFFFFFFFFFFFFFFFFFFFFFFFFFFFFF AND PUSH20 0xFFFFFFFFFFFFFFFFFFFFFFFFFFFFFFFFFFFFFFFF AND CALLER PUSH20 0xFFFFFFFFFFFFFFFFFFFFFFFFFFFFFFFFFFFFFFFF AND EQ PUSH2 0x365 JUMPI PUSH1 0x40 MLOAD PUSH32 0x8C379A000000000000000000000000000000000000000000000000000000000 DUP2 MSTORE PUSH1 0x4 ADD PUSH2 0x35C SWAP1 PUSH2 0x6A3 JUMP JUMPDEST PUSH1 0x40 MLOAD DUP1 SWAP2 SUB SWAP1 REVERT JUMPDEST DUP1 PUSH0 PUSH20 0xFFFFFFFFFFFFFFFFFFFFFFFFFFFFFFFFFFFFFFFF AND DUP2 PUSH20 0xFFFFFFFFFFFFFFFFFFFFFFFFFFFFFFFFFFFFFFFF AND SUB PUSH2 0x3D4 JUMPI PUSH1 0x40 MLOAD PUSH32 0x8C379A000000000000000000000000000000000000000000000000000000000 DUP2 MSTORE PUSH1 0x4 ADD PUSH2 0x3CB SWAP1 PUSH2 0x70B JUMP JUMPDEST PUSH1 0x40 MLOAD DUP1 SWAP2 SUB SWAP1 REVERT JUMPDEST DUP2 PUSH0 DUP1 PUSH2 0x100 EXP DUP2 SLOAD DUP2 PUSH20 0xFFFFFFFFFFFFFFFFFFFFFFFFFFFFFFFFFFFFFFFF MUL NOT AND SWAP1 DUP4 PUSH20 0xFFFFFFFFFFFFFFFFFFFFFFFFFFFFFFFFFFFFFFFF AND MUL OR SWAP1 SSTORE POP POP POP JUMP JUMPDEST PUSH0 DUP2 SWAP1 POP SWAP2 SWAP1 POP JUMP JUMPDEST PUSH2 0x429 DUP2 PUSH2 0x417 JUMP JUMPDEST DUP3 MSTORE POP POP JUMP JUMPDEST PUSH0 PUSH1 0x20 DUP3 ADD SWAP1 POP PUSH2 0x442 PUSH0 DUP4 ADD DUP5 PUSH2 0x420 JUMP JUMPDEST SWAP3 SWAP2 POP POP JUMP JUMPDEST PUSH0 DUP1 REVERT JUMPDEST PUSH2 0x455 DUP2 PUSH2 0x417 JUMP JUMPDEST DUP2 EQ PUSH2 0x45F JUMPI PUSH0 DUP1 REVERT JUMPDEST POP JUMP JUMPDEST PUSH0 DUP2 CALLDATALOAD SWAP1 POP PUSH2 0x470 DUP2 PUSH2 0x44C JUMP JUMPDEST SWAP3 SWAP2 POP POP JUMP JUMPDEST PUSH0 PUSH1 0x20 DUP3 DUP5 SUB SLT ISZERO PUSH2 0x48B JUMPI PUSH2 0x48A PUSH2 0x448 JUMP JUMPDEST JUMPDEST PUSH0 PUSH2 0x498 DUP5 DUP3 DUP6 ADD PUSH2 0x462 JUMP JUMPDEST SWAP2 POP POP SWAP3 SWAP2 POP POP JUMP JUMPDEST PUSH0 PUSH20 0xFFFFFFFFFFFFFFFFFFFFFFFFFFFFFFFFFFFFFFFF DUP3 AND SWAP1 POP SWAP2 SWAP1 POP JUMP JUMPDEST PUSH0 PUSH2 0x4CA DUP3 PUSH2 0x4A1 JUMP JUMPDEST SWAP1 POP SWAP2 SWAP1 POP JUMP JUMPDEST PUSH2 0x4DA DUP2 PUSH2 0x4C0 JUMP JUMPDEST DUP2 EQ PUSH2 0x4E4 JUMPI PUSH0 DUP1 REVERT JUMPDEST POP JUMP JUMPDEST PUSH0 DUP2 CALLDATALOAD SWAP1 POP PUSH2 0x4F5 DUP2 PUSH2 0x4D1 JUMP JUMPDEST SWAP3 SWAP2 POP POP JUMP JUMPDEST PUSH0 PUSH1 0x20 DUP3 DUP5 SUB SLT ISZERO PUSH2 0x510 JUMPI PUSH2 0x50F PUSH2 0x448 JUMP JUMPDEST JUMPDEST PUSH0 PUSH2 0x51D DUP5 DUP3 DUP6 ADD PUSH2 0x4E7 JUMP JUMPDEST SWAP2 POP POP SWAP3 SWAP2 POP POP JUMP JUMPDEST PUSH2 0x52F DUP2 PUSH2 0x4C0 JUMP JUMPDEST DUP3 MSTORE POP POP JUMP JUMPDEST PUSH0 PUSH1 0x20 DUP3 ADD SWAP1 POP PUSH2 0x548 PUSH0 DUP4 ADD DUP5 PUSH2 0x526 JUMP JUMPDEST SWAP3 SWAP2 POP POP JUMP JUMPDEST PUSH0 DUP2 ISZERO ISZERO SWAP1 POP SWAP2 SWAP1 POP JUMP JUMPDEST PUSH2 0x562 DUP2 PUSH2 0x54E JUMP JUMPDEST DUP3 MSTORE POP POP JUMP JUMPDEST PUSH0 PUSH1 0x20 DUP3 ADD SWAP1 POP PUSH2 0x57B PUSH0 DUP4 ADD DUP5 PUSH2 0x559 JUMP JUMPDEST SWAP3 SWAP2 POP POP JUMP JUMPDEST PUSH0 DUP3 DUP3 MSTORE PUSH1 0x20 DUP3 ADD SWAP1 POP SWAP3 SWAP2 POP POP JUMP JUMPDEST PUSH32 0x4E6F205265656E746572616E6379210000000000000000000000000000000000 PUSH0 DUP3 ADD MSTORE POP JUMP JUMPDEST PUSH0 PUSH2 0x5C5 PUSH1 0xF DUP4 PUSH2 0x581 JUMP JUMPDEST SWAP2 POP PUSH2 0x5D0 DUP3 PUSH2 0x591 JUMP JUMPDEST PUSH1 0x20 DUP3 ADD SWAP1 POP SWAP2 SWAP1 POP JUMP JUMPDEST PUSH0 PUSH1 0x20 DUP3 ADD SWAP1 POP DUP2 DUP2 SUB PUSH0 DUP4 ADD MSTORE PUSH2 0x5F2 DUP2 PUSH2 0x5B9 JUMP JUMPDEST SWAP1 POP SWAP2 SWAP1 POP JUMP JUMPDEST PUSH32 0x4E487B7100000000000000000000000000000000000000000000000000000000 PUSH0 MSTORE PUSH1 0x11 PUSH1 0x4 MSTORE PUSH1 0x24 PUSH0 REVERT JUMPDEST PUSH0 PUSH2 0x630 DUP3 PUSH2 0x417 JUMP JUMPDEST SWAP2 POP PUSH2 0x63B DUP4 PUSH2 0x417 JUMP JUMPDEST SWAP3 POP DUP3 DUP3 SUB SWAP1 POP DUP2 DUP2 GT ISZERO PUSH2 0x653 JUMPI PUSH2 0x652 PUSH2 0x5F9 JUMP JUMPDEST JUMPDEST SWAP3 SWAP2 POP POP JUMP JUMPDEST PUSH32 0x796F7520617265206E6F74206F776E65723B0000000000000000000000000000 PUSH0 DUP3 ADD MSTORE POP JUMP JUMPDEST PUSH0 PUSH2 0x68D PUSH1 0x12 DUP4 PUSH2 0x581 JUMP JUMPDEST SWAP2 POP PUSH2 0x698 DUP3 PUSH2 0x659 JUMP JUMPDEST PUSH1 0x20 DUP3 ADD SWAP1 POP SWAP2 SWAP1 POP JUMP JUMPDEST PUSH0 PUSH1 0x20 DUP3 ADD SWAP1 POP DUP2 DUP2 SUB PUSH0 DUP4 ADD MSTORE PUSH2 0x6BA DUP2 PUSH2 0x681 JUMP JUMPDEST SWAP1 POP SWAP2 SWAP1 POP JUMP JUMPDEST PUSH32 0x4E6F742076616C69642061646472657373210000000000000000000000000000 PUSH0 DUP3 ADD MSTORE POP JUMP JUMPDEST PUSH0 PUSH2 0x6F5 PUSH1 0x12 DUP4 PUSH2 0x581 JUMP JUMPDEST SWAP2 POP PUSH2 0x700 DUP3 PUSH2 0x6C1 JUMP JUMPDEST PUSH1 0x20 DUP3 ADD SWAP1 POP SWAP2 SWAP1 POP JUMP JUMPDEST PUSH0 PUSH1 0x20 DUP3 ADD SWAP1 POP DUP2 DUP2 SUB PUSH0 DUP4 ADD MSTORE PUSH2 0x722 DUP2 PUSH2 0x6E9 JUMP JUMPDEST SWAP1 POP SWAP2 SWAP1 POP JUMP INVALID LOG2 PUSH5 0x6970667358 0x22 SLT KECCAK256 STATICCALL 0xDF 0xAC PUSH12 0xBF447E4974892E95A147196A CREATE2 0xF7 0xE2 0xD7 0xFB PUSH0 0xE5 PUSH4 0x33AB9ACA 0xD3 PUSH32 0xAE9164736F6C634300081A003300000000000000000000000000000000000000 "
				},
				"gasEstimates": {
					"creation": {
						"codeDepositCost": "377400",
						"executionCost": "46780",
						"totalCost": "424180"
					},
					"external": {
						"decrement(uint256)": "infinite",
						"locked()": "2532",
						"modifyOwner(address)": "26903",
						"modifyOwnerVaildAddress(address)": "27008",
						"owner()": "2549",
						"x()": "2403"
					}
				},
				"methodIdentifiers": {
					"decrement(uint256)": "3a9ebefd",
					"locked()": "cf309012",
					"modifyOwner(address)": "40cb3462",
					"modifyOwnerVaildAddress(address)": "d5ace40d",
					"owner()": "8da5cb5b",
					"x()": "0c55699c"
				}
			},
			"storageLayout": {
				"storage": [
					{
						"astId": 3,
						"contract": "solidity_by_example/022FunctionModifier.sol:FunctionModifier",
						"label": "owner",
						"offset": 0,
						"slot": "0",
						"type": "t_address"
					},
					{
						"astId": 6,
						"contract": "solidity_by_example/022FunctionModifier.sol:FunctionModifier",
						"label": "x",
						"offset": 0,
						"slot": "1",
						"type": "t_uint256"
					},
					{
						"astId": 8,
						"contract": "solidity_by_example/022FunctionModifier.sol:FunctionModifier",
						"label": "locked",
						"offset": 0,
						"slot": "2",
						"type": "t_bool"
					}
				],
				"types": {
					"t_address": {
						"encoding": "inplace",
						"label": "address",
						"numberOfBytes": "20"
					},
					"t_bool": {
						"encoding": "inplace",
						"label": "bool",
						"numberOfBytes": "1"
					},
					"t_uint256": {
						"encoding": "inplace",
						"label": "uint256",
						"numberOfBytes": "32"
					}
				}
			},
			"userdoc": {
				"kind": "user",
				"methods": {},
				"version": 1
			}
		}
	}
}