{
	"solidity_by_example/017Stuct.sol": {
		"Todos": {
			"abi": [
				{
					"inputs": [
						{
							"internalType": "uint256",
							"name": "_index",
							"type": "uint256"
						}
					],
					"name": "get",
					"outputs": [
						{
							"internalType": "string",
							"name": "",
							"type": "string"
						},
						{
							"internalType": "uint256",
							"name": "",
							"type": "uint256"
						},
						{
							"internalType": "bool",
							"name": "",
							"type": "bool"
						}
					],
					"stateMutability": "view",
					"type": "function"
				},
				{
					"inputs": [
						{
							"internalType": "string",
							"name": "_name",
							"type": "string"
						},
						{
							"internalType": "uint256",
							"name": "_grade",
							"type": "uint256"
						},
						{
							"internalType": "bool",
							"name": "_isPass",
							"type": "bool"
						}
					],
					"name": "set",
					"outputs": [],
					"stateMutability": "nonpayable",
					"type": "function"
				},
				{
					"inputs": [
						{
							"internalType": "uint256",
							"name": "_index",
							"type": "uint256"
						},
						{
							"internalType": "string",
							"name": "_name",
							"type": "string"
						}
					],
					"name": "setName",
					"outputs": [],
					"stateMutability": "nonpayable",
					"type": "function"
				},
				{
					"inputs": [
						{
							"internalType": "uint256",
							"name": "",
							"type": "uint256"
						}
					],
					"name": "students",
					"outputs": [
						{
							"internalType": "string",
							"name": "name",
							"type": "string"
						},
						{
							"internalType": "uint256",
							"name": "grade",
							"type": "uint256"
						},
						{
							"internalType": "bool",
							"name": "isPass",
							"type": "bool"
						}
					],
					"stateMutability": "view",
					"type": "function"
				},
				{
					"inputs": [
						{
							"internalType": "uint256",
							"name": "",
							"type": "uint256"
						}
					],
					"name": "todos",
					"outputs": [
						{
							"internalType": "string",
							"name": "text",
							"type": "string"
						},
						{
							"internalType": "bool",
							"name": "completed",
							"type": "bool"
						}
					],
					"stateMutability": "view",
					"type": "function"
				}
			],
			"devdoc": {
				"kind": "dev",
				"methods": {},
				"version": 1
			},
			"evm": {
				"assembly": "    /* \"solidity_by_example/017Stuct.sol\":61:1307  contract  Todos {... */\n  mstore(0x40, 0x80)\n  callvalue\n  dup1\n  iszero\n  tag_1\n  jumpi\n  0x00\n  dup1\n  revert\ntag_1:\n  pop\n  dataSize(sub_0)\n  dup1\n  dataOffset(sub_0)\n  0x00\n  codecopy\n  0x00\n  return\nstop\n\nsub_0: assembly {\n        /* \"solidity_by_example/017Stuct.sol\":61:1307  contract  Todos {... */\n      mstore(0x40, 0x80)\n      callvalue\n      dup1\n      iszero\n      tag_1\n      jumpi\n      0x00\n      dup1\n      revert\n    tag_1:\n      pop\n      jumpi(tag_2, lt(calldatasize, 0x04))\n      shr(0xe0, calldataload(0x00))\n      dup1\n      0x06ead22e\n      eq\n      tag_3\n      jumpi\n      dup1\n      0x9507d39a\n      eq\n      tag_4\n      jumpi\n      dup1\n      0xa6551d4b\n      eq\n      tag_5\n      jumpi\n      dup1\n      0xbc8bc2b4\n      eq\n      tag_6\n      jumpi\n      dup1\n      0xfe55932a\n      eq\n      tag_7\n      jumpi\n    tag_2:\n      0x00\n      dup1\n      revert\n        /* \"solidity_by_example/017Stuct.sol\":346:371  Student[] public students */\n    tag_3:\n      tag_8\n      0x04\n      dup1\n      calldatasize\n      sub\n      dup2\n      add\n      swap1\n      tag_9\n      swap2\n      swap1\n      tag_10\n      jump\t// in\n    tag_9:\n      tag_11\n      jump\t// in\n    tag_8:\n      mload(0x40)\n      tag_12\n      swap4\n      swap3\n      swap2\n      swap1\n      tag_13\n      jump\t// in\n    tag_12:\n      mload(0x40)\n      dup1\n      swap2\n      sub\n      swap1\n      return\n        /* \"solidity_by_example/017Stuct.sol\":969:1137  function get(uint _index)public view  returns (string memory,uint, bool){... */\n    tag_4:\n      tag_14\n      0x04\n      dup1\n      calldatasize\n      sub\n      dup2\n      add\n      swap1\n      tag_15\n      swap2\n      swap1\n      tag_10\n      jump\t// in\n    tag_15:\n      tag_16\n      jump\t// in\n    tag_14:\n      mload(0x40)\n      tag_17\n      swap4\n      swap3\n      swap2\n      swap1\n      tag_13\n      jump\t// in\n    tag_17:\n      mload(0x40)\n      dup1\n      swap2\n      sub\n      swap1\n      return\n        /* \"solidity_by_example/017Stuct.sol\":380:857  function set(string calldata _name,uint _grade,bool _isPass) public{... */\n    tag_5:\n      tag_18\n      0x04\n      dup1\n      calldatasize\n      sub\n      dup2\n      add\n      swap1\n      tag_19\n      swap2\n      swap1\n      tag_20\n      jump\t// in\n    tag_19:\n      tag_21\n      jump\t// in\n    tag_18:\n      stop\n        /* \"solidity_by_example/017Stuct.sol\":160:179  Todo[] public todos */\n    tag_6:\n      tag_22\n      0x04\n      dup1\n      calldatasize\n      sub\n      dup2\n      add\n      swap1\n      tag_23\n      swap2\n      swap1\n      tag_10\n      jump\t// in\n    tag_23:\n      tag_24\n      jump\t// in\n    tag_22:\n      mload(0x40)\n      tag_25\n      swap3\n      swap2\n      swap1\n      tag_26\n      jump\t// in\n    tag_25:\n      mload(0x40)\n      dup1\n      swap2\n      sub\n      swap1\n      return\n        /* \"solidity_by_example/017Stuct.sol\":1145:1300  function setName(uint _index,string calldata _name)public{... */\n    tag_7:\n      tag_27\n      0x04\n      dup1\n      calldatasize\n      sub\n      dup2\n      add\n      swap1\n      tag_28\n      swap2\n      swap1\n      tag_29\n      jump\t// in\n    tag_28:\n      tag_30\n      jump\t// in\n    tag_27:\n      stop\n        /* \"solidity_by_example/017Stuct.sol\":346:371  Student[] public students */\n    tag_11:\n      0x01\n      dup2\n      dup2\n      sload\n      dup2\n      lt\n      tag_31\n      jumpi\n      0x00\n      dup1\n      revert\n    tag_31:\n      swap1\n      0x00\n      mstore\n      keccak256(0x00, 0x20)\n      swap1\n      0x03\n      mul\n      add\n      0x00\n      swap2\n      pop\n      swap1\n      pop\n      dup1\n      0x00\n      add\n      dup1\n      sload\n      tag_33\n      swap1\n      tag_34\n      jump\t// in\n    tag_33:\n      dup1\n      0x1f\n      add\n      0x20\n      dup1\n      swap2\n      div\n      mul\n      0x20\n      add\n      mload(0x40)\n      swap1\n      dup2\n      add\n      0x40\n      mstore\n      dup1\n      swap3\n      swap2\n      swap1\n      dup2\n      dup2\n      mstore\n      0x20\n      add\n      dup3\n      dup1\n      sload\n      tag_35\n      swap1\n      tag_34\n      jump\t// in\n    tag_35:\n      dup1\n      iszero\n      tag_36\n      jumpi\n      dup1\n      0x1f\n      lt\n      tag_37\n      jumpi\n      0x0100\n      dup1\n      dup4\n      sload\n      div\n      mul\n      dup4\n      mstore\n      swap2\n      0x20\n      add\n      swap2\n      jump(tag_36)\n    tag_37:\n      dup3\n      add\n      swap2\n      swap1\n      0x00\n      mstore\n      keccak256(0x00, 0x20)\n      swap1\n    tag_38:\n      dup2\n      sload\n      dup2\n      mstore\n      swap1\n      0x01\n      add\n      swap1\n      0x20\n      add\n      dup1\n      dup4\n      gt\n      tag_38\n      jumpi\n      dup3\n      swap1\n      sub\n      0x1f\n      and\n      dup3\n      add\n      swap2\n    tag_36:\n      pop\n      pop\n      pop\n      pop\n      pop\n      swap1\n      dup1\n      0x01\n      add\n      sload\n      swap1\n      dup1\n      0x02\n      add\n      0x00\n      swap1\n      sload\n      swap1\n      0x0100\n      exp\n      swap1\n      div\n      0xff\n      and\n      swap1\n      pop\n      dup4\n      jump\t// out\n        /* \"solidity_by_example/017Stuct.sol\":969:1137  function get(uint _index)public view  returns (string memory,uint, bool){... */\n    tag_16:\n        /* \"solidity_by_example/017Stuct.sol\":1016:1029  string memory */\n      0x60\n        /* \"solidity_by_example/017Stuct.sol\":1030:1034  uint */\n      0x00\n        /* \"solidity_by_example/017Stuct.sol\":1036:1040  bool */\n      dup1\n        /* \"solidity_by_example/017Stuct.sol\":1060:1068  students */\n      0x01\n        /* \"solidity_by_example/017Stuct.sol\":1069:1075  _index */\n      dup5\n        /* \"solidity_by_example/017Stuct.sol\":1060:1076  students[_index] */\n      dup2\n      sload\n      dup2\n      lt\n      tag_40\n      jumpi\n      tag_41\n      tag_42\n      jump\t// in\n    tag_41:\n    tag_40:\n      swap1\n      0x00\n      mstore\n      keccak256(0x00, 0x20)\n      swap1\n      0x03\n      mul\n      add\n        /* \"solidity_by_example/017Stuct.sol\":1060:1081  students[_index].name */\n      0x00\n      add\n        /* \"solidity_by_example/017Stuct.sol\":1082:1090  students */\n      0x01\n        /* \"solidity_by_example/017Stuct.sol\":1091:1097  _index */\n      dup6\n        /* \"solidity_by_example/017Stuct.sol\":1082:1098  students[_index] */\n      dup2\n      sload\n      dup2\n      lt\n      tag_44\n      jumpi\n      tag_45\n      tag_42\n      jump\t// in\n    tag_45:\n    tag_44:\n      swap1\n      0x00\n      mstore\n      keccak256(0x00, 0x20)\n      swap1\n      0x03\n      mul\n      add\n        /* \"solidity_by_example/017Stuct.sol\":1082:1104  students[_index].grade */\n      0x01\n      add\n      sload\n        /* \"solidity_by_example/017Stuct.sol\":1105:1113  students */\n      0x01\n        /* \"solidity_by_example/017Stuct.sol\":1114:1120  _index */\n      dup7\n        /* \"solidity_by_example/017Stuct.sol\":1105:1121  students[_index] */\n      dup2\n      sload\n      dup2\n      lt\n      tag_47\n      jumpi\n      tag_48\n      tag_42\n      jump\t// in\n    tag_48:\n    tag_47:\n      swap1\n      0x00\n      mstore\n      keccak256(0x00, 0x20)\n      swap1\n      0x03\n      mul\n      add\n        /* \"solidity_by_example/017Stuct.sol\":1105:1128  students[_index].isPass */\n      0x02\n      add\n      0x00\n      swap1\n      sload\n      swap1\n      0x0100\n      exp\n      swap1\n      div\n      0xff\n      and\n        /* \"solidity_by_example/017Stuct.sol\":1052:1129  return (students[_index].name,students[_index].grade,students[_index].isPass) */\n      dup3\n      dup1\n      sload\n      tag_50\n      swap1\n      tag_34\n      jump\t// in\n    tag_50:\n      dup1\n      0x1f\n      add\n      0x20\n      dup1\n      swap2\n      div\n      mul\n      0x20\n      add\n      mload(0x40)\n      swap1\n      dup2\n      add\n      0x40\n      mstore\n      dup1\n      swap3\n      swap2\n      swap1\n      dup2\n      dup2\n      mstore\n      0x20\n      add\n      dup3\n      dup1\n      sload\n      tag_51\n      swap1\n      tag_34\n      jump\t// in\n    tag_51:\n      dup1\n      iszero\n      tag_52\n      jumpi\n      dup1\n      0x1f\n      lt\n      tag_53\n      jumpi\n      0x0100\n      dup1\n      dup4\n      sload\n      div\n      mul\n      dup4\n      mstore\n      swap2\n      0x20\n      add\n      swap2\n      jump(tag_52)\n    tag_53:\n      dup3\n      add\n      swap2\n      swap1\n      0x00\n      mstore\n      keccak256(0x00, 0x20)\n      swap1\n    tag_54:\n      dup2\n      sload\n      dup2\n      mstore\n      swap1\n      0x01\n      add\n      swap1\n      0x20\n      add\n      dup1\n      dup4\n      gt\n      tag_54\n      jumpi\n      dup3\n      swap1\n      sub\n      0x1f\n      and\n      dup3\n      add\n      swap2\n    tag_52:\n      pop\n      pop\n      pop\n      pop\n      pop\n      swap3\n      pop\n      swap3\n      pop\n      swap3\n      pop\n      swap3\n      pop\n        /* \"solidity_by_example/017Stuct.sol\":969:1137  function get(uint _index)public view  returns (string memory,uint, bool){... */\n      swap2\n      swap4\n      swap1\n      swap3\n      pop\n      jump\t// out\n        /* \"solidity_by_example/017Stuct.sol\":380:857  function set(string calldata _name,uint _grade,bool _isPass) public{... */\n    tag_21:\n        /* \"solidity_by_example/017Stuct.sol\":495:503  students */\n      0x01\n        /* \"solidity_by_example/017Stuct.sol\":509:538  Student(_name,_grade,_isPass) */\n      mload(0x40)\n      dup1\n      0x60\n      add\n      0x40\n      mstore\n      dup1\n        /* \"solidity_by_example/017Stuct.sol\":517:522  _name */\n      dup7\n      dup7\n        /* \"solidity_by_example/017Stuct.sol\":509:538  Student(_name,_grade,_isPass) */\n      dup1\n      dup1\n      0x1f\n      add\n      0x20\n      dup1\n      swap2\n      div\n      mul\n      0x20\n      add\n      mload(0x40)\n      swap1\n      dup2\n      add\n      0x40\n      mstore\n      dup1\n      swap4\n      swap3\n      swap2\n      swap1\n      dup2\n      dup2\n      mstore\n      0x20\n      add\n      dup4\n      dup4\n      dup1\n      dup3\n      dup5\n      calldatacopy\n      0x00\n      dup2\n      dup5\n      add\n      mstore\n      not(0x1f)\n      0x1f\n      dup3\n      add\n      and\n      swap1\n      pop\n      dup1\n      dup4\n      add\n      swap3\n      pop\n      pop\n      pop\n      pop\n      pop\n      pop\n      pop\n      dup2\n      mstore\n      0x20\n      add\n        /* \"solidity_by_example/017Stuct.sol\":523:529  _grade */\n      dup5\n        /* \"solidity_by_example/017Stuct.sol\":509:538  Student(_name,_grade,_isPass) */\n      dup2\n      mstore\n      0x20\n      add\n        /* \"solidity_by_example/017Stuct.sol\":530:537  _isPass */\n      dup4\n        /* \"solidity_by_example/017Stuct.sol\":509:538  Student(_name,_grade,_isPass) */\n      iszero\n      iszero\n      dup2\n      mstore\n      pop\n        /* \"solidity_by_example/017Stuct.sol\":495:539  students.push(Student(_name,_grade,_isPass)) */\n      swap1\n      dup1\n      0x01\n      dup2\n      sload\n      add\n      dup1\n      dup3\n      sstore\n      dup1\n      swap2\n      pop\n      pop\n      0x01\n      swap1\n      sub\n      swap1\n      0x00\n      mstore\n      keccak256(0x00, 0x20)\n      swap1\n      0x03\n      mul\n      add\n      0x00\n      swap1\n      swap2\n      swap1\n      swap2\n      swap1\n      swap2\n      pop\n      0x00\n      dup3\n      add\n      mload\n      dup2\n      0x00\n      add\n      swap1\n      dup2\n      tag_57\n      swap2\n      swap1\n      tag_58\n      jump\t// in\n    tag_57:\n      pop\n      0x20\n      dup3\n      add\n      mload\n      dup2\n      0x01\n      add\n      sstore\n      0x40\n      dup3\n      add\n      mload\n      dup2\n      0x02\n      add\n      exp(0x0100, 0x00)\n      dup2\n      sload\n      dup2\n      0xff\n      mul\n      not\n      and\n      swap1\n      dup4\n      iszero\n      iszero\n      mul\n      or\n      swap1\n      sstore\n      pop\n      pop\n      pop\n        /* \"solidity_by_example/017Stuct.sol\":584:592  students */\n      0x01\n        /* \"solidity_by_example/017Stuct.sol\":598:647  Student({name:_name,grade:_grade,isPass:_isPass}) */\n      mload(0x40)\n      dup1\n      0x60\n      add\n      0x40\n      mstore\n      dup1\n        /* \"solidity_by_example/017Stuct.sol\":612:617  _name */\n      dup7\n      dup7\n        /* \"solidity_by_example/017Stuct.sol\":598:647  Student({name:_name,grade:_grade,isPass:_isPass}) */\n      dup1\n      dup1\n      0x1f\n      add\n      0x20\n      dup1\n      swap2\n      div\n      mul\n      0x20\n      add\n      mload(0x40)\n      swap1\n      dup2\n      add\n      0x40\n      mstore\n      dup1\n      swap4\n      swap3\n      swap2\n      swap1\n      dup2\n      dup2\n      mstore\n      0x20\n      add\n      dup4\n      dup4\n      dup1\n      dup3\n      dup5\n      calldatacopy\n      0x00\n      dup2\n      dup5\n      add\n      mstore\n      not(0x1f)\n      0x1f\n      dup3\n      add\n      and\n      swap1\n      pop\n      dup1\n      dup4\n      add\n      swap3\n      pop\n      pop\n      pop\n      pop\n      pop\n      pop\n      pop\n      dup2\n      mstore\n      0x20\n      add\n        /* \"solidity_by_example/017Stuct.sol\":624:630  _grade */\n      dup5\n        /* \"solidity_by_example/017Stuct.sol\":598:647  Student({name:_name,grade:_grade,isPass:_isPass}) */\n      dup2\n      mstore\n      0x20\n      add\n        /* \"solidity_by_example/017Stuct.sol\":638:645  _isPass */\n      dup4\n        /* \"solidity_by_example/017Stuct.sol\":598:647  Student({name:_name,grade:_grade,isPass:_isPass}) */\n      iszero\n      iszero\n      dup2\n      mstore\n      pop\n        /* \"solidity_by_example/017Stuct.sol\":584:648  students.push(Student({name:_name,grade:_grade,isPass:_isPass})) */\n      swap1\n      dup1\n      0x01\n      dup2\n      sload\n      add\n      dup1\n      dup3\n      sstore\n      dup1\n      swap2\n      pop\n      pop\n      0x01\n      swap1\n      sub\n      swap1\n      0x00\n      mstore\n      keccak256(0x00, 0x20)\n      swap1\n      0x03\n      mul\n      add\n      0x00\n      swap1\n      swap2\n      swap1\n      swap2\n      swap1\n      swap2\n      pop\n      0x00\n      dup3\n      add\n      mload\n      dup2\n      0x00\n      add\n      swap1\n      dup2\n      tag_60\n      swap2\n      swap1\n      tag_58\n      jump\t// in\n    tag_60:\n      pop\n      0x20\n      dup3\n      add\n      mload\n      dup2\n      0x01\n      add\n      sstore\n      0x40\n      dup3\n      add\n      mload\n      dup2\n      0x02\n      add\n      exp(0x0100, 0x00)\n      dup2\n      sload\n      dup2\n      0xff\n      mul\n      not\n      and\n      swap1\n      dup4\n      iszero\n      iszero\n      mul\n      or\n      swap1\n      sstore\n      pop\n      pop\n      pop\n        /* \"solidity_by_example/017Stuct.sol\":708:728  Student memory mystu */\n      tag_61\n      tag_62\n      jump\t// in\n    tag_61:\n        /* \"solidity_by_example/017Stuct.sol\":752:757  _name */\n      dup5\n      dup5\n        /* \"solidity_by_example/017Stuct.sol\":739:757  mystu.name = _name */\n      dup1\n      dup1\n      0x1f\n      add\n      0x20\n      dup1\n      swap2\n      div\n      mul\n      0x20\n      add\n      mload(0x40)\n      swap1\n      dup2\n      add\n      0x40\n      mstore\n      dup1\n      swap4\n      swap3\n      swap2\n      swap1\n      dup2\n      dup2\n      mstore\n      0x20\n      add\n      dup4\n      dup4\n      dup1\n      dup3\n      dup5\n      calldatacopy\n      0x00\n      dup2\n      dup5\n      add\n      mstore\n      not(0x1f)\n      0x1f\n      dup3\n      add\n      and\n      swap1\n      pop\n      dup1\n      dup4\n      add\n      swap3\n      pop\n      pop\n      pop\n      pop\n      pop\n      pop\n      pop\n        /* \"solidity_by_example/017Stuct.sol\":739:744  mystu */\n      dup2\n        /* \"solidity_by_example/017Stuct.sol\":739:749  mystu.name */\n      0x00\n      add\n        /* \"solidity_by_example/017Stuct.sol\":739:757  mystu.name = _name */\n      dup2\n      swap1\n      mstore\n      pop\n        /* \"solidity_by_example/017Stuct.sol\":780:786  _grade */\n      dup3\n        /* \"solidity_by_example/017Stuct.sol\":768:773  mystu */\n      dup2\n        /* \"solidity_by_example/017Stuct.sol\":768:779  mystu.grade */\n      0x20\n      add\n        /* \"solidity_by_example/017Stuct.sol\":768:786  mystu.grade=_grade */\n      dup2\n      dup2\n      mstore\n      pop\n      pop\n        /* \"solidity_by_example/017Stuct.sol\":811:818  _isPass */\n      dup2\n        /* \"solidity_by_example/017Stuct.sol\":797:802  mystu */\n      dup2\n        /* \"solidity_by_example/017Stuct.sol\":797:809  mystu.isPass */\n      0x40\n      add\n        /* \"solidity_by_example/017Stuct.sol\":797:818  mystu.isPass =_isPass */\n      swap1\n      iszero\n      iszero\n      swap1\n      dup2\n      iszero\n      iszero\n      dup2\n      mstore\n      pop\n      pop\n        /* \"solidity_by_example/017Stuct.sol\":829:837  students */\n      0x01\n        /* \"solidity_by_example/017Stuct.sol\":843:848  mystu */\n      dup2\n        /* \"solidity_by_example/017Stuct.sol\":829:849  students.push(mystu) */\n      swap1\n      dup1\n      0x01\n      dup2\n      sload\n      add\n      dup1\n      dup3\n      sstore\n      dup1\n      swap2\n      pop\n      pop\n      0x01\n      swap1\n      sub\n      swap1\n      0x00\n      mstore\n      keccak256(0x00, 0x20)\n      swap1\n      0x03\n      mul\n      add\n      0x00\n      swap1\n      swap2\n      swap1\n      swap2\n      swap1\n      swap2\n      pop\n      0x00\n      dup3\n      add\n      mload\n      dup2\n      0x00\n      add\n      swap1\n      dup2\n      tag_64\n      swap2\n      swap1\n      tag_58\n      jump\t// in\n    tag_64:\n      pop\n      0x20\n      dup3\n      add\n      mload\n      dup2\n      0x01\n      add\n      sstore\n      0x40\n      dup3\n      add\n      mload\n      dup2\n      0x02\n      add\n      exp(0x0100, 0x00)\n      dup2\n      sload\n      dup2\n      0xff\n      mul\n      not\n      and\n      swap1\n      dup4\n      iszero\n      iszero\n      mul\n      or\n      swap1\n      sstore\n      pop\n      pop\n      pop\n        /* \"solidity_by_example/017Stuct.sol\":447:857  {... */\n      pop\n        /* \"solidity_by_example/017Stuct.sol\":380:857  function set(string calldata _name,uint _grade,bool _isPass) public{... */\n      pop\n      pop\n      pop\n      pop\n      jump\t// out\n        /* \"solidity_by_example/017Stuct.sol\":160:179  Todo[] public todos */\n    tag_24:\n      0x00\n      dup2\n      dup2\n      sload\n      dup2\n      lt\n      tag_65\n      jumpi\n      0x00\n      dup1\n      revert\n    tag_65:\n      swap1\n      0x00\n      mstore\n      keccak256(0x00, 0x20)\n      swap1\n      0x02\n      mul\n      add\n      0x00\n      swap2\n      pop\n      swap1\n      pop\n      dup1\n      0x00\n      add\n      dup1\n      sload\n      tag_67\n      swap1\n      tag_34\n      jump\t// in\n    tag_67:\n      dup1\n      0x1f\n      add\n      0x20\n      dup1\n      swap2\n      div\n      mul\n      0x20\n      add\n      mload(0x40)\n      swap1\n      dup2\n      add\n      0x40\n      mstore\n      dup1\n      swap3\n      swap2\n      swap1\n      dup2\n      dup2\n      mstore\n      0x20\n      add\n      dup3\n      dup1\n      sload\n      tag_68\n      swap1\n      tag_34\n      jump\t// in\n    tag_68:\n      dup1\n      iszero\n      tag_69\n      jumpi\n      dup1\n      0x1f\n      lt\n      tag_70\n      jumpi\n      0x0100\n      dup1\n      dup4\n      sload\n      div\n      mul\n      dup4\n      mstore\n      swap2\n      0x20\n      add\n      swap2\n      jump(tag_69)\n    tag_70:\n      dup3\n      add\n      swap2\n      swap1\n      0x00\n      mstore\n      keccak256(0x00, 0x20)\n      swap1\n    tag_71:\n      dup2\n      sload\n      dup2\n      mstore\n      swap1\n      0x01\n      add\n      swap1\n      0x20\n      add\n      dup1\n      dup4\n      gt\n      tag_71\n      jumpi\n      dup3\n      swap1\n      sub\n      0x1f\n      and\n      dup3\n      add\n      swap2\n    tag_69:\n      pop\n      pop\n      pop\n      pop\n      pop\n      swap1\n      dup1\n      0x01\n      add\n      0x00\n      swap1\n      sload\n      swap1\n      0x0100\n      exp\n      swap1\n      div\n      0xff\n      and\n      swap1\n      pop\n      dup3\n      jump\t// out\n        /* \"solidity_by_example/017Stuct.sol\":1145:1300  function setName(uint _index,string calldata _name)public{... */\n    tag_30:\n        /* \"solidity_by_example/017Stuct.sol\":1213:1239  Student storage newStudent */\n      0x00\n        /* \"solidity_by_example/017Stuct.sol\":1242:1250  students */\n      0x01\n        /* \"solidity_by_example/017Stuct.sol\":1251:1257  _index */\n      dup5\n        /* \"solidity_by_example/017Stuct.sol\":1242:1258  students[_index] */\n      dup2\n      sload\n      dup2\n      lt\n      tag_73\n      jumpi\n      tag_74\n      tag_42\n      jump\t// in\n    tag_74:\n    tag_73:\n      swap1\n      0x00\n      mstore\n      keccak256(0x00, 0x20)\n      swap1\n      0x03\n      mul\n      add\n        /* \"solidity_by_example/017Stuct.sol\":1213:1258  Student storage newStudent = students[_index] */\n      swap1\n      pop\n        /* \"solidity_by_example/017Stuct.sol\":1287:1292  _name */\n      dup3\n      dup3\n        /* \"solidity_by_example/017Stuct.sol\":1269:1279  newStudent */\n      dup3\n        /* \"solidity_by_example/017Stuct.sol\":1269:1284  newStudent.name */\n      0x00\n      add\n        /* \"solidity_by_example/017Stuct.sol\":1269:1292  newStudent.name = _name */\n      swap2\n      dup3\n      tag_76\n      swap3\n      swap2\n      swap1\n      tag_77\n      jump\t// in\n    tag_76:\n      pop\n        /* \"solidity_by_example/017Stuct.sol\":1202:1300  {... */\n      pop\n        /* \"solidity_by_example/017Stuct.sol\":1145:1300  function setName(uint _index,string calldata _name)public{... */\n      pop\n      pop\n      pop\n      jump\t// out\n    tag_62:\n      mload(0x40)\n      dup1\n      0x60\n      add\n      0x40\n      mstore\n      dup1\n      0x60\n      dup2\n      mstore\n      0x20\n      add\n      0x00\n      dup2\n      mstore\n      0x20\n      add\n      iszero(iszero(0x00))\n      dup2\n      mstore\n      pop\n      swap1\n      jump\t// out\n        /* \"#utility.yul\":88:205   */\n    tag_79:\n        /* \"#utility.yul\":197:198   */\n      0x00\n        /* \"#utility.yul\":194:195   */\n      dup1\n        /* \"#utility.yul\":187:199   */\n      revert\n        /* \"#utility.yul\":211:328   */\n    tag_80:\n        /* \"#utility.yul\":320:321   */\n      0x00\n        /* \"#utility.yul\":317:318   */\n      dup1\n        /* \"#utility.yul\":310:322   */\n      revert\n        /* \"#utility.yul\":334:411   */\n    tag_81:\n        /* \"#utility.yul\":371:378   */\n      0x00\n        /* \"#utility.yul\":400:405   */\n      dup2\n        /* \"#utility.yul\":389:405   */\n      swap1\n      pop\n        /* \"#utility.yul\":334:411   */\n      swap2\n      swap1\n      pop\n      jump\t// out\n        /* \"#utility.yul\":417:539   */\n    tag_82:\n        /* \"#utility.yul\":490:514   */\n      tag_122\n        /* \"#utility.yul\":508:513   */\n      dup2\n        /* \"#utility.yul\":490:514   */\n      tag_81\n      jump\t// in\n    tag_122:\n        /* \"#utility.yul\":483:488   */\n      dup2\n        /* \"#utility.yul\":480:515   */\n      eq\n        /* \"#utility.yul\":470:533   */\n      tag_123\n      jumpi\n        /* \"#utility.yul\":529:530   */\n      0x00\n        /* \"#utility.yul\":526:527   */\n      dup1\n        /* \"#utility.yul\":519:531   */\n      revert\n        /* \"#utility.yul\":470:533   */\n    tag_123:\n        /* \"#utility.yul\":417:539   */\n      pop\n      jump\t// out\n        /* \"#utility.yul\":545:684   */\n    tag_83:\n        /* \"#utility.yul\":591:596   */\n      0x00\n        /* \"#utility.yul\":629:635   */\n      dup2\n        /* \"#utility.yul\":616:636   */\n      calldataload\n        /* \"#utility.yul\":607:636   */\n      swap1\n      pop\n        /* \"#utility.yul\":645:678   */\n      tag_125\n        /* \"#utility.yul\":672:677   */\n      dup2\n        /* \"#utility.yul\":645:678   */\n      tag_82\n      jump\t// in\n    tag_125:\n        /* \"#utility.yul\":545:684   */\n      swap3\n      swap2\n      pop\n      pop\n      jump\t// out\n        /* \"#utility.yul\":690:1019   */\n    tag_10:\n        /* \"#utility.yul\":749:755   */\n      0x00\n        /* \"#utility.yul\":798:800   */\n      0x20\n        /* \"#utility.yul\":786:795   */\n      dup3\n        /* \"#utility.yul\":777:784   */\n      dup5\n        /* \"#utility.yul\":773:796   */\n      sub\n        /* \"#utility.yul\":769:801   */\n      slt\n        /* \"#utility.yul\":766:885   */\n      iszero\n      tag_127\n      jumpi\n        /* \"#utility.yul\":804:883   */\n      tag_128\n      tag_79\n      jump\t// in\n    tag_128:\n        /* \"#utility.yul\":766:885   */\n    tag_127:\n        /* \"#utility.yul\":924:925   */\n      0x00\n        /* \"#utility.yul\":949:1002   */\n      tag_129\n        /* \"#utility.yul\":994:1001   */\n      dup5\n        /* \"#utility.yul\":985:991   */\n      dup3\n        /* \"#utility.yul\":974:983   */\n      dup6\n        /* \"#utility.yul\":970:992   */\n      add\n        /* \"#utility.yul\":949:1002   */\n      tag_83\n      jump\t// in\n    tag_129:\n        /* \"#utility.yul\":939:1002   */\n      swap2\n      pop\n        /* \"#utility.yul\":895:1012   */\n      pop\n        /* \"#utility.yul\":690:1019   */\n      swap3\n      swap2\n      pop\n      pop\n      jump\t// out\n        /* \"#utility.yul\":1025:1124   */\n    tag_84:\n        /* \"#utility.yul\":1077:1083   */\n      0x00\n        /* \"#utility.yul\":1111:1116   */\n      dup2\n        /* \"#utility.yul\":1105:1117   */\n      mload\n        /* \"#utility.yul\":1095:1117   */\n      swap1\n      pop\n        /* \"#utility.yul\":1025:1124   */\n      swap2\n      swap1\n      pop\n      jump\t// out\n        /* \"#utility.yul\":1130:1299   */\n    tag_85:\n        /* \"#utility.yul\":1214:1225   */\n      0x00\n        /* \"#utility.yul\":1248:1254   */\n      dup3\n        /* \"#utility.yul\":1243:1246   */\n      dup3\n        /* \"#utility.yul\":1236:1255   */\n      mstore\n        /* \"#utility.yul\":1288:1292   */\n      0x20\n        /* \"#utility.yul\":1283:1286   */\n      dup3\n        /* \"#utility.yul\":1279:1293   */\n      add\n        /* \"#utility.yul\":1264:1293   */\n      swap1\n      pop\n        /* \"#utility.yul\":1130:1299   */\n      swap3\n      swap2\n      pop\n      pop\n      jump\t// out\n        /* \"#utility.yul\":1305:1444   */\n    tag_86:\n        /* \"#utility.yul\":1394:1400   */\n      dup3\n        /* \"#utility.yul\":1389:1392   */\n      dup2\n        /* \"#utility.yul\":1384:1387   */\n      dup4\n        /* \"#utility.yul\":1378:1401   */\n      mcopy\n        /* \"#utility.yul\":1435:1436   */\n      0x00\n        /* \"#utility.yul\":1426:1432   */\n      dup4\n        /* \"#utility.yul\":1421:1424   */\n      dup4\n        /* \"#utility.yul\":1417:1433   */\n      add\n        /* \"#utility.yul\":1410:1437   */\n      mstore\n        /* \"#utility.yul\":1305:1444   */\n      pop\n      pop\n      pop\n      jump\t// out\n        /* \"#utility.yul\":1450:1552   */\n    tag_87:\n        /* \"#utility.yul\":1491:1497   */\n      0x00\n        /* \"#utility.yul\":1542:1544   */\n      0x1f\n        /* \"#utility.yul\":1538:1545   */\n      not\n        /* \"#utility.yul\":1533:1535   */\n      0x1f\n        /* \"#utility.yul\":1526:1531   */\n      dup4\n        /* \"#utility.yul\":1522:1536   */\n      add\n        /* \"#utility.yul\":1518:1546   */\n      and\n        /* \"#utility.yul\":1508:1546   */\n      swap1\n      pop\n        /* \"#utility.yul\":1450:1552   */\n      swap2\n      swap1\n      pop\n      jump\t// out\n        /* \"#utility.yul\":1558:1935   */\n    tag_88:\n        /* \"#utility.yul\":1646:1649   */\n      0x00\n        /* \"#utility.yul\":1674:1713   */\n      tag_135\n        /* \"#utility.yul\":1707:1712   */\n      dup3\n        /* \"#utility.yul\":1674:1713   */\n      tag_84\n      jump\t// in\n    tag_135:\n        /* \"#utility.yul\":1729:1800   */\n      tag_136\n        /* \"#utility.yul\":1793:1799   */\n      dup2\n        /* \"#utility.yul\":1788:1791   */\n      dup6\n        /* \"#utility.yul\":1729:1800   */\n      tag_85\n      jump\t// in\n    tag_136:\n        /* \"#utility.yul\":1722:1800   */\n      swap4\n      pop\n        /* \"#utility.yul\":1809:1874   */\n      tag_137\n        /* \"#utility.yul\":1867:1873   */\n      dup2\n        /* \"#utility.yul\":1862:1865   */\n      dup6\n        /* \"#utility.yul\":1855:1859   */\n      0x20\n        /* \"#utility.yul\":1848:1853   */\n      dup7\n        /* \"#utility.yul\":1844:1860   */\n      add\n        /* \"#utility.yul\":1809:1874   */\n      tag_86\n      jump\t// in\n    tag_137:\n        /* \"#utility.yul\":1899:1928   */\n      tag_138\n        /* \"#utility.yul\":1921:1927   */\n      dup2\n        /* \"#utility.yul\":1899:1928   */\n      tag_87\n      jump\t// in\n    tag_138:\n        /* \"#utility.yul\":1894:1897   */\n      dup5\n        /* \"#utility.yul\":1890:1929   */\n      add\n        /* \"#utility.yul\":1883:1929   */\n      swap2\n      pop\n        /* \"#utility.yul\":1650:1935   */\n      pop\n        /* \"#utility.yul\":1558:1935   */\n      swap3\n      swap2\n      pop\n      pop\n      jump\t// out\n        /* \"#utility.yul\":1941:2059   */\n    tag_89:\n        /* \"#utility.yul\":2028:2052   */\n      tag_140\n        /* \"#utility.yul\":2046:2051   */\n      dup2\n        /* \"#utility.yul\":2028:2052   */\n      tag_81\n      jump\t// in\n    tag_140:\n        /* \"#utility.yul\":2023:2026   */\n      dup3\n        /* \"#utility.yul\":2016:2053   */\n      mstore\n        /* \"#utility.yul\":1941:2059   */\n      pop\n      pop\n      jump\t// out\n        /* \"#utility.yul\":2065:2155   */\n    tag_90:\n        /* \"#utility.yul\":2099:2106   */\n      0x00\n        /* \"#utility.yul\":2142:2147   */\n      dup2\n        /* \"#utility.yul\":2135:2148   */\n      iszero\n        /* \"#utility.yul\":2128:2149   */\n      iszero\n        /* \"#utility.yul\":2117:2149   */\n      swap1\n      pop\n        /* \"#utility.yul\":2065:2155   */\n      swap2\n      swap1\n      pop\n      jump\t// out\n        /* \"#utility.yul\":2161:2270   */\n    tag_91:\n        /* \"#utility.yul\":2242:2263   */\n      tag_143\n        /* \"#utility.yul\":2257:2262   */\n      dup2\n        /* \"#utility.yul\":2242:2263   */\n      tag_90\n      jump\t// in\n    tag_143:\n        /* \"#utility.yul\":2237:2240   */\n      dup3\n        /* \"#utility.yul\":2230:2264   */\n      mstore\n        /* \"#utility.yul\":2161:2270   */\n      pop\n      pop\n      jump\t// out\n        /* \"#utility.yul\":2276:2797   */\n    tag_13:\n        /* \"#utility.yul\":2439:2443   */\n      0x00\n        /* \"#utility.yul\":2477:2479   */\n      0x60\n        /* \"#utility.yul\":2466:2475   */\n      dup3\n        /* \"#utility.yul\":2462:2480   */\n      add\n        /* \"#utility.yul\":2454:2480   */\n      swap1\n      pop\n        /* \"#utility.yul\":2526:2535   */\n      dup2\n        /* \"#utility.yul\":2520:2524   */\n      dup2\n        /* \"#utility.yul\":2516:2536   */\n      sub\n        /* \"#utility.yul\":2512:2513   */\n      0x00\n        /* \"#utility.yul\":2501:2510   */\n      dup4\n        /* \"#utility.yul\":2497:2514   */\n      add\n        /* \"#utility.yul\":2490:2537   */\n      mstore\n        /* \"#utility.yul\":2554:2632   */\n      tag_145\n        /* \"#utility.yul\":2627:2631   */\n      dup2\n        /* \"#utility.yul\":2618:2624   */\n      dup7\n        /* \"#utility.yul\":2554:2632   */\n      tag_88\n      jump\t// in\n    tag_145:\n        /* \"#utility.yul\":2546:2632   */\n      swap1\n      pop\n        /* \"#utility.yul\":2642:2714   */\n      tag_146\n        /* \"#utility.yul\":2710:2712   */\n      0x20\n        /* \"#utility.yul\":2699:2708   */\n      dup4\n        /* \"#utility.yul\":2695:2713   */\n      add\n        /* \"#utility.yul\":2686:2692   */\n      dup6\n        /* \"#utility.yul\":2642:2714   */\n      tag_89\n      jump\t// in\n    tag_146:\n        /* \"#utility.yul\":2724:2790   */\n      tag_147\n        /* \"#utility.yul\":2786:2788   */\n      0x40\n        /* \"#utility.yul\":2775:2784   */\n      dup4\n        /* \"#utility.yul\":2771:2789   */\n      add\n        /* \"#utility.yul\":2762:2768   */\n      dup5\n        /* \"#utility.yul\":2724:2790   */\n      tag_91\n      jump\t// in\n    tag_147:\n        /* \"#utility.yul\":2276:2797   */\n      swap5\n      swap4\n      pop\n      pop\n      pop\n      pop\n      jump\t// out\n        /* \"#utility.yul\":2803:2920   */\n    tag_92:\n        /* \"#utility.yul\":2912:2913   */\n      0x00\n        /* \"#utility.yul\":2909:2910   */\n      dup1\n        /* \"#utility.yul\":2902:2914   */\n      revert\n        /* \"#utility.yul\":2926:3043   */\n    tag_93:\n        /* \"#utility.yul\":3035:3036   */\n      0x00\n        /* \"#utility.yul\":3032:3033   */\n      dup1\n        /* \"#utility.yul\":3025:3037   */\n      revert\n        /* \"#utility.yul\":3049:3166   */\n    tag_94:\n        /* \"#utility.yul\":3158:3159   */\n      0x00\n        /* \"#utility.yul\":3155:3156   */\n      dup1\n        /* \"#utility.yul\":3148:3160   */\n      revert\n        /* \"#utility.yul\":3186:3739   */\n    tag_95:\n        /* \"#utility.yul\":3244:3252   */\n      0x00\n        /* \"#utility.yul\":3254:3260   */\n      dup1\n        /* \"#utility.yul\":3304:3307   */\n      dup4\n        /* \"#utility.yul\":3297:3301   */\n      0x1f\n        /* \"#utility.yul\":3289:3295   */\n      dup5\n        /* \"#utility.yul\":3285:3302   */\n      add\n        /* \"#utility.yul\":3281:3308   */\n      slt\n        /* \"#utility.yul\":3271:3393   */\n      tag_152\n      jumpi\n        /* \"#utility.yul\":3312:3391   */\n      tag_153\n      tag_92\n      jump\t// in\n    tag_153:\n        /* \"#utility.yul\":3271:3393   */\n    tag_152:\n        /* \"#utility.yul\":3425:3431   */\n      dup3\n        /* \"#utility.yul\":3412:3432   */\n      calldataload\n        /* \"#utility.yul\":3402:3432   */\n      swap1\n      pop\n        /* \"#utility.yul\":3455:3473   */\n      0xffffffffffffffff\n        /* \"#utility.yul\":3447:3453   */\n      dup2\n        /* \"#utility.yul\":3444:3474   */\n      gt\n        /* \"#utility.yul\":3441:3558   */\n      iszero\n      tag_154\n      jumpi\n        /* \"#utility.yul\":3477:3556   */\n      tag_155\n      tag_93\n      jump\t// in\n    tag_155:\n        /* \"#utility.yul\":3441:3558   */\n    tag_154:\n        /* \"#utility.yul\":3591:3595   */\n      0x20\n        /* \"#utility.yul\":3583:3589   */\n      dup4\n        /* \"#utility.yul\":3579:3596   */\n      add\n        /* \"#utility.yul\":3567:3596   */\n      swap2\n      pop\n        /* \"#utility.yul\":3645:3648   */\n      dup4\n        /* \"#utility.yul\":3637:3641   */\n      0x01\n        /* \"#utility.yul\":3629:3635   */\n      dup3\n        /* \"#utility.yul\":3625:3642   */\n      mul\n        /* \"#utility.yul\":3615:3623   */\n      dup4\n        /* \"#utility.yul\":3611:3643   */\n      add\n        /* \"#utility.yul\":3608:3649   */\n      gt\n        /* \"#utility.yul\":3605:3733   */\n      iszero\n      tag_156\n      jumpi\n        /* \"#utility.yul\":3652:3731   */\n      tag_157\n      tag_94\n      jump\t// in\n    tag_157:\n        /* \"#utility.yul\":3605:3733   */\n    tag_156:\n        /* \"#utility.yul\":3186:3739   */\n      swap3\n      pop\n      swap3\n      swap1\n      pop\n      jump\t// out\n        /* \"#utility.yul\":3745:3861   */\n    tag_96:\n        /* \"#utility.yul\":3815:3836   */\n      tag_159\n        /* \"#utility.yul\":3830:3835   */\n      dup2\n        /* \"#utility.yul\":3815:3836   */\n      tag_90\n      jump\t// in\n    tag_159:\n        /* \"#utility.yul\":3808:3813   */\n      dup2\n        /* \"#utility.yul\":3805:3837   */\n      eq\n        /* \"#utility.yul\":3795:3855   */\n      tag_160\n      jumpi\n        /* \"#utility.yul\":3851:3852   */\n      0x00\n        /* \"#utility.yul\":3848:3849   */\n      dup1\n        /* \"#utility.yul\":3841:3853   */\n      revert\n        /* \"#utility.yul\":3795:3855   */\n    tag_160:\n        /* \"#utility.yul\":3745:3861   */\n      pop\n      jump\t// out\n        /* \"#utility.yul\":3867:4000   */\n    tag_97:\n        /* \"#utility.yul\":3910:3915   */\n      0x00\n        /* \"#utility.yul\":3948:3954   */\n      dup2\n        /* \"#utility.yul\":3935:3955   */\n      calldataload\n        /* \"#utility.yul\":3926:3955   */\n      swap1\n      pop\n        /* \"#utility.yul\":3964:3994   */\n      tag_162\n        /* \"#utility.yul\":3988:3993   */\n      dup2\n        /* \"#utility.yul\":3964:3994   */\n      tag_96\n      jump\t// in\n    tag_162:\n        /* \"#utility.yul\":3867:4000   */\n      swap3\n      swap2\n      pop\n      pop\n      jump\t// out\n        /* \"#utility.yul\":4006:4819   */\n    tag_20:\n        /* \"#utility.yul\":4092:4098   */\n      0x00\n        /* \"#utility.yul\":4100:4106   */\n      dup1\n        /* \"#utility.yul\":4108:4114   */\n      0x00\n        /* \"#utility.yul\":4116:4122   */\n      dup1\n        /* \"#utility.yul\":4165:4167   */\n      0x60\n        /* \"#utility.yul\":4153:4162   */\n      dup6\n        /* \"#utility.yul\":4144:4151   */\n      dup8\n        /* \"#utility.yul\":4140:4163   */\n      sub\n        /* \"#utility.yul\":4136:4168   */\n      slt\n        /* \"#utility.yul\":4133:4252   */\n      iszero\n      tag_164\n      jumpi\n        /* \"#utility.yul\":4171:4250   */\n      tag_165\n      tag_79\n      jump\t// in\n    tag_165:\n        /* \"#utility.yul\":4133:4252   */\n    tag_164:\n        /* \"#utility.yul\":4319:4320   */\n      0x00\n        /* \"#utility.yul\":4308:4317   */\n      dup6\n        /* \"#utility.yul\":4304:4321   */\n      add\n        /* \"#utility.yul\":4291:4322   */\n      calldataload\n        /* \"#utility.yul\":4349:4367   */\n      0xffffffffffffffff\n        /* \"#utility.yul\":4341:4347   */\n      dup2\n        /* \"#utility.yul\":4338:4368   */\n      gt\n        /* \"#utility.yul\":4335:4452   */\n      iszero\n      tag_166\n      jumpi\n        /* \"#utility.yul\":4371:4450   */\n      tag_167\n      tag_80\n      jump\t// in\n    tag_167:\n        /* \"#utility.yul\":4335:4452   */\n    tag_166:\n        /* \"#utility.yul\":4484:4549   */\n      tag_168\n        /* \"#utility.yul\":4541:4548   */\n      dup8\n        /* \"#utility.yul\":4532:4538   */\n      dup3\n        /* \"#utility.yul\":4521:4530   */\n      dup9\n        /* \"#utility.yul\":4517:4539   */\n      add\n        /* \"#utility.yul\":4484:4549   */\n      tag_95\n      jump\t// in\n    tag_168:\n        /* \"#utility.yul\":4466:4549   */\n      swap5\n      pop\n      swap5\n      pop\n        /* \"#utility.yul\":4262:4559   */\n      pop\n        /* \"#utility.yul\":4598:4600   */\n      0x20\n        /* \"#utility.yul\":4624:4677   */\n      tag_169\n        /* \"#utility.yul\":4669:4676   */\n      dup8\n        /* \"#utility.yul\":4660:4666   */\n      dup3\n        /* \"#utility.yul\":4649:4658   */\n      dup9\n        /* \"#utility.yul\":4645:4667   */\n      add\n        /* \"#utility.yul\":4624:4677   */\n      tag_83\n      jump\t// in\n    tag_169:\n        /* \"#utility.yul\":4614:4677   */\n      swap3\n      pop\n        /* \"#utility.yul\":4569:4687   */\n      pop\n        /* \"#utility.yul\":4726:4728   */\n      0x40\n        /* \"#utility.yul\":4752:4802   */\n      tag_170\n        /* \"#utility.yul\":4794:4801   */\n      dup8\n        /* \"#utility.yul\":4785:4791   */\n      dup3\n        /* \"#utility.yul\":4774:4783   */\n      dup9\n        /* \"#utility.yul\":4770:4792   */\n      add\n        /* \"#utility.yul\":4752:4802   */\n      tag_97\n      jump\t// in\n    tag_170:\n        /* \"#utility.yul\":4742:4802   */\n      swap2\n      pop\n        /* \"#utility.yul\":4697:4812   */\n      pop\n        /* \"#utility.yul\":4006:4819   */\n      swap3\n      swap6\n      swap2\n      swap5\n      pop\n      swap3\n      pop\n      jump\t// out\n        /* \"#utility.yul\":4825:5236   */\n    tag_26:\n        /* \"#utility.yul\":4960:4964   */\n      0x00\n        /* \"#utility.yul\":4998:5000   */\n      0x40\n        /* \"#utility.yul\":4987:4996   */\n      dup3\n        /* \"#utility.yul\":4983:5001   */\n      add\n        /* \"#utility.yul\":4975:5001   */\n      swap1\n      pop\n        /* \"#utility.yul\":5047:5056   */\n      dup2\n        /* \"#utility.yul\":5041:5045   */\n      dup2\n        /* \"#utility.yul\":5037:5057   */\n      sub\n        /* \"#utility.yul\":5033:5034   */\n      0x00\n        /* \"#utility.yul\":5022:5031   */\n      dup4\n        /* \"#utility.yul\":5018:5035   */\n      add\n        /* \"#utility.yul\":5011:5058   */\n      mstore\n        /* \"#utility.yul\":5075:5153   */\n      tag_172\n        /* \"#utility.yul\":5148:5152   */\n      dup2\n        /* \"#utility.yul\":5139:5145   */\n      dup6\n        /* \"#utility.yul\":5075:5153   */\n      tag_88\n      jump\t// in\n    tag_172:\n        /* \"#utility.yul\":5067:5153   */\n      swap1\n      pop\n        /* \"#utility.yul\":5163:5229   */\n      tag_173\n        /* \"#utility.yul\":5225:5227   */\n      0x20\n        /* \"#utility.yul\":5214:5223   */\n      dup4\n        /* \"#utility.yul\":5210:5228   */\n      add\n        /* \"#utility.yul\":5201:5207   */\n      dup5\n        /* \"#utility.yul\":5163:5229   */\n      tag_91\n      jump\t// in\n    tag_173:\n        /* \"#utility.yul\":4825:5236   */\n      swap4\n      swap3\n      pop\n      pop\n      pop\n      jump\t// out\n        /* \"#utility.yul\":5242:5916   */\n    tag_29:\n        /* \"#utility.yul\":5322:5328   */\n      0x00\n        /* \"#utility.yul\":5330:5336   */\n      dup1\n        /* \"#utility.yul\":5338:5344   */\n      0x00\n        /* \"#utility.yul\":5387:5389   */\n      0x40\n        /* \"#utility.yul\":5375:5384   */\n      dup5\n        /* \"#utility.yul\":5366:5373   */\n      dup7\n        /* \"#utility.yul\":5362:5385   */\n      sub\n        /* \"#utility.yul\":5358:5390   */\n      slt\n        /* \"#utility.yul\":5355:5474   */\n      iszero\n      tag_175\n      jumpi\n        /* \"#utility.yul\":5393:5472   */\n      tag_176\n      tag_79\n      jump\t// in\n    tag_176:\n        /* \"#utility.yul\":5355:5474   */\n    tag_175:\n        /* \"#utility.yul\":5513:5514   */\n      0x00\n        /* \"#utility.yul\":5538:5591   */\n      tag_177\n        /* \"#utility.yul\":5583:5590   */\n      dup7\n        /* \"#utility.yul\":5574:5580   */\n      dup3\n        /* \"#utility.yul\":5563:5572   */\n      dup8\n        /* \"#utility.yul\":5559:5581   */\n      add\n        /* \"#utility.yul\":5538:5591   */\n      tag_83\n      jump\t// in\n    tag_177:\n        /* \"#utility.yul\":5528:5591   */\n      swap4\n      pop\n        /* \"#utility.yul\":5484:5601   */\n      pop\n        /* \"#utility.yul\":5668:5670   */\n      0x20\n        /* \"#utility.yul\":5657:5666   */\n      dup5\n        /* \"#utility.yul\":5653:5671   */\n      add\n        /* \"#utility.yul\":5640:5672   */\n      calldataload\n        /* \"#utility.yul\":5699:5717   */\n      0xffffffffffffffff\n        /* \"#utility.yul\":5691:5697   */\n      dup2\n        /* \"#utility.yul\":5688:5718   */\n      gt\n        /* \"#utility.yul\":5685:5802   */\n      iszero\n      tag_178\n      jumpi\n        /* \"#utility.yul\":5721:5800   */\n      tag_179\n      tag_80\n      jump\t// in\n    tag_179:\n        /* \"#utility.yul\":5685:5802   */\n    tag_178:\n        /* \"#utility.yul\":5834:5899   */\n      tag_180\n        /* \"#utility.yul\":5891:5898   */\n      dup7\n        /* \"#utility.yul\":5882:5888   */\n      dup3\n        /* \"#utility.yul\":5871:5880   */\n      dup8\n        /* \"#utility.yul\":5867:5889   */\n      add\n        /* \"#utility.yul\":5834:5899   */\n      tag_95\n      jump\t// in\n    tag_180:\n        /* \"#utility.yul\":5816:5899   */\n      swap3\n      pop\n      swap3\n      pop\n        /* \"#utility.yul\":5611:5909   */\n      pop\n        /* \"#utility.yul\":5242:5916   */\n      swap3\n      pop\n      swap3\n      pop\n      swap3\n      jump\t// out\n        /* \"#utility.yul\":5922:6102   */\n    tag_98:\n        /* \"#utility.yul\":5970:6047   */\n      0x4e487b7100000000000000000000000000000000000000000000000000000000\n        /* \"#utility.yul\":5967:5968   */\n      0x00\n        /* \"#utility.yul\":5960:6048   */\n      mstore\n        /* \"#utility.yul\":6067:6071   */\n      0x22\n        /* \"#utility.yul\":6064:6065   */\n      0x04\n        /* \"#utility.yul\":6057:6072   */\n      mstore\n        /* \"#utility.yul\":6091:6095   */\n      0x24\n        /* \"#utility.yul\":6088:6089   */\n      0x00\n        /* \"#utility.yul\":6081:6096   */\n      revert\n        /* \"#utility.yul\":6108:6428   */\n    tag_34:\n        /* \"#utility.yul\":6152:6158   */\n      0x00\n        /* \"#utility.yul\":6189:6190   */\n      0x02\n        /* \"#utility.yul\":6183:6187   */\n      dup3\n        /* \"#utility.yul\":6179:6191   */\n      div\n        /* \"#utility.yul\":6169:6191   */\n      swap1\n      pop\n        /* \"#utility.yul\":6236:6237   */\n      0x01\n        /* \"#utility.yul\":6230:6234   */\n      dup3\n        /* \"#utility.yul\":6226:6238   */\n      and\n        /* \"#utility.yul\":6257:6275   */\n      dup1\n        /* \"#utility.yul\":6247:6328   */\n      tag_183\n      jumpi\n        /* \"#utility.yul\":6313:6317   */\n      0x7f\n        /* \"#utility.yul\":6305:6311   */\n      dup3\n        /* \"#utility.yul\":6301:6318   */\n      and\n        /* \"#utility.yul\":6291:6318   */\n      swap2\n      pop\n        /* \"#utility.yul\":6247:6328   */\n    tag_183:\n        /* \"#utility.yul\":6375:6377   */\n      0x20\n        /* \"#utility.yul\":6367:6373   */\n      dup3\n        /* \"#utility.yul\":6364:6378   */\n      lt\n        /* \"#utility.yul\":6344:6362   */\n      dup2\n        /* \"#utility.yul\":6341:6379   */\n      sub\n        /* \"#utility.yul\":6338:6422   */\n      tag_184\n      jumpi\n        /* \"#utility.yul\":6394:6412   */\n      tag_185\n      tag_98\n      jump\t// in\n    tag_185:\n        /* \"#utility.yul\":6338:6422   */\n    tag_184:\n        /* \"#utility.yul\":6159:6428   */\n      pop\n        /* \"#utility.yul\":6108:6428   */\n      swap2\n      swap1\n      pop\n      jump\t// out\n        /* \"#utility.yul\":6434:6614   */\n    tag_42:\n        /* \"#utility.yul\":6482:6559   */\n      0x4e487b7100000000000000000000000000000000000000000000000000000000\n        /* \"#utility.yul\":6479:6480   */\n      0x00\n        /* \"#utility.yul\":6472:6560   */\n      mstore\n        /* \"#utility.yul\":6579:6583   */\n      0x32\n        /* \"#utility.yul\":6576:6577   */\n      0x04\n        /* \"#utility.yul\":6569:6584   */\n      mstore\n        /* \"#utility.yul\":6603:6607   */\n      0x24\n        /* \"#utility.yul\":6600:6601   */\n      0x00\n        /* \"#utility.yul\":6593:6608   */\n      revert\n        /* \"#utility.yul\":6620:6800   */\n    tag_99:\n        /* \"#utility.yul\":6668:6745   */\n      0x4e487b7100000000000000000000000000000000000000000000000000000000\n        /* \"#utility.yul\":6665:6666   */\n      0x00\n        /* \"#utility.yul\":6658:6746   */\n      mstore\n        /* \"#utility.yul\":6765:6769   */\n      0x41\n        /* \"#utility.yul\":6762:6763   */\n      0x04\n        /* \"#utility.yul\":6755:6770   */\n      mstore\n        /* \"#utility.yul\":6789:6793   */\n      0x24\n        /* \"#utility.yul\":6786:6787   */\n      0x00\n        /* \"#utility.yul\":6779:6794   */\n      revert\n        /* \"#utility.yul\":6806:6947   */\n    tag_100:\n        /* \"#utility.yul\":6855:6859   */\n      0x00\n        /* \"#utility.yul\":6878:6881   */\n      dup2\n        /* \"#utility.yul\":6870:6881   */\n      swap1\n      pop\n        /* \"#utility.yul\":6901:6904   */\n      dup2\n        /* \"#utility.yul\":6898:6899   */\n      0x00\n        /* \"#utility.yul\":6891:6905   */\n      mstore\n        /* \"#utility.yul\":6935:6939   */\n      0x20\n        /* \"#utility.yul\":6932:6933   */\n      0x00\n        /* \"#utility.yul\":6922:6940   */\n      keccak256\n        /* \"#utility.yul\":6914:6940   */\n      swap1\n      pop\n        /* \"#utility.yul\":6806:6947   */\n      swap2\n      swap1\n      pop\n      jump\t// out\n        /* \"#utility.yul\":6953:7046   */\n    tag_101:\n        /* \"#utility.yul\":6990:6996   */\n      0x00\n        /* \"#utility.yul\":7037:7039   */\n      0x20\n        /* \"#utility.yul\":7032:7034   */\n      0x1f\n        /* \"#utility.yul\":7025:7030   */\n      dup4\n        /* \"#utility.yul\":7021:7035   */\n      add\n        /* \"#utility.yul\":7017:7040   */\n      div\n        /* \"#utility.yul\":7007:7040   */\n      swap1\n      pop\n        /* \"#utility.yul\":6953:7046   */\n      swap2\n      swap1\n      pop\n      jump\t// out\n        /* \"#utility.yul\":7052:7159   */\n    tag_102:\n        /* \"#utility.yul\":7096:7104   */\n      0x00\n        /* \"#utility.yul\":7146:7151   */\n      dup3\n        /* \"#utility.yul\":7140:7144   */\n      dup3\n        /* \"#utility.yul\":7136:7152   */\n      shl\n        /* \"#utility.yul\":7115:7152   */\n      swap1\n      pop\n        /* \"#utility.yul\":7052:7159   */\n      swap3\n      swap2\n      pop\n      pop\n      jump\t// out\n        /* \"#utility.yul\":7165:7558   */\n    tag_103:\n        /* \"#utility.yul\":7234:7240   */\n      0x00\n        /* \"#utility.yul\":7284:7285   */\n      0x08\n        /* \"#utility.yul\":7272:7282   */\n      dup4\n        /* \"#utility.yul\":7268:7286   */\n      mul\n        /* \"#utility.yul\":7307:7404   */\n      tag_192\n        /* \"#utility.yul\":7337:7403   */\n      0xffffffffffffffffffffffffffffffffffffffffffffffffffffffffffffffff\n        /* \"#utility.yul\":7326:7335   */\n      dup3\n        /* \"#utility.yul\":7307:7404   */\n      tag_102\n      jump\t// in\n    tag_192:\n        /* \"#utility.yul\":7425:7464   */\n      tag_193\n        /* \"#utility.yul\":7455:7463   */\n      dup7\n        /* \"#utility.yul\":7444:7453   */\n      dup4\n        /* \"#utility.yul\":7425:7464   */\n      tag_102\n      jump\t// in\n    tag_193:\n        /* \"#utility.yul\":7413:7464   */\n      swap6\n      pop\n        /* \"#utility.yul\":7497:7501   */\n      dup1\n        /* \"#utility.yul\":7493:7502   */\n      not\n        /* \"#utility.yul\":7486:7491   */\n      dup5\n        /* \"#utility.yul\":7482:7503   */\n      and\n        /* \"#utility.yul\":7473:7503   */\n      swap4\n      pop\n        /* \"#utility.yul\":7546:7550   */\n      dup1\n        /* \"#utility.yul\":7536:7544   */\n      dup7\n        /* \"#utility.yul\":7532:7551   */\n      and\n        /* \"#utility.yul\":7525:7530   */\n      dup5\n        /* \"#utility.yul\":7522:7552   */\n      or\n        /* \"#utility.yul\":7512:7552   */\n      swap3\n      pop\n        /* \"#utility.yul\":7241:7558   */\n      pop\n      pop\n        /* \"#utility.yul\":7165:7558   */\n      swap4\n      swap3\n      pop\n      pop\n      pop\n      jump\t// out\n        /* \"#utility.yul\":7564:7624   */\n    tag_104:\n        /* \"#utility.yul\":7592:7595   */\n      0x00\n        /* \"#utility.yul\":7613:7618   */\n      dup2\n        /* \"#utility.yul\":7606:7618   */\n      swap1\n      pop\n        /* \"#utility.yul\":7564:7624   */\n      swap2\n      swap1\n      pop\n      jump\t// out\n        /* \"#utility.yul\":7630:7772   */\n    tag_105:\n        /* \"#utility.yul\":7680:7689   */\n      0x00\n        /* \"#utility.yul\":7713:7766   */\n      tag_196\n        /* \"#utility.yul\":7731:7765   */\n      tag_197\n        /* \"#utility.yul\":7740:7764   */\n      tag_198\n        /* \"#utility.yul\":7758:7763   */\n      dup5\n        /* \"#utility.yul\":7740:7764   */\n      tag_81\n      jump\t// in\n    tag_198:\n        /* \"#utility.yul\":7731:7765   */\n      tag_104\n      jump\t// in\n    tag_197:\n        /* \"#utility.yul\":7713:7766   */\n      tag_81\n      jump\t// in\n    tag_196:\n        /* \"#utility.yul\":7700:7766   */\n      swap1\n      pop\n        /* \"#utility.yul\":7630:7772   */\n      swap2\n      swap1\n      pop\n      jump\t// out\n        /* \"#utility.yul\":7778:7853   */\n    tag_106:\n        /* \"#utility.yul\":7821:7824   */\n      0x00\n        /* \"#utility.yul\":7842:7847   */\n      dup2\n        /* \"#utility.yul\":7835:7847   */\n      swap1\n      pop\n        /* \"#utility.yul\":7778:7853   */\n      swap2\n      swap1\n      pop\n      jump\t// out\n        /* \"#utility.yul\":7859:8128   */\n    tag_107:\n        /* \"#utility.yul\":7969:8008   */\n      tag_201\n        /* \"#utility.yul\":8000:8007   */\n      dup4\n        /* \"#utility.yul\":7969:8008   */\n      tag_105\n      jump\t// in\n    tag_201:\n        /* \"#utility.yul\":8030:8121   */\n      tag_202\n        /* \"#utility.yul\":8079:8120   */\n      tag_203\n        /* \"#utility.yul\":8103:8119   */\n      dup3\n        /* \"#utility.yul\":8079:8120   */\n      tag_106\n      jump\t// in\n    tag_203:\n        /* \"#utility.yul\":8071:8077   */\n      dup5\n        /* \"#utility.yul\":8064:8068   */\n      dup5\n        /* \"#utility.yul\":8058:8069   */\n      sload\n        /* \"#utility.yul\":8030:8121   */\n      tag_103\n      jump\t// in\n    tag_202:\n        /* \"#utility.yul\":8024:8028   */\n      dup3\n        /* \"#utility.yul\":8017:8122   */\n      sstore\n        /* \"#utility.yul\":7935:8128   */\n      pop\n        /* \"#utility.yul\":7859:8128   */\n      pop\n      pop\n      pop\n      jump\t// out\n        /* \"#utility.yul\":8134:8207   */\n    tag_108:\n        /* \"#utility.yul\":8179:8182   */\n      0x00\n        /* \"#utility.yul\":8134:8207   */\n      swap1\n      jump\t// out\n        /* \"#utility.yul\":8213:8402   */\n    tag_109:\n        /* \"#utility.yul\":8290:8322   */\n      tag_206\n      tag_108\n      jump\t// in\n    tag_206:\n        /* \"#utility.yul\":8331:8396   */\n      tag_207\n        /* \"#utility.yul\":8389:8395   */\n      dup2\n        /* \"#utility.yul\":8381:8387   */\n      dup5\n        /* \"#utility.yul\":8375:8379   */\n      dup5\n        /* \"#utility.yul\":8331:8396   */\n      tag_107\n      jump\t// in\n    tag_207:\n        /* \"#utility.yul\":8266:8402   */\n      pop\n        /* \"#utility.yul\":8213:8402   */\n      pop\n      pop\n      jump\t// out\n        /* \"#utility.yul\":8408:8594   */\n    tag_110:\n        /* \"#utility.yul\":8468:8588   */\n    tag_209:\n        /* \"#utility.yul\":8485:8488   */\n      dup2\n        /* \"#utility.yul\":8478:8483   */\n      dup2\n        /* \"#utility.yul\":8475:8489   */\n      lt\n        /* \"#utility.yul\":8468:8588   */\n      iszero\n      tag_211\n      jumpi\n        /* \"#utility.yul\":8539:8578   */\n      tag_212\n        /* \"#utility.yul\":8576:8577   */\n      0x00\n        /* \"#utility.yul\":8569:8574   */\n      dup3\n        /* \"#utility.yul\":8539:8578   */\n      tag_109\n      jump\t// in\n    tag_212:\n        /* \"#utility.yul\":8512:8513   */\n      0x01\n        /* \"#utility.yul\":8505:8510   */\n      dup2\n        /* \"#utility.yul\":8501:8514   */\n      add\n        /* \"#utility.yul\":8492:8514   */\n      swap1\n      pop\n        /* \"#utility.yul\":8468:8588   */\n      jump(tag_209)\n    tag_211:\n        /* \"#utility.yul\":8408:8594   */\n      pop\n      pop\n      jump\t// out\n        /* \"#utility.yul\":8600:9143   */\n    tag_111:\n        /* \"#utility.yul\":8701:8703   */\n      0x1f\n        /* \"#utility.yul\":8696:8699   */\n      dup3\n        /* \"#utility.yul\":8693:8704   */\n      gt\n        /* \"#utility.yul\":8690:9136   */\n      iszero\n      tag_214\n      jumpi\n        /* \"#utility.yul\":8735:8773   */\n      tag_215\n        /* \"#utility.yul\":8767:8772   */\n      dup2\n        /* \"#utility.yul\":8735:8773   */\n      tag_100\n      jump\t// in\n    tag_215:\n        /* \"#utility.yul\":8819:8848   */\n      tag_216\n        /* \"#utility.yul\":8837:8847   */\n      dup5\n        /* \"#utility.yul\":8819:8848   */\n      tag_101\n      jump\t// in\n    tag_216:\n        /* \"#utility.yul\":8809:8817   */\n      dup2\n        /* \"#utility.yul\":8805:8849   */\n      add\n        /* \"#utility.yul\":9002:9004   */\n      0x20\n        /* \"#utility.yul\":8990:9000   */\n      dup6\n        /* \"#utility.yul\":8987:9005   */\n      lt\n        /* \"#utility.yul\":8984:9033   */\n      iszero\n      tag_217\n      jumpi\n        /* \"#utility.yul\":9023:9031   */\n      dup2\n        /* \"#utility.yul\":9008:9031   */\n      swap1\n      pop\n        /* \"#utility.yul\":8984:9033   */\n    tag_217:\n        /* \"#utility.yul\":9046:9126   */\n      tag_218\n        /* \"#utility.yul\":9102:9124   */\n      tag_219\n        /* \"#utility.yul\":9120:9123   */\n      dup6\n        /* \"#utility.yul\":9102:9124   */\n      tag_101\n      jump\t// in\n    tag_219:\n        /* \"#utility.yul\":9092:9100   */\n      dup4\n        /* \"#utility.yul\":9088:9125   */\n      add\n        /* \"#utility.yul\":9075:9086   */\n      dup3\n        /* \"#utility.yul\":9046:9126   */\n      tag_110\n      jump\t// in\n    tag_218:\n        /* \"#utility.yul\":8705:9136   */\n      pop\n      pop\n        /* \"#utility.yul\":8690:9136   */\n    tag_214:\n        /* \"#utility.yul\":8600:9143   */\n      pop\n      pop\n      pop\n      jump\t// out\n        /* \"#utility.yul\":9149:9266   */\n    tag_112:\n        /* \"#utility.yul\":9203:9211   */\n      0x00\n        /* \"#utility.yul\":9253:9258   */\n      dup3\n        /* \"#utility.yul\":9247:9251   */\n      dup3\n        /* \"#utility.yul\":9243:9259   */\n      shr\n        /* \"#utility.yul\":9222:9259   */\n      swap1\n      pop\n        /* \"#utility.yul\":9149:9266   */\n      swap3\n      swap2\n      pop\n      pop\n      jump\t// out\n        /* \"#utility.yul\":9272:9441   */\n    tag_113:\n        /* \"#utility.yul\":9316:9322   */\n      0x00\n        /* \"#utility.yul\":9349:9400   */\n      tag_222\n        /* \"#utility.yul\":9397:9398   */\n      0x00\n        /* \"#utility.yul\":9393:9399   */\n      not\n        /* \"#utility.yul\":9385:9390   */\n      dup5\n        /* \"#utility.yul\":9382:9383   */\n      0x08\n        /* \"#utility.yul\":9378:9391   */\n      mul\n        /* \"#utility.yul\":9349:9400   */\n      tag_112\n      jump\t// in\n    tag_222:\n        /* \"#utility.yul\":9345:9401   */\n      not\n        /* \"#utility.yul\":9430:9434   */\n      dup1\n        /* \"#utility.yul\":9424:9428   */\n      dup4\n        /* \"#utility.yul\":9420:9435   */\n      and\n        /* \"#utility.yul\":9410:9435   */\n      swap2\n      pop\n        /* \"#utility.yul\":9323:9441   */\n      pop\n        /* \"#utility.yul\":9272:9441   */\n      swap3\n      swap2\n      pop\n      pop\n      jump\t// out\n        /* \"#utility.yul\":9446:9741   */\n    tag_114:\n        /* \"#utility.yul\":9522:9526   */\n      0x00\n        /* \"#utility.yul\":9668:9697   */\n      tag_224\n        /* \"#utility.yul\":9693:9696   */\n      dup4\n        /* \"#utility.yul\":9687:9691   */\n      dup4\n        /* \"#utility.yul\":9668:9697   */\n      tag_113\n      jump\t// in\n    tag_224:\n        /* \"#utility.yul\":9660:9697   */\n      swap2\n      pop\n        /* \"#utility.yul\":9730:9733   */\n      dup3\n        /* \"#utility.yul\":9727:9728   */\n      0x02\n        /* \"#utility.yul\":9723:9734   */\n      mul\n        /* \"#utility.yul\":9717:9721   */\n      dup3\n        /* \"#utility.yul\":9714:9735   */\n      or\n        /* \"#utility.yul\":9706:9735   */\n      swap1\n      pop\n        /* \"#utility.yul\":9446:9741   */\n      swap3\n      swap2\n      pop\n      pop\n      jump\t// out\n        /* \"#utility.yul\":9746:11141   */\n    tag_58:\n        /* \"#utility.yul\":9863:9900   */\n      tag_226\n        /* \"#utility.yul\":9896:9899   */\n      dup3\n        /* \"#utility.yul\":9863:9900   */\n      tag_84\n      jump\t// in\n    tag_226:\n        /* \"#utility.yul\":9965:9983   */\n      0xffffffffffffffff\n        /* \"#utility.yul\":9957:9963   */\n      dup2\n        /* \"#utility.yul\":9954:9984   */\n      gt\n        /* \"#utility.yul\":9951:10007   */\n      iszero\n      tag_227\n      jumpi\n        /* \"#utility.yul\":9987:10005   */\n      tag_228\n      tag_99\n      jump\t// in\n    tag_228:\n        /* \"#utility.yul\":9951:10007   */\n    tag_227:\n        /* \"#utility.yul\":10031:10069   */\n      tag_229\n        /* \"#utility.yul\":10063:10067   */\n      dup3\n        /* \"#utility.yul\":10057:10068   */\n      sload\n        /* \"#utility.yul\":10031:10069   */\n      tag_34\n      jump\t// in\n    tag_229:\n        /* \"#utility.yul\":10116:10183   */\n      tag_230\n        /* \"#utility.yul\":10176:10182   */\n      dup3\n        /* \"#utility.yul\":10168:10174   */\n      dup3\n        /* \"#utility.yul\":10162:10166   */\n      dup6\n        /* \"#utility.yul\":10116:10183   */\n      tag_111\n      jump\t// in\n    tag_230:\n        /* \"#utility.yul\":10210:10211   */\n      0x00\n        /* \"#utility.yul\":10234:10238   */\n      0x20\n        /* \"#utility.yul\":10221:10238   */\n      swap1\n      pop\n        /* \"#utility.yul\":10266:10268   */\n      0x1f\n        /* \"#utility.yul\":10258:10264   */\n      dup4\n        /* \"#utility.yul\":10255:10269   */\n      gt\n        /* \"#utility.yul\":10283:10284   */\n      0x01\n        /* \"#utility.yul\":10278:10896   */\n      dup2\n      eq\n      tag_232\n      jumpi\n        /* \"#utility.yul\":10940:10941   */\n      0x00\n        /* \"#utility.yul\":10957:10963   */\n      dup5\n        /* \"#utility.yul\":10954:11031   */\n      iszero\n      tag_233\n      jumpi\n        /* \"#utility.yul\":11006:11015   */\n      dup3\n        /* \"#utility.yul\":11001:11004   */\n      dup8\n        /* \"#utility.yul\":10997:11016   */\n      add\n        /* \"#utility.yul\":10991:11017   */\n      mload\n        /* \"#utility.yul\":10982:11017   */\n      swap1\n      pop\n        /* \"#utility.yul\":10954:11031   */\n    tag_233:\n        /* \"#utility.yul\":11057:11124   */\n      tag_234\n        /* \"#utility.yul\":11117:11123   */\n      dup6\n        /* \"#utility.yul\":11110:11115   */\n      dup3\n        /* \"#utility.yul\":11057:11124   */\n      tag_114\n      jump\t// in\n    tag_234:\n        /* \"#utility.yul\":11051:11055   */\n      dup7\n        /* \"#utility.yul\":11044:11125   */\n      sstore\n        /* \"#utility.yul\":10913:11135   */\n      pop\n        /* \"#utility.yul\":10248:11135   */\n      jump(tag_231)\n        /* \"#utility.yul\":10278:10896   */\n    tag_232:\n        /* \"#utility.yul\":10330:10334   */\n      0x1f\n        /* \"#utility.yul\":10326:10335   */\n      not\n        /* \"#utility.yul\":10318:10324   */\n      dup5\n        /* \"#utility.yul\":10314:10336   */\n      and\n        /* \"#utility.yul\":10364:10401   */\n      tag_235\n        /* \"#utility.yul\":10396:10400   */\n      dup7\n        /* \"#utility.yul\":10364:10401   */\n      tag_100\n      jump\t// in\n    tag_235:\n        /* \"#utility.yul\":10423:10424   */\n      0x00\n        /* \"#utility.yul\":10437:10645   */\n    tag_236:\n        /* \"#utility.yul\":10451:10458   */\n      dup3\n        /* \"#utility.yul\":10448:10449   */\n      dup2\n        /* \"#utility.yul\":10445:10459   */\n      lt\n        /* \"#utility.yul\":10437:10645   */\n      iszero\n      tag_238\n      jumpi\n        /* \"#utility.yul\":10530:10539   */\n      dup5\n        /* \"#utility.yul\":10525:10528   */\n      dup10\n        /* \"#utility.yul\":10521:10540   */\n      add\n        /* \"#utility.yul\":10515:10541   */\n      mload\n        /* \"#utility.yul\":10507:10513   */\n      dup3\n        /* \"#utility.yul\":10500:10542   */\n      sstore\n        /* \"#utility.yul\":10581:10582   */\n      0x01\n        /* \"#utility.yul\":10573:10579   */\n      dup3\n        /* \"#utility.yul\":10569:10583   */\n      add\n        /* \"#utility.yul\":10559:10583   */\n      swap2\n      pop\n        /* \"#utility.yul\":10628:10630   */\n      0x20\n        /* \"#utility.yul\":10617:10626   */\n      dup6\n        /* \"#utility.yul\":10613:10631   */\n      add\n        /* \"#utility.yul\":10600:10631   */\n      swap5\n      pop\n        /* \"#utility.yul\":10474:10478   */\n      0x20\n        /* \"#utility.yul\":10471:10472   */\n      dup2\n        /* \"#utility.yul\":10467:10479   */\n      add\n        /* \"#utility.yul\":10462:10479   */\n      swap1\n      pop\n        /* \"#utility.yul\":10437:10645   */\n      jump(tag_236)\n    tag_238:\n        /* \"#utility.yul\":10673:10679   */\n      dup7\n        /* \"#utility.yul\":10664:10671   */\n      dup4\n        /* \"#utility.yul\":10661:10680   */\n      lt\n        /* \"#utility.yul\":10658:10837   */\n      iszero\n      tag_239\n      jumpi\n        /* \"#utility.yul\":10731:10740   */\n      dup5\n        /* \"#utility.yul\":10726:10729   */\n      dup10\n        /* \"#utility.yul\":10722:10741   */\n      add\n        /* \"#utility.yul\":10716:10742   */\n      mload\n        /* \"#utility.yul\":10774:10822   */\n      tag_240\n        /* \"#utility.yul\":10816:10820   */\n      0x1f\n        /* \"#utility.yul\":10808:10814   */\n      dup10\n        /* \"#utility.yul\":10804:10821   */\n      and\n        /* \"#utility.yul\":10793:10802   */\n      dup3\n        /* \"#utility.yul\":10774:10822   */\n      tag_113\n      jump\t// in\n    tag_240:\n        /* \"#utility.yul\":10766:10772   */\n      dup4\n        /* \"#utility.yul\":10759:10823   */\n      sstore\n        /* \"#utility.yul\":10681:10837   */\n      pop\n        /* \"#utility.yul\":10658:10837   */\n    tag_239:\n        /* \"#utility.yul\":10883:10884   */\n      0x01\n        /* \"#utility.yul\":10879:10880   */\n      0x02\n        /* \"#utility.yul\":10871:10877   */\n      dup9\n        /* \"#utility.yul\":10867:10881   */\n      mul\n        /* \"#utility.yul\":10863:10885   */\n      add\n        /* \"#utility.yul\":10857:10861   */\n      dup9\n        /* \"#utility.yul\":10850:10886   */\n      sstore\n        /* \"#utility.yul\":10285:10896   */\n      pop\n      pop\n      pop\n        /* \"#utility.yul\":10248:11135   */\n    tag_231:\n      pop\n        /* \"#utility.yul\":9838:11141   */\n      pop\n      pop\n      pop\n        /* \"#utility.yul\":9746:11141   */\n      pop\n      pop\n      jump\t// out\n        /* \"#utility.yul\":11147:11244   */\n    tag_115:\n        /* \"#utility.yul\":11206:11212   */\n      0x00\n        /* \"#utility.yul\":11234:11237   */\n      dup3\n        /* \"#utility.yul\":11224:11237   */\n      swap1\n      pop\n        /* \"#utility.yul\":11147:11244   */\n      swap3\n      swap2\n      pop\n      pop\n      jump\t// out\n        /* \"#utility.yul\":11250:12653   */\n    tag_77:\n        /* \"#utility.yul\":11374:11418   */\n      tag_243\n        /* \"#utility.yul\":11414:11417   */\n      dup4\n        /* \"#utility.yul\":11409:11412   */\n      dup4\n        /* \"#utility.yul\":11374:11418   */\n      tag_115\n      jump\t// in\n    tag_243:\n        /* \"#utility.yul\":11483:11501   */\n      0xffffffffffffffff\n        /* \"#utility.yul\":11475:11481   */\n      dup2\n        /* \"#utility.yul\":11472:11502   */\n      gt\n        /* \"#utility.yul\":11469:11525   */\n      iszero\n      tag_244\n      jumpi\n        /* \"#utility.yul\":11505:11523   */\n      tag_245\n      tag_99\n      jump\t// in\n    tag_245:\n        /* \"#utility.yul\":11469:11525   */\n    tag_244:\n        /* \"#utility.yul\":11549:11587   */\n      tag_246\n        /* \"#utility.yul\":11581:11585   */\n      dup3\n        /* \"#utility.yul\":11575:11586   */\n      sload\n        /* \"#utility.yul\":11549:11587   */\n      tag_34\n      jump\t// in\n    tag_246:\n        /* \"#utility.yul\":11634:11701   */\n      tag_247\n        /* \"#utility.yul\":11694:11700   */\n      dup3\n        /* \"#utility.yul\":11686:11692   */\n      dup3\n        /* \"#utility.yul\":11680:11684   */\n      dup6\n        /* \"#utility.yul\":11634:11701   */\n      tag_111\n      jump\t// in\n    tag_247:\n        /* \"#utility.yul\":11728:11729   */\n      0x00\n        /* \"#utility.yul\":11757:11759   */\n      0x1f\n        /* \"#utility.yul\":11749:11755   */\n      dup4\n        /* \"#utility.yul\":11746:11760   */\n      gt\n        /* \"#utility.yul\":11774:11775   */\n      0x01\n        /* \"#utility.yul\":11769:12401   */\n      dup2\n      eq\n      tag_249\n      jumpi\n        /* \"#utility.yul\":12445:12446   */\n      0x00\n        /* \"#utility.yul\":12462:12468   */\n      dup5\n        /* \"#utility.yul\":12459:12543   */\n      iszero\n      tag_250\n      jumpi\n        /* \"#utility.yul\":12518:12527   */\n      dup3\n        /* \"#utility.yul\":12513:12516   */\n      dup8\n        /* \"#utility.yul\":12509:12528   */\n      add\n        /* \"#utility.yul\":12496:12529   */\n      calldataload\n        /* \"#utility.yul\":12487:12529   */\n      swap1\n      pop\n        /* \"#utility.yul\":12459:12543   */\n    tag_250:\n        /* \"#utility.yul\":12569:12636   */\n      tag_251\n        /* \"#utility.yul\":12629:12635   */\n      dup6\n        /* \"#utility.yul\":12622:12627   */\n      dup3\n        /* \"#utility.yul\":12569:12636   */\n      tag_114\n      jump\t// in\n    tag_251:\n        /* \"#utility.yul\":12563:12567   */\n      dup7\n        /* \"#utility.yul\":12556:12637   */\n      sstore\n        /* \"#utility.yul\":12418:12647   */\n      pop\n        /* \"#utility.yul\":11739:12647   */\n      jump(tag_248)\n        /* \"#utility.yul\":11769:12401   */\n    tag_249:\n        /* \"#utility.yul\":11821:11825   */\n      0x1f\n        /* \"#utility.yul\":11817:11826   */\n      not\n        /* \"#utility.yul\":11809:11815   */\n      dup5\n        /* \"#utility.yul\":11805:11827   */\n      and\n        /* \"#utility.yul\":11855:11892   */\n      tag_252\n        /* \"#utility.yul\":11887:11891   */\n      dup7\n        /* \"#utility.yul\":11855:11892   */\n      tag_100\n      jump\t// in\n    tag_252:\n        /* \"#utility.yul\":11914:11915   */\n      0x00\n        /* \"#utility.yul\":11928:12143   */\n    tag_253:\n        /* \"#utility.yul\":11942:11949   */\n      dup3\n        /* \"#utility.yul\":11939:11940   */\n      dup2\n        /* \"#utility.yul\":11936:11950   */\n      lt\n        /* \"#utility.yul\":11928:12143   */\n      iszero\n      tag_255\n      jumpi\n        /* \"#utility.yul\":12028:12037   */\n      dup5\n        /* \"#utility.yul\":12023:12026   */\n      dup10\n        /* \"#utility.yul\":12019:12038   */\n      add\n        /* \"#utility.yul\":12006:12039   */\n      calldataload\n        /* \"#utility.yul\":11998:12004   */\n      dup3\n        /* \"#utility.yul\":11991:12040   */\n      sstore\n        /* \"#utility.yul\":12079:12080   */\n      0x01\n        /* \"#utility.yul\":12071:12077   */\n      dup3\n        /* \"#utility.yul\":12067:12081   */\n      add\n        /* \"#utility.yul\":12057:12081   */\n      swap2\n      pop\n        /* \"#utility.yul\":12126:12128   */\n      0x20\n        /* \"#utility.yul\":12115:12124   */\n      dup6\n        /* \"#utility.yul\":12111:12129   */\n      add\n        /* \"#utility.yul\":12098:12129   */\n      swap5\n      pop\n        /* \"#utility.yul\":11965:11969   */\n      0x20\n        /* \"#utility.yul\":11962:11963   */\n      dup2\n        /* \"#utility.yul\":11958:11970   */\n      add\n        /* \"#utility.yul\":11953:11970   */\n      swap1\n      pop\n        /* \"#utility.yul\":11928:12143   */\n      jump(tag_253)\n    tag_255:\n        /* \"#utility.yul\":12171:12177   */\n      dup7\n        /* \"#utility.yul\":12162:12169   */\n      dup4\n        /* \"#utility.yul\":12159:12178   */\n      lt\n        /* \"#utility.yul\":12156:12342   */\n      iszero\n      tag_256\n      jumpi\n        /* \"#utility.yul\":12236:12245   */\n      dup5\n        /* \"#utility.yul\":12231:12234   */\n      dup10\n        /* \"#utility.yul\":12227:12246   */\n      add\n        /* \"#utility.yul\":12214:12247   */\n      calldataload\n        /* \"#utility.yul\":12279:12327   */\n      tag_257\n        /* \"#utility.yul\":12321:12325   */\n      0x1f\n        /* \"#utility.yul\":12313:12319   */\n      dup10\n        /* \"#utility.yul\":12309:12326   */\n      and\n        /* \"#utility.yul\":12298:12307   */\n      dup3\n        /* \"#utility.yul\":12279:12327   */\n      tag_113\n      jump\t// in\n    tag_257:\n        /* \"#utility.yul\":12271:12277   */\n      dup4\n        /* \"#utility.yul\":12264:12328   */\n      sstore\n        /* \"#utility.yul\":12179:12342   */\n      pop\n        /* \"#utility.yul\":12156:12342   */\n    tag_256:\n        /* \"#utility.yul\":12388:12389   */\n      0x01\n        /* \"#utility.yul\":12384:12385   */\n      0x02\n        /* \"#utility.yul\":12376:12382   */\n      dup9\n        /* \"#utility.yul\":12372:12386   */\n      mul\n        /* \"#utility.yul\":12368:12390   */\n      add\n        /* \"#utility.yul\":12362:12366   */\n      dup9\n        /* \"#utility.yul\":12355:12391   */\n      sstore\n        /* \"#utility.yul\":11776:12401   */\n      pop\n      pop\n      pop\n        /* \"#utility.yul\":11739:12647   */\n    tag_248:\n      pop\n        /* \"#utility.yul\":11349:12653   */\n      pop\n      pop\n      pop\n        /* \"#utility.yul\":11250:12653   */\n      pop\n      pop\n      pop\n      jump\t// out\n\n    auxdata: 0xa2646970667358221220633d345b3e5bf8124447148825208f0cf3ee0543afa88b4e6757efbed980a05c64736f6c634300081a0033\n}\n",
				"bytecode": {
					"linkReferences": {},
					"object": "6080604052348015600e575f80fd5b50610d778061001c5f395ff3fe608060405234801561000f575f80fd5b5060043610610055575f3560e01c806306ead22e146100595780639507d39a1461008b578063a6551d4b146100bd578063bc8bc2b4146100d9578063fe55932a1461010a575b5f80fd5b610073600480360381019061006e91906106c0565b610126565b60405161008293929190610784565b60405180910390f35b6100a560048036038101906100a091906106c0565b6101ed565b6040516100b493929190610784565b60405180910390f35b6100d760048036038101906100d2919061084b565b6102fe565b005b6100f360048036038101906100ee91906106c0565b610568565b6040516101019291906108bc565b60405180910390f35b610124600480360381019061011f91906108ea565b610628565b005b60018181548110610135575f80fd5b905f5260205f2090600302015f91509050805f01805461015490610974565b80601f016020809104026020016040519081016040528092919081815260200182805461018090610974565b80156101cb5780601f106101a2576101008083540402835291602001916101cb565b820191905f5260205f20905b8154815290600101906020018083116101ae57829003601f168201915b505050505090806001015490806002015f9054906101000a900460ff16905083565b60605f8060018481548110610205576102046109a4565b5b905f5260205f2090600302015f0160018581548110610227576102266109a4565b5b905f5260205f209060030201600101546001868154811061024b5761024a6109a4565b5b905f5260205f2090600302016002015f9054906101000a900460ff1682805461027390610974565b80601f016020809104026020016040519081016040528092919081815260200182805461029f90610974565b80156102ea5780601f106102c1576101008083540402835291602001916102ea565b820191905f5260205f20905b8154815290600101906020018083116102cd57829003601f168201915b505050505092509250925092509193909250565b6001604051806060016040528086868080601f0160208091040260200160405190810160405280939291908181526020018383808284375f81840152601f19601f820116905080830192505050505050508152602001848152602001831515815250908060018154018082558091505060019003905f5260205f2090600302015f909190919091505f820151815f0190816103999190610b9b565b50602082015181600101556040820151816002015f6101000a81548160ff02191690831515021790555050506001604051806060016040528086868080601f0160208091040260200160405190810160405280939291908181526020018383808284375f81840152601f19601f820116905080830192505050505050508152602001848152602001831515815250908060018154018082558091505060019003905f5260205f2090600302015f909190919091505f820151815f0190816104609190610b9b565b50602082015181600101556040820151816002015f6101000a81548160ff0219169083151502179055505050610494610664565b84848080601f0160208091040260200160405190810160405280939291908181526020018383808284375f81840152601f19601f82011690508083019250505050505050815f01819052508281602001818152505081816040019015159081151581525050600181908060018154018082558091505060019003905f5260205f2090600302015f909190919091505f820151815f0190816105359190610b9b565b50602082015181600101556040820151816002015f6101000a81548160ff02191690831515021790555050505050505050565b5f8181548110610576575f80fd5b905f5260205f2090600202015f91509050805f01805461059590610974565b80601f01602080910402602001604051908101604052809291908181526020018280546105c190610974565b801561060c5780601f106105e35761010080835404028352916020019161060c565b820191905f5260205f20905b8154815290600101906020018083116105ef57829003601f168201915b505050505090806001015f9054906101000a900460ff16905082565b5f6001848154811061063d5761063c6109a4565b5b905f5260205f20906003020190508282825f01918261065d929190610c74565b5050505050565b6040518060600160405280606081526020015f81526020015f151581525090565b5f80fd5b5f80fd5b5f819050919050565b61069f8161068d565b81146106a9575f80fd5b50565b5f813590506106ba81610696565b92915050565b5f602082840312156106d5576106d4610685565b5b5f6106e2848285016106ac565b91505092915050565b5f81519050919050565b5f82825260208201905092915050565b8281835e5f83830152505050565b5f601f19601f8301169050919050565b5f61072d826106eb565b61073781856106f5565b9350610747818560208601610705565b61075081610713565b840191505092915050565b6107648161068d565b82525050565b5f8115159050919050565b61077e8161076a565b82525050565b5f6060820190508181035f83015261079c8186610723565b90506107ab602083018561075b565b6107b86040830184610775565b949350505050565b5f80fd5b5f80fd5b5f80fd5b5f8083601f8401126107e1576107e06107c0565b5b8235905067ffffffffffffffff8111156107fe576107fd6107c4565b5b60208301915083600182028301111561081a576108196107c8565b5b9250929050565b61082a8161076a565b8114610834575f80fd5b50565b5f8135905061084581610821565b92915050565b5f805f806060858703121561086357610862610685565b5b5f85013567ffffffffffffffff8111156108805761087f610689565b5b61088c878288016107cc565b9450945050602061089f878288016106ac565b92505060406108b087828801610837565b91505092959194509250565b5f6040820190508181035f8301526108d48185610723565b90506108e36020830184610775565b9392505050565b5f805f6040848603121561090157610900610685565b5b5f61090e868287016106ac565b935050602084013567ffffffffffffffff81111561092f5761092e610689565b5b61093b868287016107cc565b92509250509250925092565b7f4e487b71000000000000000000000000000000000000000000000000000000005f52602260045260245ffd5b5f600282049050600182168061098b57607f821691505b60208210810361099e5761099d610947565b5b50919050565b7f4e487b71000000000000000000000000000000000000000000000000000000005f52603260045260245ffd5b7f4e487b71000000000000000000000000000000000000000000000000000000005f52604160045260245ffd5b5f819050815f5260205f209050919050565b5f6020601f8301049050919050565b5f82821b905092915050565b5f60088302610a5a7fffffffffffffffffffffffffffffffffffffffffffffffffffffffffffffffff82610a1f565b610a648683610a1f565b95508019841693508086168417925050509392505050565b5f819050919050565b5f610a9f610a9a610a958461068d565b610a7c565b61068d565b9050919050565b5f819050919050565b610ab883610a85565b610acc610ac482610aa6565b848454610a2b565b825550505050565b5f90565b610ae0610ad4565b610aeb818484610aaf565b505050565b5b81811015610b0e57610b035f82610ad8565b600181019050610af1565b5050565b601f821115610b5357610b24816109fe565b610b2d84610a10565b81016020851015610b3c578190505b610b50610b4885610a10565b830182610af0565b50505b505050565b5f82821c905092915050565b5f610b735f1984600802610b58565b1980831691505092915050565b5f610b8b8383610b64565b9150826002028217905092915050565b610ba4826106eb565b67ffffffffffffffff811115610bbd57610bbc6109d1565b5b610bc78254610974565b610bd2828285610b12565b5f60209050601f831160018114610c03575f8415610bf1578287015190505b610bfb8582610b80565b865550610c62565b601f198416610c11866109fe565b5f5b82811015610c3857848901518255600182019150602085019450602081019050610c13565b86831015610c555784890151610c51601f891682610b64565b8355505b6001600288020188555050505b505050505050565b5f82905092915050565b610c7e8383610c6a565b67ffffffffffffffff811115610c9757610c966109d1565b5b610ca18254610974565b610cac828285610b12565b5f601f831160018114610cd9575f8415610cc7578287013590505b610cd18582610b80565b865550610d38565b601f198416610ce7866109fe565b5f5b82811015610d0e57848901358255600182019150602085019450602081019050610ce9565b86831015610d2b5784890135610d27601f891682610b64565b8355505b6001600288020188555050505b5050505050505056fea2646970667358221220633d345b3e5bf8124447148825208f0cf3ee0543afa88b4e6757efbed980a05c64736f6c634300081a0033",
					"opcodes": "PUSH1 0x80 PUSH1 0x40 MSTORE CALLVALUE DUP1 ISZERO PUSH1 0xE JUMPI PUSH0 DUP1 REVERT JUMPDEST POP PUSH2 0xD77 DUP1 PUSH2 0x1C PUSH0 CODECOPY PUSH0 RETURN INVALID PUSH1 0x80 PUSH1 0x40 MSTORE CALLVALUE DUP1 ISZERO PUSH2 0xF JUMPI PUSH0 DUP1 REVERT JUMPDEST POP PUSH1 0x4 CALLDATASIZE LT PUSH2 0x55 JUMPI PUSH0 CALLDATALOAD PUSH1 0xE0 SHR DUP1 PUSH4 0x6EAD22E EQ PUSH2 0x59 JUMPI DUP1 PUSH4 0x9507D39A EQ PUSH2 0x8B JUMPI DUP1 PUSH4 0xA6551D4B EQ PUSH2 0xBD JUMPI DUP1 PUSH4 0xBC8BC2B4 EQ PUSH2 0xD9 JUMPI DUP1 PUSH4 0xFE55932A EQ PUSH2 0x10A JUMPI JUMPDEST PUSH0 DUP1 REVERT JUMPDEST PUSH2 0x73 PUSH1 0x4 DUP1 CALLDATASIZE SUB DUP2 ADD SWAP1 PUSH2 0x6E SWAP2 SWAP1 PUSH2 0x6C0 JUMP JUMPDEST PUSH2 0x126 JUMP JUMPDEST PUSH1 0x40 MLOAD PUSH2 0x82 SWAP4 SWAP3 SWAP2 SWAP1 PUSH2 0x784 JUMP JUMPDEST PUSH1 0x40 MLOAD DUP1 SWAP2 SUB SWAP1 RETURN JUMPDEST PUSH2 0xA5 PUSH1 0x4 DUP1 CALLDATASIZE SUB DUP2 ADD SWAP1 PUSH2 0xA0 SWAP2 SWAP1 PUSH2 0x6C0 JUMP JUMPDEST PUSH2 0x1ED JUMP JUMPDEST PUSH1 0x40 MLOAD PUSH2 0xB4 SWAP4 SWAP3 SWAP2 SWAP1 PUSH2 0x784 JUMP JUMPDEST PUSH1 0x40 MLOAD DUP1 SWAP2 SUB SWAP1 RETURN JUMPDEST PUSH2 0xD7 PUSH1 0x4 DUP1 CALLDATASIZE SUB DUP2 ADD SWAP1 PUSH2 0xD2 SWAP2 SWAP1 PUSH2 0x84B JUMP JUMPDEST PUSH2 0x2FE JUMP JUMPDEST STOP JUMPDEST PUSH2 0xF3 PUSH1 0x4 DUP1 CALLDATASIZE SUB DUP2 ADD SWAP1 PUSH2 0xEE SWAP2 SWAP1 PUSH2 0x6C0 JUMP JUMPDEST PUSH2 0x568 JUMP JUMPDEST PUSH1 0x40 MLOAD PUSH2 0x101 SWAP3 SWAP2 SWAP1 PUSH2 0x8BC JUMP JUMPDEST PUSH1 0x40 MLOAD DUP1 SWAP2 SUB SWAP1 RETURN JUMPDEST PUSH2 0x124 PUSH1 0x4 DUP1 CALLDATASIZE SUB DUP2 ADD SWAP1 PUSH2 0x11F SWAP2 SWAP1 PUSH2 0x8EA JUMP JUMPDEST PUSH2 0x628 JUMP JUMPDEST STOP JUMPDEST PUSH1 0x1 DUP2 DUP2 SLOAD DUP2 LT PUSH2 0x135 JUMPI PUSH0 DUP1 REVERT JUMPDEST SWAP1 PUSH0 MSTORE PUSH1 0x20 PUSH0 KECCAK256 SWAP1 PUSH1 0x3 MUL ADD PUSH0 SWAP2 POP SWAP1 POP DUP1 PUSH0 ADD DUP1 SLOAD PUSH2 0x154 SWAP1 PUSH2 0x974 JUMP JUMPDEST DUP1 PUSH1 0x1F ADD PUSH1 0x20 DUP1 SWAP2 DIV MUL PUSH1 0x20 ADD PUSH1 0x40 MLOAD SWAP1 DUP2 ADD PUSH1 0x40 MSTORE DUP1 SWAP3 SWAP2 SWAP1 DUP2 DUP2 MSTORE PUSH1 0x20 ADD DUP3 DUP1 SLOAD PUSH2 0x180 SWAP1 PUSH2 0x974 JUMP JUMPDEST DUP1 ISZERO PUSH2 0x1CB JUMPI DUP1 PUSH1 0x1F LT PUSH2 0x1A2 JUMPI PUSH2 0x100 DUP1 DUP4 SLOAD DIV MUL DUP4 MSTORE SWAP2 PUSH1 0x20 ADD SWAP2 PUSH2 0x1CB JUMP JUMPDEST DUP3 ADD SWAP2 SWAP1 PUSH0 MSTORE PUSH1 0x20 PUSH0 KECCAK256 SWAP1 JUMPDEST DUP2 SLOAD DUP2 MSTORE SWAP1 PUSH1 0x1 ADD SWAP1 PUSH1 0x20 ADD DUP1 DUP4 GT PUSH2 0x1AE JUMPI DUP3 SWAP1 SUB PUSH1 0x1F AND DUP3 ADD SWAP2 JUMPDEST POP POP POP POP POP SWAP1 DUP1 PUSH1 0x1 ADD SLOAD SWAP1 DUP1 PUSH1 0x2 ADD PUSH0 SWAP1 SLOAD SWAP1 PUSH2 0x100 EXP SWAP1 DIV PUSH1 0xFF AND SWAP1 POP DUP4 JUMP JUMPDEST PUSH1 0x60 PUSH0 DUP1 PUSH1 0x1 DUP5 DUP2 SLOAD DUP2 LT PUSH2 0x205 JUMPI PUSH2 0x204 PUSH2 0x9A4 JUMP JUMPDEST JUMPDEST SWAP1 PUSH0 MSTORE PUSH1 0x20 PUSH0 KECCAK256 SWAP1 PUSH1 0x3 MUL ADD PUSH0 ADD PUSH1 0x1 DUP6 DUP2 SLOAD DUP2 LT PUSH2 0x227 JUMPI PUSH2 0x226 PUSH2 0x9A4 JUMP JUMPDEST JUMPDEST SWAP1 PUSH0 MSTORE PUSH1 0x20 PUSH0 KECCAK256 SWAP1 PUSH1 0x3 MUL ADD PUSH1 0x1 ADD SLOAD PUSH1 0x1 DUP7 DUP2 SLOAD DUP2 LT PUSH2 0x24B JUMPI PUSH2 0x24A PUSH2 0x9A4 JUMP JUMPDEST JUMPDEST SWAP1 PUSH0 MSTORE PUSH1 0x20 PUSH0 KECCAK256 SWAP1 PUSH1 0x3 MUL ADD PUSH1 0x2 ADD PUSH0 SWAP1 SLOAD SWAP1 PUSH2 0x100 EXP SWAP1 DIV PUSH1 0xFF AND DUP3 DUP1 SLOAD PUSH2 0x273 SWAP1 PUSH2 0x974 JUMP JUMPDEST DUP1 PUSH1 0x1F ADD PUSH1 0x20 DUP1 SWAP2 DIV MUL PUSH1 0x20 ADD PUSH1 0x40 MLOAD SWAP1 DUP2 ADD PUSH1 0x40 MSTORE DUP1 SWAP3 SWAP2 SWAP1 DUP2 DUP2 MSTORE PUSH1 0x20 ADD DUP3 DUP1 SLOAD PUSH2 0x29F SWAP1 PUSH2 0x974 JUMP JUMPDEST DUP1 ISZERO PUSH2 0x2EA JUMPI DUP1 PUSH1 0x1F LT PUSH2 0x2C1 JUMPI PUSH2 0x100 DUP1 DUP4 SLOAD DIV MUL DUP4 MSTORE SWAP2 PUSH1 0x20 ADD SWAP2 PUSH2 0x2EA JUMP JUMPDEST DUP3 ADD SWAP2 SWAP1 PUSH0 MSTORE PUSH1 0x20 PUSH0 KECCAK256 SWAP1 JUMPDEST DUP2 SLOAD DUP2 MSTORE SWAP1 PUSH1 0x1 ADD SWAP1 PUSH1 0x20 ADD DUP1 DUP4 GT PUSH2 0x2CD JUMPI DUP3 SWAP1 SUB PUSH1 0x1F AND DUP3 ADD SWAP2 JUMPDEST POP POP POP POP POP SWAP3 POP SWAP3 POP SWAP3 POP SWAP3 POP SWAP2 SWAP4 SWAP1 SWAP3 POP JUMP JUMPDEST PUSH1 0x1 PUSH1 0x40 MLOAD DUP1 PUSH1 0x60 ADD PUSH1 0x40 MSTORE DUP1 DUP7 DUP7 DUP1 DUP1 PUSH1 0x1F ADD PUSH1 0x20 DUP1 SWAP2 DIV MUL PUSH1 0x20 ADD PUSH1 0x40 MLOAD SWAP1 DUP2 ADD PUSH1 0x40 MSTORE DUP1 SWAP4 SWAP3 SWAP2 SWAP1 DUP2 DUP2 MSTORE PUSH1 0x20 ADD DUP4 DUP4 DUP1 DUP3 DUP5 CALLDATACOPY PUSH0 DUP2 DUP5 ADD MSTORE PUSH1 0x1F NOT PUSH1 0x1F DUP3 ADD AND SWAP1 POP DUP1 DUP4 ADD SWAP3 POP POP POP POP POP POP POP DUP2 MSTORE PUSH1 0x20 ADD DUP5 DUP2 MSTORE PUSH1 0x20 ADD DUP4 ISZERO ISZERO DUP2 MSTORE POP SWAP1 DUP1 PUSH1 0x1 DUP2 SLOAD ADD DUP1 DUP3 SSTORE DUP1 SWAP2 POP POP PUSH1 0x1 SWAP1 SUB SWAP1 PUSH0 MSTORE PUSH1 0x20 PUSH0 KECCAK256 SWAP1 PUSH1 0x3 MUL ADD PUSH0 SWAP1 SWAP2 SWAP1 SWAP2 SWAP1 SWAP2 POP PUSH0 DUP3 ADD MLOAD DUP2 PUSH0 ADD SWAP1 DUP2 PUSH2 0x399 SWAP2 SWAP1 PUSH2 0xB9B JUMP JUMPDEST POP PUSH1 0x20 DUP3 ADD MLOAD DUP2 PUSH1 0x1 ADD SSTORE PUSH1 0x40 DUP3 ADD MLOAD DUP2 PUSH1 0x2 ADD PUSH0 PUSH2 0x100 EXP DUP2 SLOAD DUP2 PUSH1 0xFF MUL NOT AND SWAP1 DUP4 ISZERO ISZERO MUL OR SWAP1 SSTORE POP POP POP PUSH1 0x1 PUSH1 0x40 MLOAD DUP1 PUSH1 0x60 ADD PUSH1 0x40 MSTORE DUP1 DUP7 DUP7 DUP1 DUP1 PUSH1 0x1F ADD PUSH1 0x20 DUP1 SWAP2 DIV MUL PUSH1 0x20 ADD PUSH1 0x40 MLOAD SWAP1 DUP2 ADD PUSH1 0x40 MSTORE DUP1 SWAP4 SWAP3 SWAP2 SWAP1 DUP2 DUP2 MSTORE PUSH1 0x20 ADD DUP4 DUP4 DUP1 DUP3 DUP5 CALLDATACOPY PUSH0 DUP2 DUP5 ADD MSTORE PUSH1 0x1F NOT PUSH1 0x1F DUP3 ADD AND SWAP1 POP DUP1 DUP4 ADD SWAP3 POP POP POP POP POP POP POP DUP2 MSTORE PUSH1 0x20 ADD DUP5 DUP2 MSTORE PUSH1 0x20 ADD DUP4 ISZERO ISZERO DUP2 MSTORE POP SWAP1 DUP1 PUSH1 0x1 DUP2 SLOAD ADD DUP1 DUP3 SSTORE DUP1 SWAP2 POP POP PUSH1 0x1 SWAP1 SUB SWAP1 PUSH0 MSTORE PUSH1 0x20 PUSH0 KECCAK256 SWAP1 PUSH1 0x3 MUL ADD PUSH0 SWAP1 SWAP2 SWAP1 SWAP2 SWAP1 SWAP2 POP PUSH0 DUP3 ADD MLOAD DUP2 PUSH0 ADD SWAP1 DUP2 PUSH2 0x460 SWAP2 SWAP1 PUSH2 0xB9B JUMP JUMPDEST POP PUSH1 0x20 DUP3 ADD MLOAD DUP2 PUSH1 0x1 ADD SSTORE PUSH1 0x40 DUP3 ADD MLOAD DUP2 PUSH1 0x2 ADD PUSH0 PUSH2 0x100 EXP DUP2 SLOAD DUP2 PUSH1 0xFF MUL NOT AND SWAP1 DUP4 ISZERO ISZERO MUL OR SWAP1 SSTORE POP POP POP PUSH2 0x494 PUSH2 0x664 JUMP JUMPDEST DUP5 DUP5 DUP1 DUP1 PUSH1 0x1F ADD PUSH1 0x20 DUP1 SWAP2 DIV MUL PUSH1 0x20 ADD PUSH1 0x40 MLOAD SWAP1 DUP2 ADD PUSH1 0x40 MSTORE DUP1 SWAP4 SWAP3 SWAP2 SWAP1 DUP2 DUP2 MSTORE PUSH1 0x20 ADD DUP4 DUP4 DUP1 DUP3 DUP5 CALLDATACOPY PUSH0 DUP2 DUP5 ADD MSTORE PUSH1 0x1F NOT PUSH1 0x1F DUP3 ADD AND SWAP1 POP DUP1 DUP4 ADD SWAP3 POP POP POP POP POP POP POP DUP2 PUSH0 ADD DUP2 SWAP1 MSTORE POP DUP3 DUP2 PUSH1 0x20 ADD DUP2 DUP2 MSTORE POP POP DUP2 DUP2 PUSH1 0x40 ADD SWAP1 ISZERO ISZERO SWAP1 DUP2 ISZERO ISZERO DUP2 MSTORE POP POP PUSH1 0x1 DUP2 SWAP1 DUP1 PUSH1 0x1 DUP2 SLOAD ADD DUP1 DUP3 SSTORE DUP1 SWAP2 POP POP PUSH1 0x1 SWAP1 SUB SWAP1 PUSH0 MSTORE PUSH1 0x20 PUSH0 KECCAK256 SWAP1 PUSH1 0x3 MUL ADD PUSH0 SWAP1 SWAP2 SWAP1 SWAP2 SWAP1 SWAP2 POP PUSH0 DUP3 ADD MLOAD DUP2 PUSH0 ADD SWAP1 DUP2 PUSH2 0x535 SWAP2 SWAP1 PUSH2 0xB9B JUMP JUMPDEST POP PUSH1 0x20 DUP3 ADD MLOAD DUP2 PUSH1 0x1 ADD SSTORE PUSH1 0x40 DUP3 ADD MLOAD DUP2 PUSH1 0x2 ADD PUSH0 PUSH2 0x100 EXP DUP2 SLOAD DUP2 PUSH1 0xFF MUL NOT AND SWAP1 DUP4 ISZERO ISZERO MUL OR SWAP1 SSTORE POP POP POP POP POP POP POP POP JUMP JUMPDEST PUSH0 DUP2 DUP2 SLOAD DUP2 LT PUSH2 0x576 JUMPI PUSH0 DUP1 REVERT JUMPDEST SWAP1 PUSH0 MSTORE PUSH1 0x20 PUSH0 KECCAK256 SWAP1 PUSH1 0x2 MUL ADD PUSH0 SWAP2 POP SWAP1 POP DUP1 PUSH0 ADD DUP1 SLOAD PUSH2 0x595 SWAP1 PUSH2 0x974 JUMP JUMPDEST DUP1 PUSH1 0x1F ADD PUSH1 0x20 DUP1 SWAP2 DIV MUL PUSH1 0x20 ADD PUSH1 0x40 MLOAD SWAP1 DUP2 ADD PUSH1 0x40 MSTORE DUP1 SWAP3 SWAP2 SWAP1 DUP2 DUP2 MSTORE PUSH1 0x20 ADD DUP3 DUP1 SLOAD PUSH2 0x5C1 SWAP1 PUSH2 0x974 JUMP JUMPDEST DUP1 ISZERO PUSH2 0x60C JUMPI DUP1 PUSH1 0x1F LT PUSH2 0x5E3 JUMPI PUSH2 0x100 DUP1 DUP4 SLOAD DIV MUL DUP4 MSTORE SWAP2 PUSH1 0x20 ADD SWAP2 PUSH2 0x60C JUMP JUMPDEST DUP3 ADD SWAP2 SWAP1 PUSH0 MSTORE PUSH1 0x20 PUSH0 KECCAK256 SWAP1 JUMPDEST DUP2 SLOAD DUP2 MSTORE SWAP1 PUSH1 0x1 ADD SWAP1 PUSH1 0x20 ADD DUP1 DUP4 GT PUSH2 0x5EF JUMPI DUP3 SWAP1 SUB PUSH1 0x1F AND DUP3 ADD SWAP2 JUMPDEST POP POP POP POP POP SWAP1 DUP1 PUSH1 0x1 ADD PUSH0 SWAP1 SLOAD SWAP1 PUSH2 0x100 EXP SWAP1 DIV PUSH1 0xFF AND SWAP1 POP DUP3 JUMP JUMPDEST PUSH0 PUSH1 0x1 DUP5 DUP2 SLOAD DUP2 LT PUSH2 0x63D JUMPI PUSH2 0x63C PUSH2 0x9A4 JUMP JUMPDEST JUMPDEST SWAP1 PUSH0 MSTORE PUSH1 0x20 PUSH0 KECCAK256 SWAP1 PUSH1 0x3 MUL ADD SWAP1 POP DUP3 DUP3 DUP3 PUSH0 ADD SWAP2 DUP3 PUSH2 0x65D SWAP3 SWAP2 SWAP1 PUSH2 0xC74 JUMP JUMPDEST POP POP POP POP POP JUMP JUMPDEST PUSH1 0x40 MLOAD DUP1 PUSH1 0x60 ADD PUSH1 0x40 MSTORE DUP1 PUSH1 0x60 DUP2 MSTORE PUSH1 0x20 ADD PUSH0 DUP2 MSTORE PUSH1 0x20 ADD PUSH0 ISZERO ISZERO DUP2 MSTORE POP SWAP1 JUMP JUMPDEST PUSH0 DUP1 REVERT JUMPDEST PUSH0 DUP1 REVERT JUMPDEST PUSH0 DUP2 SWAP1 POP SWAP2 SWAP1 POP JUMP JUMPDEST PUSH2 0x69F DUP2 PUSH2 0x68D JUMP JUMPDEST DUP2 EQ PUSH2 0x6A9 JUMPI PUSH0 DUP1 REVERT JUMPDEST POP JUMP JUMPDEST PUSH0 DUP2 CALLDATALOAD SWAP1 POP PUSH2 0x6BA DUP2 PUSH2 0x696 JUMP JUMPDEST SWAP3 SWAP2 POP POP JUMP JUMPDEST PUSH0 PUSH1 0x20 DUP3 DUP5 SUB SLT ISZERO PUSH2 0x6D5 JUMPI PUSH2 0x6D4 PUSH2 0x685 JUMP JUMPDEST JUMPDEST PUSH0 PUSH2 0x6E2 DUP5 DUP3 DUP6 ADD PUSH2 0x6AC JUMP JUMPDEST SWAP2 POP POP SWAP3 SWAP2 POP POP JUMP JUMPDEST PUSH0 DUP2 MLOAD SWAP1 POP SWAP2 SWAP1 POP JUMP JUMPDEST PUSH0 DUP3 DUP3 MSTORE PUSH1 0x20 DUP3 ADD SWAP1 POP SWAP3 SWAP2 POP POP JUMP JUMPDEST DUP3 DUP2 DUP4 MCOPY PUSH0 DUP4 DUP4 ADD MSTORE POP POP POP JUMP JUMPDEST PUSH0 PUSH1 0x1F NOT PUSH1 0x1F DUP4 ADD AND SWAP1 POP SWAP2 SWAP1 POP JUMP JUMPDEST PUSH0 PUSH2 0x72D DUP3 PUSH2 0x6EB JUMP JUMPDEST PUSH2 0x737 DUP2 DUP6 PUSH2 0x6F5 JUMP JUMPDEST SWAP4 POP PUSH2 0x747 DUP2 DUP6 PUSH1 0x20 DUP7 ADD PUSH2 0x705 JUMP JUMPDEST PUSH2 0x750 DUP2 PUSH2 0x713 JUMP JUMPDEST DUP5 ADD SWAP2 POP POP SWAP3 SWAP2 POP POP JUMP JUMPDEST PUSH2 0x764 DUP2 PUSH2 0x68D JUMP JUMPDEST DUP3 MSTORE POP POP JUMP JUMPDEST PUSH0 DUP2 ISZERO ISZERO SWAP1 POP SWAP2 SWAP1 POP JUMP JUMPDEST PUSH2 0x77E DUP2 PUSH2 0x76A JUMP JUMPDEST DUP3 MSTORE POP POP JUMP JUMPDEST PUSH0 PUSH1 0x60 DUP3 ADD SWAP1 POP DUP2 DUP2 SUB PUSH0 DUP4 ADD MSTORE PUSH2 0x79C DUP2 DUP7 PUSH2 0x723 JUMP JUMPDEST SWAP1 POP PUSH2 0x7AB PUSH1 0x20 DUP4 ADD DUP6 PUSH2 0x75B JUMP JUMPDEST PUSH2 0x7B8 PUSH1 0x40 DUP4 ADD DUP5 PUSH2 0x775 JUMP JUMPDEST SWAP5 SWAP4 POP POP POP POP JUMP JUMPDEST PUSH0 DUP1 REVERT JUMPDEST PUSH0 DUP1 REVERT JUMPDEST PUSH0 DUP1 REVERT JUMPDEST PUSH0 DUP1 DUP4 PUSH1 0x1F DUP5 ADD SLT PUSH2 0x7E1 JUMPI PUSH2 0x7E0 PUSH2 0x7C0 JUMP JUMPDEST JUMPDEST DUP3 CALLDATALOAD SWAP1 POP PUSH8 0xFFFFFFFFFFFFFFFF DUP2 GT ISZERO PUSH2 0x7FE JUMPI PUSH2 0x7FD PUSH2 0x7C4 JUMP JUMPDEST JUMPDEST PUSH1 0x20 DUP4 ADD SWAP2 POP DUP4 PUSH1 0x1 DUP3 MUL DUP4 ADD GT ISZERO PUSH2 0x81A JUMPI PUSH2 0x819 PUSH2 0x7C8 JUMP JUMPDEST JUMPDEST SWAP3 POP SWAP3 SWAP1 POP JUMP JUMPDEST PUSH2 0x82A DUP2 PUSH2 0x76A JUMP JUMPDEST DUP2 EQ PUSH2 0x834 JUMPI PUSH0 DUP1 REVERT JUMPDEST POP JUMP JUMPDEST PUSH0 DUP2 CALLDATALOAD SWAP1 POP PUSH2 0x845 DUP2 PUSH2 0x821 JUMP JUMPDEST SWAP3 SWAP2 POP POP JUMP JUMPDEST PUSH0 DUP1 PUSH0 DUP1 PUSH1 0x60 DUP6 DUP8 SUB SLT ISZERO PUSH2 0x863 JUMPI PUSH2 0x862 PUSH2 0x685 JUMP JUMPDEST JUMPDEST PUSH0 DUP6 ADD CALLDATALOAD PUSH8 0xFFFFFFFFFFFFFFFF DUP2 GT ISZERO PUSH2 0x880 JUMPI PUSH2 0x87F PUSH2 0x689 JUMP JUMPDEST JUMPDEST PUSH2 0x88C DUP8 DUP3 DUP9 ADD PUSH2 0x7CC JUMP JUMPDEST SWAP5 POP SWAP5 POP POP PUSH1 0x20 PUSH2 0x89F DUP8 DUP3 DUP9 ADD PUSH2 0x6AC JUMP JUMPDEST SWAP3 POP POP PUSH1 0x40 PUSH2 0x8B0 DUP8 DUP3 DUP9 ADD PUSH2 0x837 JUMP JUMPDEST SWAP2 POP POP SWAP3 SWAP6 SWAP2 SWAP5 POP SWAP3 POP JUMP JUMPDEST PUSH0 PUSH1 0x40 DUP3 ADD SWAP1 POP DUP2 DUP2 SUB PUSH0 DUP4 ADD MSTORE PUSH2 0x8D4 DUP2 DUP6 PUSH2 0x723 JUMP JUMPDEST SWAP1 POP PUSH2 0x8E3 PUSH1 0x20 DUP4 ADD DUP5 PUSH2 0x775 JUMP JUMPDEST SWAP4 SWAP3 POP POP POP JUMP JUMPDEST PUSH0 DUP1 PUSH0 PUSH1 0x40 DUP5 DUP7 SUB SLT ISZERO PUSH2 0x901 JUMPI PUSH2 0x900 PUSH2 0x685 JUMP JUMPDEST JUMPDEST PUSH0 PUSH2 0x90E DUP7 DUP3 DUP8 ADD PUSH2 0x6AC JUMP JUMPDEST SWAP4 POP POP PUSH1 0x20 DUP5 ADD CALLDATALOAD PUSH8 0xFFFFFFFFFFFFFFFF DUP2 GT ISZERO PUSH2 0x92F JUMPI PUSH2 0x92E PUSH2 0x689 JUMP JUMPDEST JUMPDEST PUSH2 0x93B DUP7 DUP3 DUP8 ADD PUSH2 0x7CC JUMP JUMPDEST SWAP3 POP SWAP3 POP POP SWAP3 POP SWAP3 POP SWAP3 JUMP JUMPDEST PUSH32 0x4E487B7100000000000000000000000000000000000000000000000000000000 PUSH0 MSTORE PUSH1 0x22 PUSH1 0x4 MSTORE PUSH1 0x24 PUSH0 REVERT JUMPDEST PUSH0 PUSH1 0x2 DUP3 DIV SWAP1 POP PUSH1 0x1 DUP3 AND DUP1 PUSH2 0x98B JUMPI PUSH1 0x7F DUP3 AND SWAP2 POP JUMPDEST PUSH1 0x20 DUP3 LT DUP2 SUB PUSH2 0x99E JUMPI PUSH2 0x99D PUSH2 0x947 JUMP JUMPDEST JUMPDEST POP SWAP2 SWAP1 POP JUMP JUMPDEST PUSH32 0x4E487B7100000000000000000000000000000000000000000000000000000000 PUSH0 MSTORE PUSH1 0x32 PUSH1 0x4 MSTORE PUSH1 0x24 PUSH0 REVERT JUMPDEST PUSH32 0x4E487B7100000000000000000000000000000000000000000000000000000000 PUSH0 MSTORE PUSH1 0x41 PUSH1 0x4 MSTORE PUSH1 0x24 PUSH0 REVERT JUMPDEST PUSH0 DUP2 SWAP1 POP DUP2 PUSH0 MSTORE PUSH1 0x20 PUSH0 KECCAK256 SWAP1 POP SWAP2 SWAP1 POP JUMP JUMPDEST PUSH0 PUSH1 0x20 PUSH1 0x1F DUP4 ADD DIV SWAP1 POP SWAP2 SWAP1 POP JUMP JUMPDEST PUSH0 DUP3 DUP3 SHL SWAP1 POP SWAP3 SWAP2 POP POP JUMP JUMPDEST PUSH0 PUSH1 0x8 DUP4 MUL PUSH2 0xA5A PUSH32 0xFFFFFFFFFFFFFFFFFFFFFFFFFFFFFFFFFFFFFFFFFFFFFFFFFFFFFFFFFFFFFFFF DUP3 PUSH2 0xA1F JUMP JUMPDEST PUSH2 0xA64 DUP7 DUP4 PUSH2 0xA1F JUMP JUMPDEST SWAP6 POP DUP1 NOT DUP5 AND SWAP4 POP DUP1 DUP7 AND DUP5 OR SWAP3 POP POP POP SWAP4 SWAP3 POP POP POP JUMP JUMPDEST PUSH0 DUP2 SWAP1 POP SWAP2 SWAP1 POP JUMP JUMPDEST PUSH0 PUSH2 0xA9F PUSH2 0xA9A PUSH2 0xA95 DUP5 PUSH2 0x68D JUMP JUMPDEST PUSH2 0xA7C JUMP JUMPDEST PUSH2 0x68D JUMP JUMPDEST SWAP1 POP SWAP2 SWAP1 POP JUMP JUMPDEST PUSH0 DUP2 SWAP1 POP SWAP2 SWAP1 POP JUMP JUMPDEST PUSH2 0xAB8 DUP4 PUSH2 0xA85 JUMP JUMPDEST PUSH2 0xACC PUSH2 0xAC4 DUP3 PUSH2 0xAA6 JUMP JUMPDEST DUP5 DUP5 SLOAD PUSH2 0xA2B JUMP JUMPDEST DUP3 SSTORE POP POP POP POP JUMP JUMPDEST PUSH0 SWAP1 JUMP JUMPDEST PUSH2 0xAE0 PUSH2 0xAD4 JUMP JUMPDEST PUSH2 0xAEB DUP2 DUP5 DUP5 PUSH2 0xAAF JUMP JUMPDEST POP POP POP JUMP JUMPDEST JUMPDEST DUP2 DUP2 LT ISZERO PUSH2 0xB0E JUMPI PUSH2 0xB03 PUSH0 DUP3 PUSH2 0xAD8 JUMP JUMPDEST PUSH1 0x1 DUP2 ADD SWAP1 POP PUSH2 0xAF1 JUMP JUMPDEST POP POP JUMP JUMPDEST PUSH1 0x1F DUP3 GT ISZERO PUSH2 0xB53 JUMPI PUSH2 0xB24 DUP2 PUSH2 0x9FE JUMP JUMPDEST PUSH2 0xB2D DUP5 PUSH2 0xA10 JUMP JUMPDEST DUP2 ADD PUSH1 0x20 DUP6 LT ISZERO PUSH2 0xB3C JUMPI DUP2 SWAP1 POP JUMPDEST PUSH2 0xB50 PUSH2 0xB48 DUP6 PUSH2 0xA10 JUMP JUMPDEST DUP4 ADD DUP3 PUSH2 0xAF0 JUMP JUMPDEST POP POP JUMPDEST POP POP POP JUMP JUMPDEST PUSH0 DUP3 DUP3 SHR SWAP1 POP SWAP3 SWAP2 POP POP JUMP JUMPDEST PUSH0 PUSH2 0xB73 PUSH0 NOT DUP5 PUSH1 0x8 MUL PUSH2 0xB58 JUMP JUMPDEST NOT DUP1 DUP4 AND SWAP2 POP POP SWAP3 SWAP2 POP POP JUMP JUMPDEST PUSH0 PUSH2 0xB8B DUP4 DUP4 PUSH2 0xB64 JUMP JUMPDEST SWAP2 POP DUP3 PUSH1 0x2 MUL DUP3 OR SWAP1 POP SWAP3 SWAP2 POP POP JUMP JUMPDEST PUSH2 0xBA4 DUP3 PUSH2 0x6EB JUMP JUMPDEST PUSH8 0xFFFFFFFFFFFFFFFF DUP2 GT ISZERO PUSH2 0xBBD JUMPI PUSH2 0xBBC PUSH2 0x9D1 JUMP JUMPDEST JUMPDEST PUSH2 0xBC7 DUP3 SLOAD PUSH2 0x974 JUMP JUMPDEST PUSH2 0xBD2 DUP3 DUP3 DUP6 PUSH2 0xB12 JUMP JUMPDEST PUSH0 PUSH1 0x20 SWAP1 POP PUSH1 0x1F DUP4 GT PUSH1 0x1 DUP2 EQ PUSH2 0xC03 JUMPI PUSH0 DUP5 ISZERO PUSH2 0xBF1 JUMPI DUP3 DUP8 ADD MLOAD SWAP1 POP JUMPDEST PUSH2 0xBFB DUP6 DUP3 PUSH2 0xB80 JUMP JUMPDEST DUP7 SSTORE POP PUSH2 0xC62 JUMP JUMPDEST PUSH1 0x1F NOT DUP5 AND PUSH2 0xC11 DUP7 PUSH2 0x9FE JUMP JUMPDEST PUSH0 JUMPDEST DUP3 DUP2 LT ISZERO PUSH2 0xC38 JUMPI DUP5 DUP10 ADD MLOAD DUP3 SSTORE PUSH1 0x1 DUP3 ADD SWAP2 POP PUSH1 0x20 DUP6 ADD SWAP5 POP PUSH1 0x20 DUP2 ADD SWAP1 POP PUSH2 0xC13 JUMP JUMPDEST DUP7 DUP4 LT ISZERO PUSH2 0xC55 JUMPI DUP5 DUP10 ADD MLOAD PUSH2 0xC51 PUSH1 0x1F DUP10 AND DUP3 PUSH2 0xB64 JUMP JUMPDEST DUP4 SSTORE POP JUMPDEST PUSH1 0x1 PUSH1 0x2 DUP9 MUL ADD DUP9 SSTORE POP POP POP JUMPDEST POP POP POP POP POP POP JUMP JUMPDEST PUSH0 DUP3 SWAP1 POP SWAP3 SWAP2 POP POP JUMP JUMPDEST PUSH2 0xC7E DUP4 DUP4 PUSH2 0xC6A JUMP JUMPDEST PUSH8 0xFFFFFFFFFFFFFFFF DUP2 GT ISZERO PUSH2 0xC97 JUMPI PUSH2 0xC96 PUSH2 0x9D1 JUMP JUMPDEST JUMPDEST PUSH2 0xCA1 DUP3 SLOAD PUSH2 0x974 JUMP JUMPDEST PUSH2 0xCAC DUP3 DUP3 DUP6 PUSH2 0xB12 JUMP JUMPDEST PUSH0 PUSH1 0x1F DUP4 GT PUSH1 0x1 DUP2 EQ PUSH2 0xCD9 JUMPI PUSH0 DUP5 ISZERO PUSH2 0xCC7 JUMPI DUP3 DUP8 ADD CALLDATALOAD SWAP1 POP JUMPDEST PUSH2 0xCD1 DUP6 DUP3 PUSH2 0xB80 JUMP JUMPDEST DUP7 SSTORE POP PUSH2 0xD38 JUMP JUMPDEST PUSH1 0x1F NOT DUP5 AND PUSH2 0xCE7 DUP7 PUSH2 0x9FE JUMP JUMPDEST PUSH0 JUMPDEST DUP3 DUP2 LT ISZERO PUSH2 0xD0E JUMPI DUP5 DUP10 ADD CALLDATALOAD DUP3 SSTORE PUSH1 0x1 DUP3 ADD SWAP2 POP PUSH1 0x20 DUP6 ADD SWAP5 POP PUSH1 0x20 DUP2 ADD SWAP1 POP PUSH2 0xCE9 JUMP JUMPDEST DUP7 DUP4 LT ISZERO PUSH2 0xD2B JUMPI DUP5 DUP10 ADD CALLDATALOAD PUSH2 0xD27 PUSH1 0x1F DUP10 AND DUP3 PUSH2 0xB64 JUMP JUMPDEST DUP4 SSTORE POP JUMPDEST PUSH1 0x1 PUSH1 0x2 DUP9 MUL ADD DUP9 SSTORE POP POP POP JUMPDEST POP POP POP POP POP POP POP JUMP INVALID LOG2 PUSH5 0x6970667358 0x22 SLT KECCAK256 PUSH4 0x3D345B3E JUMPDEST 0xF8 SLT PREVRANDAO SELFBALANCE EQ DUP9 0x25 KECCAK256 DUP16 0xC RETURN 0xEE SDIV NUMBER 0xAF 0xA8 DUP12 0x4E PUSH8 0x57EFBED980A05C64 PUSH20 0x6F6C634300081A00330000000000000000000000 "
				},
				"gasEstimates": {
					"creation": {
						"codeDepositCost": "689400",
						"executionCost": "719",
						"totalCost": "690119"
					},
					"external": {
						"get(uint256)": "infinite",
						"set(string,uint256,bool)": "infinite",
						"setName(uint256,string)": "infinite",
						"students(uint256)": "infinite",
						"todos(uint256)": "infinite"
					}
				},
				"methodIdentifiers": {
					"get(uint256)": "9507d39a",
					"set(string,uint256,bool)": "a6551d4b",
					"setName(uint256,string)": "fe55932a",
					"students(uint256)": "06ead22e",
					"todos(uint256)": "bc8bc2b4"
				}
			},
			"storageLayout": {
				"storage": [
					{
						"astId": 10,
						"contract": "solidity_by_example/017Stuct.sol:Todos",
						"label": "todos",
						"offset": 0,
						"slot": "0",
						"type": "t_array(t_struct(Todo)6_storage)dyn_storage"
					},
					{
						"astId": 21,
						"contract": "solidity_by_example/017Stuct.sol:Todos",
						"label": "students",
						"offset": 0,
						"slot": "1",
						"type": "t_array(t_struct(Student)17_storage)dyn_storage"
					}
				],
				"types": {
					"t_array(t_struct(Student)17_storage)dyn_storage": {
						"base": "t_struct(Student)17_storage",
						"encoding": "dynamic_array",
						"label": "struct Todos.Student[]",
						"numberOfBytes": "32"
					},
					"t_array(t_struct(Todo)6_storage)dyn_storage": {
						"base": "t_struct(Todo)6_storage",
						"encoding": "dynamic_array",
						"label": "struct Todos.Todo[]",
						"numberOfBytes": "32"
					},
					"t_bool": {
						"encoding": "inplace",
						"label": "bool",
						"numberOfBytes": "1"
					},
					"t_string_storage": {
						"encoding": "bytes",
						"label": "string",
						"numberOfBytes": "32"
					},
					"t_struct(Student)17_storage": {
						"encoding": "inplace",
						"label": "struct Todos.Student",
						"members": [
							{
								"astId": 12,
								"contract": "solidity_by_example/017Stuct.sol:Todos",
								"label": "name",
								"offset": 0,
								"slot": "0",
								"type": "t_string_storage"
							},
							{
								"astId": 14,
								"contract": "solidity_by_example/017Stuct.sol:Todos",
								"label": "grade",
								"offset": 0,
								"slot": "1",
								"type": "t_uint256"
							},
							{
								"astId": 16,
								"contract": "solidity_by_example/017Stuct.sol:Todos",
								"label": "isPass",
								"offset": 0,
								"slot": "2",
								"type": "t_bool"
							}
						],
						"numberOfBytes": "96"
					},
					"t_struct(Todo)6_storage": {
						"encoding": "inplace",
						"label": "struct Todos.Todo",
						"members": [
							{
								"astId": 3,
								"contract": "solidity_by_example/017Stuct.sol:Todos",
								"label": "text",
								"offset": 0,
								"slot": "0",
								"type": "t_string_storage"
							},
							{
								"astId": 5,
								"contract": "solidity_by_example/017Stuct.sol:Todos",
								"label": "completed",
								"offset": 0,
								"slot": "1",
								"type": "t_bool"
							}
						],
						"numberOfBytes": "64"
					},
					"t_uint256": {
						"encoding": "inplace",
						"label": "uint256",
						"numberOfBytes": "32"
					}
				}
			},
			"userdoc": {
				"kind": "user",
				"methods": {},
				"version": 1
			}
		}
	}
}