{
	"data": {
		"bytecode": {
			"linkReferences": {},
			"object": "608060405260145f553480156012575f80fd5b506102b8806100205f395ff3fe608060405234801561000f575f80fd5b506004361061004a575f3560e01c8063149835b91461004e5780632b813bc01461006a5780634e70b1dc1461007457806380d4b87214610092575b5f80fd5b6100686004803603810190610063919061018a565b6100ae565b005b6100726100f4565b005b61007c610107565b60405161008991906101c4565b60405180910390f35b6100ac60048036038101906100a7919061018a565b61010c565b005b600a81106100f1576040517f08c379a00000000000000000000000000000000000000000000000000000000081526004016100e890610237565b60405180910390fd5b50565b5f80541461010557610104610255565b5b565b5f5481565b600a811015610150576040517f08c379a000000000000000000000000000000000000000000000000000000000815260040161014790610237565b60405180910390fd5b50565b5f80fd5b5f819050919050565b61016981610157565b8114610173575f80fd5b50565b5f8135905061018481610160565b92915050565b5f6020828403121561019f5761019e610153565b5b5f6101ac84828501610176565b91505092915050565b6101be81610157565b82525050565b5f6020820190506101d75f8301846101b5565b92915050565b5f82825260208201905092915050565b7f69206d7573742067726561746564207468616e2054656e2100000000000000005f82015250565b5f6102216018836101dd565b915061022c826101ed565b602082019050919050565b5f6020820190508181035f83015261024e81610215565b9050919050565b7f4e487b71000000000000000000000000000000000000000000000000000000005f52600160045260245ffdfea264697066735822122079ce94898ccbab24a13adadc2e20ff1c2a087d0a72ace93c0836c4bbbecda7b064736f6c634300081a0033",
			"opcodes": "PUSH1 0x80 PUSH1 0x40 MSTORE PUSH1 0x14 PUSH0 SSTORE CALLVALUE DUP1 ISZERO PUSH1 0x12 JUMPI PUSH0 DUP1 REVERT JUMPDEST POP PUSH2 0x2B8 DUP1 PUSH2 0x20 PUSH0 CODECOPY PUSH0 RETURN INVALID PUSH1 0x80 PUSH1 0x40 MSTORE CALLVALUE DUP1 ISZERO PUSH2 0xF JUMPI PUSH0 DUP1 REVERT JUMPDEST POP PUSH1 0x4 CALLDATASIZE LT PUSH2 0x4A JUMPI PUSH0 CALLDATALOAD PUSH1 0xE0 SHR DUP1 PUSH4 0x149835B9 EQ PUSH2 0x4E JUMPI DUP1 PUSH4 0x2B813BC0 EQ PUSH2 0x6A JUMPI DUP1 PUSH4 0x4E70B1DC EQ PUSH2 0x74 JUMPI DUP1 PUSH4 0x80D4B872 EQ PUSH2 0x92 JUMPI JUMPDEST PUSH0 DUP1 REVERT JUMPDEST PUSH2 0x68 PUSH1 0x4 DUP1 CALLDATASIZE SUB DUP2 ADD SWAP1 PUSH2 0x63 SWAP2 SWAP1 PUSH2 0x18A JUMP JUMPDEST PUSH2 0xAE JUMP JUMPDEST STOP JUMPDEST PUSH2 0x72 PUSH2 0xF4 JUMP JUMPDEST STOP JUMPDEST PUSH2 0x7C PUSH2 0x107 JUMP JUMPDEST PUSH1 0x40 MLOAD PUSH2 0x89 SWAP2 SWAP1 PUSH2 0x1C4 JUMP JUMPDEST PUSH1 0x40 MLOAD DUP1 SWAP2 SUB SWAP1 RETURN JUMPDEST PUSH2 0xAC PUSH1 0x4 DUP1 CALLDATASIZE SUB DUP2 ADD SWAP1 PUSH2 0xA7 SWAP2 SWAP1 PUSH2 0x18A JUMP JUMPDEST PUSH2 0x10C JUMP JUMPDEST STOP JUMPDEST PUSH1 0xA DUP2 LT PUSH2 0xF1 JUMPI PUSH1 0x40 MLOAD PUSH32 0x8C379A000000000000000000000000000000000000000000000000000000000 DUP2 MSTORE PUSH1 0x4 ADD PUSH2 0xE8 SWAP1 PUSH2 0x237 JUMP JUMPDEST PUSH1 0x40 MLOAD DUP1 SWAP2 SUB SWAP1 REVERT JUMPDEST POP JUMP JUMPDEST PUSH0 DUP1 SLOAD EQ PUSH2 0x105 JUMPI PUSH2 0x104 PUSH2 0x255 JUMP JUMPDEST JUMPDEST JUMP JUMPDEST PUSH0 SLOAD DUP2 JUMP JUMPDEST PUSH1 0xA DUP2 LT ISZERO PUSH2 0x150 JUMPI PUSH1 0x40 MLOAD PUSH32 0x8C379A000000000000000000000000000000000000000000000000000000000 DUP2 MSTORE PUSH1 0x4 ADD PUSH2 0x147 SWAP1 PUSH2 0x237 JUMP JUMPDEST PUSH1 0x40 MLOAD DUP1 SWAP2 SUB SWAP1 REVERT JUMPDEST POP JUMP JUMPDEST PUSH0 DUP1 REVERT JUMPDEST PUSH0 DUP2 SWAP1 POP SWAP2 SWAP1 POP JUMP JUMPDEST PUSH2 0x169 DUP2 PUSH2 0x157 JUMP JUMPDEST DUP2 EQ PUSH2 0x173 JUMPI PUSH0 DUP1 REVERT JUMPDEST POP JUMP JUMPDEST PUSH0 DUP2 CALLDATALOAD SWAP1 POP PUSH2 0x184 DUP2 PUSH2 0x160 JUMP JUMPDEST SWAP3 SWAP2 POP POP JUMP JUMPDEST PUSH0 PUSH1 0x20 DUP3 DUP5 SUB SLT ISZERO PUSH2 0x19F JUMPI PUSH2 0x19E PUSH2 0x153 JUMP JUMPDEST JUMPDEST PUSH0 PUSH2 0x1AC DUP5 DUP3 DUP6 ADD PUSH2 0x176 JUMP JUMPDEST SWAP2 POP POP SWAP3 SWAP2 POP POP JUMP JUMPDEST PUSH2 0x1BE DUP2 PUSH2 0x157 JUMP JUMPDEST DUP3 MSTORE POP POP JUMP JUMPDEST PUSH0 PUSH1 0x20 DUP3 ADD SWAP1 POP PUSH2 0x1D7 PUSH0 DUP4 ADD DUP5 PUSH2 0x1B5 JUMP JUMPDEST SWAP3 SWAP2 POP POP JUMP JUMPDEST PUSH0 DUP3 DUP3 MSTORE PUSH1 0x20 DUP3 ADD SWAP1 POP SWAP3 SWAP2 POP POP JUMP JUMPDEST PUSH32 0x69206D7573742067726561746564207468616E2054656E210000000000000000 PUSH0 DUP3 ADD MSTORE POP JUMP JUMPDEST PUSH0 PUSH2 0x221 PUSH1 0x18 DUP4 PUSH2 0x1DD JUMP JUMPDEST SWAP2 POP PUSH2 0x22C DUP3 PUSH2 0x1ED JUMP JUMPDEST PUSH1 0x20 DUP3 ADD SWAP1 POP SWAP2 SWAP1 POP JUMP JUMPDEST PUSH0 PUSH1 0x20 DUP3 ADD SWAP1 POP DUP2 DUP2 SUB PUSH0 DUP4 ADD MSTORE PUSH2 0x24E DUP2 PUSH2 0x215 JUMP JUMPDEST SWAP1 POP SWAP2 SWAP1 POP JUMP JUMPDEST PUSH32 0x4E487B7100000000000000000000000000000000000000000000000000000000 PUSH0 MSTORE PUSH1 0x1 PUSH1 0x4 MSTORE PUSH1 0x24 PUSH0 REVERT INVALID LOG2 PUSH5 0x6970667358 0x22 SLT KECCAK256 PUSH26 0xCE94898CCBAB24A13ADADC2E20FF1C2A087D0A72ACE93C0836C4 0xBB 0xBE 0xCD 0xA7 0xB0 PUSH5 0x736F6C6343 STOP ADDMOD BYTE STOP CALLER "
		},
		"gasEstimates": {
			"creation": {
				"codeDepositCost": "139200",
				"executionCost": "22286",
				"totalCost": "161486"
			},
			"external": {
				"num()": "2446",
				"testAssert()": "2292",
				"testError(uint256)": "684",
				"testErrorRevert(uint256)": "753"
			}
		},
		"methodIdentifiers": {
			"num()": "4e70b1dc",
			"testAssert()": "2b813bc0",
			"testError(uint256)": "149835b9",
			"testErrorRevert(uint256)": "80d4b872"
		}
	},
	"abi": [
		{
			"inputs": [],
			"name": "num",
			"outputs": [
				{
					"internalType": "uint256",
					"name": "",
					"type": "uint256"
				}
			],
			"stateMutability": "view",
			"type": "function"
		},
		{
			"inputs": [],
			"name": "testAssert",
			"outputs": [],
			"stateMutability": "view",
			"type": "function"
		},
		{
			"inputs": [
				{
					"internalType": "uint256",
					"name": "i",
					"type": "uint256"
				}
			],
			"name": "testError",
			"outputs": [],
			"stateMutability": "pure",
			"type": "function"
		},
		{
			"inputs": [
				{
					"internalType": "uint256",
					"name": "i",
					"type": "uint256"
				}
			],
			"name": "testErrorRevert",
			"outputs": [],
			"stateMutability": "pure",
			"type": "function"
		}
	]
}