{
	"data": {
		"bytecode": {
			"linkReferences": {},
			"object": "6080604052348015600e575f80fd5b5061023e8061001c5f395ff3fe608060405234801561000f575f80fd5b506004361061003f575f3560e01c80631f7524181461004357806353c5ac8614610061578063fc0e60081461007f575b5f80fd5b61004b61009d565b6040516100589190610148565b60405180910390f35b6100696100cd565b6040516100769190610148565b60405180910390f35b6100876100f8565b6040516100949190610148565b60405180910390f35b5f805f5b60328110156100c55780826100b6919061018e565b915080806001019150506100a1565b508091505090565b5f805f5b600a8110156100f05780806100e5906101c1565b9150508091506100d1565b819250505090565b5f805f5b600a81101561012857600381031561011b576005810315610128578091505b80806001019150506100fc565b508091505090565b5f819050919050565b61014281610130565b82525050565b5f60208201905061015b5f830184610139565b92915050565b7f4e487b71000000000000000000000000000000000000000000000000000000005f52601160045260245ffd5b5f61019882610130565b91506101a383610130565b92508282019050808211156101bb576101ba610161565b5b92915050565b5f6101cb82610130565b91507fffffffffffffffffffffffffffffffffffffffffffffffffffffffffffffffff82036101fd576101fc610161565b5b60018201905091905056fea2646970667358221220af34bd5b88b003be2605c6db89cfb643a7a51a2b86ac6864714f4ad8cfa380e264736f6c634300081a0033",
			"opcodes": "PUSH1 0x80 PUSH1 0x40 MSTORE CALLVALUE DUP1 ISZERO PUSH1 0xE JUMPI PUSH0 DUP1 REVERT JUMPDEST POP PUSH2 0x23E DUP1 PUSH2 0x1C PUSH0 CODECOPY PUSH0 RETURN INVALID PUSH1 0x80 PUSH1 0x40 MSTORE CALLVALUE DUP1 ISZERO PUSH2 0xF JUMPI PUSH0 DUP1 REVERT JUMPDEST POP PUSH1 0x4 CALLDATASIZE LT PUSH2 0x3F JUMPI PUSH0 CALLDATALOAD PUSH1 0xE0 SHR DUP1 PUSH4 0x1F752418 EQ PUSH2 0x43 JUMPI DUP1 PUSH4 0x53C5AC86 EQ PUSH2 0x61 JUMPI DUP1 PUSH4 0xFC0E6008 EQ PUSH2 0x7F JUMPI JUMPDEST PUSH0 DUP1 REVERT JUMPDEST PUSH2 0x4B PUSH2 0x9D JUMP JUMPDEST PUSH1 0x40 MLOAD PUSH2 0x58 SWAP2 SWAP1 PUSH2 0x148 JUMP JUMPDEST PUSH1 0x40 MLOAD DUP1 SWAP2 SUB SWAP1 RETURN JUMPDEST PUSH2 0x69 PUSH2 0xCD JUMP JUMPDEST PUSH1 0x40 MLOAD PUSH2 0x76 SWAP2 SWAP1 PUSH2 0x148 JUMP JUMPDEST PUSH1 0x40 MLOAD DUP1 SWAP2 SUB SWAP1 RETURN JUMPDEST PUSH2 0x87 PUSH2 0xF8 JUMP JUMPDEST PUSH1 0x40 MLOAD PUSH2 0x94 SWAP2 SWAP1 PUSH2 0x148 JUMP JUMPDEST PUSH1 0x40 MLOAD DUP1 SWAP2 SUB SWAP1 RETURN JUMPDEST PUSH0 DUP1 PUSH0 JUMPDEST PUSH1 0x32 DUP2 LT ISZERO PUSH2 0xC5 JUMPI DUP1 DUP3 PUSH2 0xB6 SWAP2 SWAP1 PUSH2 0x18E JUMP JUMPDEST SWAP2 POP DUP1 DUP1 PUSH1 0x1 ADD SWAP2 POP POP PUSH2 0xA1 JUMP JUMPDEST POP DUP1 SWAP2 POP POP SWAP1 JUMP JUMPDEST PUSH0 DUP1 PUSH0 JUMPDEST PUSH1 0xA DUP2 LT ISZERO PUSH2 0xF0 JUMPI DUP1 DUP1 PUSH2 0xE5 SWAP1 PUSH2 0x1C1 JUMP JUMPDEST SWAP2 POP POP DUP1 SWAP2 POP PUSH2 0xD1 JUMP JUMPDEST DUP2 SWAP3 POP POP POP SWAP1 JUMP JUMPDEST PUSH0 DUP1 PUSH0 JUMPDEST PUSH1 0xA DUP2 LT ISZERO PUSH2 0x128 JUMPI PUSH1 0x3 DUP2 SUB ISZERO PUSH2 0x11B JUMPI PUSH1 0x5 DUP2 SUB ISZERO PUSH2 0x128 JUMPI DUP1 SWAP2 POP JUMPDEST DUP1 DUP1 PUSH1 0x1 ADD SWAP2 POP POP PUSH2 0xFC JUMP JUMPDEST POP DUP1 SWAP2 POP POP SWAP1 JUMP JUMPDEST PUSH0 DUP2 SWAP1 POP SWAP2 SWAP1 POP JUMP JUMPDEST PUSH2 0x142 DUP2 PUSH2 0x130 JUMP JUMPDEST DUP3 MSTORE POP POP JUMP JUMPDEST PUSH0 PUSH1 0x20 DUP3 ADD SWAP1 POP PUSH2 0x15B PUSH0 DUP4 ADD DUP5 PUSH2 0x139 JUMP JUMPDEST SWAP3 SWAP2 POP POP JUMP JUMPDEST PUSH32 0x4E487B7100000000000000000000000000000000000000000000000000000000 PUSH0 MSTORE PUSH1 0x11 PUSH1 0x4 MSTORE PUSH1 0x24 PUSH0 REVERT JUMPDEST PUSH0 PUSH2 0x198 DUP3 PUSH2 0x130 JUMP JUMPDEST SWAP2 POP PUSH2 0x1A3 DUP4 PUSH2 0x130 JUMP JUMPDEST SWAP3 POP DUP3 DUP3 ADD SWAP1 POP DUP1 DUP3 GT ISZERO PUSH2 0x1BB JUMPI PUSH2 0x1BA PUSH2 0x161 JUMP JUMPDEST JUMPDEST SWAP3 SWAP2 POP POP JUMP JUMPDEST PUSH0 PUSH2 0x1CB DUP3 PUSH2 0x130 JUMP JUMPDEST SWAP2 POP PUSH32 0xFFFFFFFFFFFFFFFFFFFFFFFFFFFFFFFFFFFFFFFFFFFFFFFFFFFFFFFFFFFFFFFF DUP3 SUB PUSH2 0x1FD JUMPI PUSH2 0x1FC PUSH2 0x161 JUMP JUMPDEST JUMPDEST PUSH1 0x1 DUP3 ADD SWAP1 POP SWAP2 SWAP1 POP JUMP INVALID LOG2 PUSH5 0x6970667358 0x22 SLT KECCAK256 0xAF CALLVALUE 0xBD JUMPDEST DUP9 0xB0 SUB 0xBE 0x26 SDIV 0xC6 0xDB DUP10 0xCF 0xB6 NUMBER 0xA7 0xA5 BYTE 0x2B DUP7 0xAC PUSH9 0x64714F4AD8CFA380E2 PUSH5 0x736F6C6343 STOP ADDMOD BYTE STOP CALLER "
		},
		"gasEstimates": {
			"creation": {
				"codeDepositCost": "114800",
				"executionCost": "157",
				"totalCost": "114957"
			},
			"external": {
				"addTotal()": "infinite",
				"forLoop()": "infinite",
				"whileLoopTest()": "infinite"
			}
		},
		"methodIdentifiers": {
			"addTotal()": "1f752418",
			"forLoop()": "fc0e6008",
			"whileLoopTest()": "53c5ac86"
		}
	},
	"abi": [
		{
			"inputs": [],
			"name": "addTotal",
			"outputs": [
				{
					"internalType": "uint256",
					"name": "",
					"type": "uint256"
				}
			],
			"stateMutability": "pure",
			"type": "function"
		},
		{
			"inputs": [],
			"name": "forLoop",
			"outputs": [
				{
					"internalType": "uint256",
					"name": "",
					"type": "uint256"
				}
			],
			"stateMutability": "pure",
			"type": "function"
		},
		{
			"inputs": [],
			"name": "whileLoopTest",
			"outputs": [
				{
					"internalType": "uint256",
					"name": "",
					"type": "uint256"
				}
			],
			"stateMutability": "pure",
			"type": "function"
		}
	]
}