{
	"data": {
		"bytecode": {
			"linkReferences": {},
			"object": "608060405260585f553480156012575f80fd5b50610664806100205f395ff3fe608060405234801561000f575f80fd5b5060043610610086575f3560e01c80637560ca37116100595780637560ca371461011657806386887544146101365780639336a79a14610156578063fb8cbced1461017657610086565b80633f7f3db61461008a5780634e70b1dc146100ac578063620f98b1146100ca57806371e5ee5f146100e6575b5f80fd5b610092610194565b6040516100a39594939291906102bb565b60405180910390f35b6100b46101d2565b6040516100c1919061030c565b60405180910390f35b6100e460048036038101906100df91906104b0565b6101d7565b005b61010060048036038101906100fb91906104f7565b6101da565b60405161010d919061030c565b60405180910390f35b61011e6101fa565b60405161012d93929190610522565b60405180910390f35b61013e61020d565b60405161014d93929190610522565b60405180910390f35b61015e610220565b60405161016d93929190610522565b60405180910390f35b61017e610233565b60405161018b919061060e565b60405180910390f35b5f805f805f805f806101a461020d565b9250925092505f80600460056006925050915084848484849950995099509950995050505050509091929394565b5f5481565b50565b600181815481106101e9575f80fd5b905f5260205f20015f915090505481565b5f805f6001805f54925092509250909192565b5f805f6001806016925092509250909192565b5f805f600192505f91505f549050909192565b6060600180548060200260200160405190810160405280929190818152602001828054801561027f57602002820191905f5260205f20905b81548152602001906001019080831161026b575b5050505050905090565b5f819050919050565b61029b81610289565b82525050565b5f8115159050919050565b6102b5816102a1565b82525050565b5f60a0820190506102ce5f830188610292565b6102db60208301876102ac565b6102e86040830186610292565b6102f56060830185610292565b6103026080830184610292565b9695505050505050565b5f60208201905061031f5f830184610292565b92915050565b5f604051905090565b5f80fd5b5f80fd5b5f80fd5b5f601f19601f8301169050919050565b7f4e487b71000000000000000000000000000000000000000000000000000000005f52604160045260245ffd5b6103808261033a565b810181811067ffffffffffffffff8211171561039f5761039e61034a565b5b80604052505050565b5f6103b1610325565b90506103bd8282610377565b919050565b5f67ffffffffffffffff8211156103dc576103db61034a565b5b602082029050602081019050919050565b5f80fd5b6103fa81610289565b8114610404575f80fd5b50565b5f81359050610415816103f1565b92915050565b5f61042d610428846103c2565b6103a8565b905080838252602082019050602084028301858111156104505761044f6103ed565b5b835b8181101561047957806104658882610407565b845260208401935050602081019050610452565b5050509392505050565b5f82601f83011261049757610496610336565b5b81356104a784826020860161041b565b91505092915050565b5f602082840312156104c5576104c461032e565b5b5f82013567ffffffffffffffff8111156104e2576104e1610332565b5b6104ee84828501610483565b91505092915050565b5f6020828403121561050c5761050b61032e565b5b5f61051984828501610407565b91505092915050565b5f6060820190506105355f830186610292565b61054260208301856102ac565b61054f6040830184610292565b949350505050565b5f81519050919050565b5f82825260208201905092915050565b5f819050602082019050919050565b61058981610289565b82525050565b5f61059a8383610580565b60208301905092915050565b5f602082019050919050565b5f6105bc82610557565b6105c68185610561565b93506105d183610571565b805f5b838110156106015781516105e8888261058f565b97506105f3836105a6565b9250506001810190506105d4565b5085935050505092915050565b5f6020820190508181035f83015261062681846105b2565b90509291505056fea26469706673582212206acd9b958808ff7d7da34b072d480557e3c87c4ab612202cc78556e3669d1a5664736f6c634300081a0033",
			"opcodes": "PUSH1 0x80 PUSH1 0x40 MSTORE PUSH1 0x58 PUSH0 SSTORE CALLVALUE DUP1 ISZERO PUSH1 0x12 JUMPI PUSH0 DUP1 REVERT JUMPDEST POP PUSH2 0x664 DUP1 PUSH2 0x20 PUSH0 CODECOPY PUSH0 RETURN INVALID PUSH1 0x80 PUSH1 0x40 MSTORE CALLVALUE DUP1 ISZERO PUSH2 0xF JUMPI PUSH0 DUP1 REVERT JUMPDEST POP PUSH1 0x4 CALLDATASIZE LT PUSH2 0x86 JUMPI PUSH0 CALLDATALOAD PUSH1 0xE0 SHR DUP1 PUSH4 0x7560CA37 GT PUSH2 0x59 JUMPI DUP1 PUSH4 0x7560CA37 EQ PUSH2 0x116 JUMPI DUP1 PUSH4 0x86887544 EQ PUSH2 0x136 JUMPI DUP1 PUSH4 0x9336A79A EQ PUSH2 0x156 JUMPI DUP1 PUSH4 0xFB8CBCED EQ PUSH2 0x176 JUMPI PUSH2 0x86 JUMP JUMPDEST DUP1 PUSH4 0x3F7F3DB6 EQ PUSH2 0x8A JUMPI DUP1 PUSH4 0x4E70B1DC EQ PUSH2 0xAC JUMPI DUP1 PUSH4 0x620F98B1 EQ PUSH2 0xCA JUMPI DUP1 PUSH4 0x71E5EE5F EQ PUSH2 0xE6 JUMPI JUMPDEST PUSH0 DUP1 REVERT JUMPDEST PUSH2 0x92 PUSH2 0x194 JUMP JUMPDEST PUSH1 0x40 MLOAD PUSH2 0xA3 SWAP6 SWAP5 SWAP4 SWAP3 SWAP2 SWAP1 PUSH2 0x2BB JUMP JUMPDEST PUSH1 0x40 MLOAD DUP1 SWAP2 SUB SWAP1 RETURN JUMPDEST PUSH2 0xB4 PUSH2 0x1D2 JUMP JUMPDEST PUSH1 0x40 MLOAD PUSH2 0xC1 SWAP2 SWAP1 PUSH2 0x30C JUMP JUMPDEST PUSH1 0x40 MLOAD DUP1 SWAP2 SUB SWAP1 RETURN JUMPDEST PUSH2 0xE4 PUSH1 0x4 DUP1 CALLDATASIZE SUB DUP2 ADD SWAP1 PUSH2 0xDF SWAP2 SWAP1 PUSH2 0x4B0 JUMP JUMPDEST PUSH2 0x1D7 JUMP JUMPDEST STOP JUMPDEST PUSH2 0x100 PUSH1 0x4 DUP1 CALLDATASIZE SUB DUP2 ADD SWAP1 PUSH2 0xFB SWAP2 SWAP1 PUSH2 0x4F7 JUMP JUMPDEST PUSH2 0x1DA JUMP JUMPDEST PUSH1 0x40 MLOAD PUSH2 0x10D SWAP2 SWAP1 PUSH2 0x30C JUMP JUMPDEST PUSH1 0x40 MLOAD DUP1 SWAP2 SUB SWAP1 RETURN JUMPDEST PUSH2 0x11E PUSH2 0x1FA JUMP JUMPDEST PUSH1 0x40 MLOAD PUSH2 0x12D SWAP4 SWAP3 SWAP2 SWAP1 PUSH2 0x522 JUMP JUMPDEST PUSH1 0x40 MLOAD DUP1 SWAP2 SUB SWAP1 RETURN JUMPDEST PUSH2 0x13E PUSH2 0x20D JUMP JUMPDEST PUSH1 0x40 MLOAD PUSH2 0x14D SWAP4 SWAP3 SWAP2 SWAP1 PUSH2 0x522 JUMP JUMPDEST PUSH1 0x40 MLOAD DUP1 SWAP2 SUB SWAP1 RETURN JUMPDEST PUSH2 0x15E PUSH2 0x220 JUMP JUMPDEST PUSH1 0x40 MLOAD PUSH2 0x16D SWAP4 SWAP3 SWAP2 SWAP1 PUSH2 0x522 JUMP JUMPDEST PUSH1 0x40 MLOAD DUP1 SWAP2 SUB SWAP1 RETURN JUMPDEST PUSH2 0x17E PUSH2 0x233 JUMP JUMPDEST PUSH1 0x40 MLOAD PUSH2 0x18B SWAP2 SWAP1 PUSH2 0x60E JUMP JUMPDEST PUSH1 0x40 MLOAD DUP1 SWAP2 SUB SWAP1 RETURN JUMPDEST PUSH0 DUP1 PUSH0 DUP1 PUSH0 DUP1 PUSH0 DUP1 PUSH2 0x1A4 PUSH2 0x20D JUMP JUMPDEST SWAP3 POP SWAP3 POP SWAP3 POP PUSH0 DUP1 PUSH1 0x4 PUSH1 0x5 PUSH1 0x6 SWAP3 POP POP SWAP2 POP DUP5 DUP5 DUP5 DUP5 DUP5 SWAP10 POP SWAP10 POP SWAP10 POP SWAP10 POP SWAP10 POP POP POP POP POP POP SWAP1 SWAP2 SWAP3 SWAP4 SWAP5 JUMP JUMPDEST PUSH0 SLOAD DUP2 JUMP JUMPDEST POP JUMP JUMPDEST PUSH1 0x1 DUP2 DUP2 SLOAD DUP2 LT PUSH2 0x1E9 JUMPI PUSH0 DUP1 REVERT JUMPDEST SWAP1 PUSH0 MSTORE PUSH1 0x20 PUSH0 KECCAK256 ADD PUSH0 SWAP2 POP SWAP1 POP SLOAD DUP2 JUMP JUMPDEST PUSH0 DUP1 PUSH0 PUSH1 0x1 DUP1 PUSH0 SLOAD SWAP3 POP SWAP3 POP SWAP3 POP SWAP1 SWAP2 SWAP3 JUMP JUMPDEST PUSH0 DUP1 PUSH0 PUSH1 0x1 DUP1 PUSH1 0x16 SWAP3 POP SWAP3 POP SWAP3 POP SWAP1 SWAP2 SWAP3 JUMP JUMPDEST PUSH0 DUP1 PUSH0 PUSH1 0x1 SWAP3 POP PUSH0 SWAP2 POP PUSH0 SLOAD SWAP1 POP SWAP1 SWAP2 SWAP3 JUMP JUMPDEST PUSH1 0x60 PUSH1 0x1 DUP1 SLOAD DUP1 PUSH1 0x20 MUL PUSH1 0x20 ADD PUSH1 0x40 MLOAD SWAP1 DUP2 ADD PUSH1 0x40 MSTORE DUP1 SWAP3 SWAP2 SWAP1 DUP2 DUP2 MSTORE PUSH1 0x20 ADD DUP3 DUP1 SLOAD DUP1 ISZERO PUSH2 0x27F JUMPI PUSH1 0x20 MUL DUP3 ADD SWAP2 SWAP1 PUSH0 MSTORE PUSH1 0x20 PUSH0 KECCAK256 SWAP1 JUMPDEST DUP2 SLOAD DUP2 MSTORE PUSH1 0x20 ADD SWAP1 PUSH1 0x1 ADD SWAP1 DUP1 DUP4 GT PUSH2 0x26B JUMPI JUMPDEST POP POP POP POP POP SWAP1 POP SWAP1 JUMP JUMPDEST PUSH0 DUP2 SWAP1 POP SWAP2 SWAP1 POP JUMP JUMPDEST PUSH2 0x29B DUP2 PUSH2 0x289 JUMP JUMPDEST DUP3 MSTORE POP POP JUMP JUMPDEST PUSH0 DUP2 ISZERO ISZERO SWAP1 POP SWAP2 SWAP1 POP JUMP JUMPDEST PUSH2 0x2B5 DUP2 PUSH2 0x2A1 JUMP JUMPDEST DUP3 MSTORE POP POP JUMP JUMPDEST PUSH0 PUSH1 0xA0 DUP3 ADD SWAP1 POP PUSH2 0x2CE PUSH0 DUP4 ADD DUP9 PUSH2 0x292 JUMP JUMPDEST PUSH2 0x2DB PUSH1 0x20 DUP4 ADD DUP8 PUSH2 0x2AC JUMP JUMPDEST PUSH2 0x2E8 PUSH1 0x40 DUP4 ADD DUP7 PUSH2 0x292 JUMP JUMPDEST PUSH2 0x2F5 PUSH1 0x60 DUP4 ADD DUP6 PUSH2 0x292 JUMP JUMPDEST PUSH2 0x302 PUSH1 0x80 DUP4 ADD DUP5 PUSH2 0x292 JUMP JUMPDEST SWAP7 SWAP6 POP POP POP POP POP POP JUMP JUMPDEST PUSH0 PUSH1 0x20 DUP3 ADD SWAP1 POP PUSH2 0x31F PUSH0 DUP4 ADD DUP5 PUSH2 0x292 JUMP JUMPDEST SWAP3 SWAP2 POP POP JUMP JUMPDEST PUSH0 PUSH1 0x40 MLOAD SWAP1 POP SWAP1 JUMP JUMPDEST PUSH0 DUP1 REVERT JUMPDEST PUSH0 DUP1 REVERT JUMPDEST PUSH0 DUP1 REVERT JUMPDEST PUSH0 PUSH1 0x1F NOT PUSH1 0x1F DUP4 ADD AND SWAP1 POP SWAP2 SWAP1 POP JUMP JUMPDEST PUSH32 0x4E487B7100000000000000000000000000000000000000000000000000000000 PUSH0 MSTORE PUSH1 0x41 PUSH1 0x4 MSTORE PUSH1 0x24 PUSH0 REVERT JUMPDEST PUSH2 0x380 DUP3 PUSH2 0x33A JUMP JUMPDEST DUP2 ADD DUP2 DUP2 LT PUSH8 0xFFFFFFFFFFFFFFFF DUP3 GT OR ISZERO PUSH2 0x39F JUMPI PUSH2 0x39E PUSH2 0x34A JUMP JUMPDEST JUMPDEST DUP1 PUSH1 0x40 MSTORE POP POP POP JUMP JUMPDEST PUSH0 PUSH2 0x3B1 PUSH2 0x325 JUMP JUMPDEST SWAP1 POP PUSH2 0x3BD DUP3 DUP3 PUSH2 0x377 JUMP JUMPDEST SWAP2 SWAP1 POP JUMP JUMPDEST PUSH0 PUSH8 0xFFFFFFFFFFFFFFFF DUP3 GT ISZERO PUSH2 0x3DC JUMPI PUSH2 0x3DB PUSH2 0x34A JUMP JUMPDEST JUMPDEST PUSH1 0x20 DUP3 MUL SWAP1 POP PUSH1 0x20 DUP2 ADD SWAP1 POP SWAP2 SWAP1 POP JUMP JUMPDEST PUSH0 DUP1 REVERT JUMPDEST PUSH2 0x3FA DUP2 PUSH2 0x289 JUMP JUMPDEST DUP2 EQ PUSH2 0x404 JUMPI PUSH0 DUP1 REVERT JUMPDEST POP JUMP JUMPDEST PUSH0 DUP2 CALLDATALOAD SWAP1 POP PUSH2 0x415 DUP2 PUSH2 0x3F1 JUMP JUMPDEST SWAP3 SWAP2 POP POP JUMP JUMPDEST PUSH0 PUSH2 0x42D PUSH2 0x428 DUP5 PUSH2 0x3C2 JUMP JUMPDEST PUSH2 0x3A8 JUMP JUMPDEST SWAP1 POP DUP1 DUP4 DUP3 MSTORE PUSH1 0x20 DUP3 ADD SWAP1 POP PUSH1 0x20 DUP5 MUL DUP4 ADD DUP6 DUP2 GT ISZERO PUSH2 0x450 JUMPI PUSH2 0x44F PUSH2 0x3ED JUMP JUMPDEST JUMPDEST DUP4 JUMPDEST DUP2 DUP2 LT ISZERO PUSH2 0x479 JUMPI DUP1 PUSH2 0x465 DUP9 DUP3 PUSH2 0x407 JUMP JUMPDEST DUP5 MSTORE PUSH1 0x20 DUP5 ADD SWAP4 POP POP PUSH1 0x20 DUP2 ADD SWAP1 POP PUSH2 0x452 JUMP JUMPDEST POP POP POP SWAP4 SWAP3 POP POP POP JUMP JUMPDEST PUSH0 DUP3 PUSH1 0x1F DUP4 ADD SLT PUSH2 0x497 JUMPI PUSH2 0x496 PUSH2 0x336 JUMP JUMPDEST JUMPDEST DUP2 CALLDATALOAD PUSH2 0x4A7 DUP5 DUP3 PUSH1 0x20 DUP7 ADD PUSH2 0x41B JUMP JUMPDEST SWAP2 POP POP SWAP3 SWAP2 POP POP JUMP JUMPDEST PUSH0 PUSH1 0x20 DUP3 DUP5 SUB SLT ISZERO PUSH2 0x4C5 JUMPI PUSH2 0x4C4 PUSH2 0x32E JUMP JUMPDEST JUMPDEST PUSH0 DUP3 ADD CALLDATALOAD PUSH8 0xFFFFFFFFFFFFFFFF DUP2 GT ISZERO PUSH2 0x4E2 JUMPI PUSH2 0x4E1 PUSH2 0x332 JUMP JUMPDEST JUMPDEST PUSH2 0x4EE DUP5 DUP3 DUP6 ADD PUSH2 0x483 JUMP JUMPDEST SWAP2 POP POP SWAP3 SWAP2 POP POP JUMP JUMPDEST PUSH0 PUSH1 0x20 DUP3 DUP5 SUB SLT ISZERO PUSH2 0x50C JUMPI PUSH2 0x50B PUSH2 0x32E JUMP JUMPDEST JUMPDEST PUSH0 PUSH2 0x519 DUP5 DUP3 DUP6 ADD PUSH2 0x407 JUMP JUMPDEST SWAP2 POP POP SWAP3 SWAP2 POP POP JUMP JUMPDEST PUSH0 PUSH1 0x60 DUP3 ADD SWAP1 POP PUSH2 0x535 PUSH0 DUP4 ADD DUP7 PUSH2 0x292 JUMP JUMPDEST PUSH2 0x542 PUSH1 0x20 DUP4 ADD DUP6 PUSH2 0x2AC JUMP JUMPDEST PUSH2 0x54F PUSH1 0x40 DUP4 ADD DUP5 PUSH2 0x292 JUMP JUMPDEST SWAP5 SWAP4 POP POP POP POP JUMP JUMPDEST PUSH0 DUP2 MLOAD SWAP1 POP SWAP2 SWAP1 POP JUMP JUMPDEST PUSH0 DUP3 DUP3 MSTORE PUSH1 0x20 DUP3 ADD SWAP1 POP SWAP3 SWAP2 POP POP JUMP JUMPDEST PUSH0 DUP2 SWAP1 POP PUSH1 0x20 DUP3 ADD SWAP1 POP SWAP2 SWAP1 POP JUMP JUMPDEST PUSH2 0x589 DUP2 PUSH2 0x289 JUMP JUMPDEST DUP3 MSTORE POP POP JUMP JUMPDEST PUSH0 PUSH2 0x59A DUP4 DUP4 PUSH2 0x580 JUMP JUMPDEST PUSH1 0x20 DUP4 ADD SWAP1 POP SWAP3 SWAP2 POP POP JUMP JUMPDEST PUSH0 PUSH1 0x20 DUP3 ADD SWAP1 POP SWAP2 SWAP1 POP JUMP JUMPDEST PUSH0 PUSH2 0x5BC DUP3 PUSH2 0x557 JUMP JUMPDEST PUSH2 0x5C6 DUP2 DUP6 PUSH2 0x561 JUMP JUMPDEST SWAP4 POP PUSH2 0x5D1 DUP4 PUSH2 0x571 JUMP JUMPDEST DUP1 PUSH0 JUMPDEST DUP4 DUP2 LT ISZERO PUSH2 0x601 JUMPI DUP2 MLOAD PUSH2 0x5E8 DUP9 DUP3 PUSH2 0x58F JUMP JUMPDEST SWAP8 POP PUSH2 0x5F3 DUP4 PUSH2 0x5A6 JUMP JUMPDEST SWAP3 POP POP PUSH1 0x1 DUP2 ADD SWAP1 POP PUSH2 0x5D4 JUMP JUMPDEST POP DUP6 SWAP4 POP POP POP POP SWAP3 SWAP2 POP POP JUMP JUMPDEST PUSH0 PUSH1 0x20 DUP3 ADD SWAP1 POP DUP2 DUP2 SUB PUSH0 DUP4 ADD MSTORE PUSH2 0x626 DUP2 DUP5 PUSH2 0x5B2 JUMP JUMPDEST SWAP1 POP SWAP3 SWAP2 POP POP JUMP INVALID LOG2 PUSH5 0x6970667358 0x22 SLT KECCAK256 PUSH11 0xCD9B958808FF7D7DA34B07 0x2D BASEFEE SDIV JUMPI 0xE3 0xC8 PUSH29 0x4AB612202CC78556E3669D1A5664736F6C634300081A00330000000000 "
		},
		"gasEstimates": {
			"creation": {
				"codeDepositCost": "327200",
				"executionCost": "22471",
				"totalCost": "349671"
			},
			"external": {
				"arr(uint256)": "infinite",
				"arrinput(uint256[])": "infinite",
				"destructingAssignments()": "infinite",
				"getArr()": "infinite",
				"num()": "2447",
				"returnMany()": "infinite",
				"returnManyView()": "infinite",
				"returnManyViewXBY()": "infinite"
			}
		},
		"methodIdentifiers": {
			"arr(uint256)": "71e5ee5f",
			"arrinput(uint256[])": "620f98b1",
			"destructingAssignments()": "3f7f3db6",
			"getArr()": "fb8cbced",
			"num()": "4e70b1dc",
			"returnMany()": "86887544",
			"returnManyView()": "7560ca37",
			"returnManyViewXBY()": "9336a79a"
		}
	},
	"abi": [
		{
			"inputs": [
				{
					"internalType": "uint256",
					"name": "",
					"type": "uint256"
				}
			],
			"name": "arr",
			"outputs": [
				{
					"internalType": "uint256",
					"name": "",
					"type": "uint256"
				}
			],
			"stateMutability": "view",
			"type": "function"
		},
		{
			"inputs": [
				{
					"internalType": "uint256[]",
					"name": "_arr",
					"type": "uint256[]"
				}
			],
			"name": "arrinput",
			"outputs": [],
			"stateMutability": "nonpayable",
			"type": "function"
		},
		{
			"inputs": [],
			"name": "destructingAssignments",
			"outputs": [
				{
					"internalType": "uint256",
					"name": "",
					"type": "uint256"
				},
				{
					"internalType": "bool",
					"name": "",
					"type": "bool"
				},
				{
					"internalType": "uint256",
					"name": "",
					"type": "uint256"
				},
				{
					"internalType": "uint256",
					"name": "",
					"type": "uint256"
				},
				{
					"internalType": "uint256",
					"name": "",
					"type": "uint256"
				}
			],
			"stateMutability": "pure",
			"type": "function"
		},
		{
			"inputs": [],
			"name": "getArr",
			"outputs": [
				{
					"internalType": "uint256[]",
					"name": "",
					"type": "uint256[]"
				}
			],
			"stateMutability": "view",
			"type": "function"
		},
		{
			"inputs": [],
			"name": "num",
			"outputs": [
				{
					"internalType": "uint256",
					"name": "",
					"type": "uint256"
				}
			],
			"stateMutability": "view",
			"type": "function"
		},
		{
			"inputs": [],
			"name": "returnMany",
			"outputs": [
				{
					"internalType": "uint256",
					"name": "",
					"type": "uint256"
				},
				{
					"internalType": "bool",
					"name": "",
					"type": "bool"
				},
				{
					"internalType": "uint256",
					"name": "",
					"type": "uint256"
				}
			],
			"stateMutability": "pure",
			"type": "function"
		},
		{
			"inputs": [],
			"name": "returnManyView",
			"outputs": [
				{
					"internalType": "uint256",
					"name": "x",
					"type": "uint256"
				},
				{
					"internalType": "bool",
					"name": "b",
					"type": "bool"
				},
				{
					"internalType": "uint256",
					"name": "y",
					"type": "uint256"
				}
			],
			"stateMutability": "view",
			"type": "function"
		},
		{
			"inputs": [],
			"name": "returnManyViewXBY",
			"outputs": [
				{
					"internalType": "uint256",
					"name": "x",
					"type": "uint256"
				},
				{
					"internalType": "bool",
					"name": "b",
					"type": "bool"
				},
				{
					"internalType": "uint256",
					"name": "y",
					"type": "uint256"
				}
			],
			"stateMutability": "view",
			"type": "function"
		}
	]
}